:100000000C9435000C945D000C945D000C945D0024
:100010000C945D000C945D000C945D000C945D00EC
:100020000C94CE000C945D000C945D000C945D006B
:100030000C945D000C945D000C945D000C945D00CC
:100040000C9484000C945D000C945D000C945D0095
:100050000C945D000C945D000C945D000C945D00AC
:100060000C945D000C945D00DA0011241FBECFEFEC
:10007000D8E0DEBFCDBF21E0A6E1B1E001C01D9216
:10008000A736B207E1F711E0A0E0B1E0ECE7F3E05A
:1000900002C005900D92A631B107D9F710E0C5E373
:1000A000D0E004C02197FE010E94B601C433D107FD
:1000B000C9F70E94ED000C94BC010C9400003FB7FE
:1000C000F8948091630190916401A0916501B091D1
:1000D000660126B5A89B05C02F3F19F00196A11D0A
:1000E000B11D3FBFBA2FA92F982F8827820F911DCE
:1000F000A11DB11DBC01CD0142E0660F771F881F15
:10010000991F4A95D1F708951F920F920FB60F923B
:1001100011242F933F938F939F93AF93BF9380911D
:100120005F0190916001A0916101B09162013091F5
:100130005E0123E0230F2D3720F40196A11DB11D90
:1001400005C026E8230F0296A11DB11D20935E0174
:1001500080935F0190936001A0936101B09362016D
:100160008091630190916401A0916501B091660155
:100170000196A11DB11D8093630190936401A0932A
:100180006501B0936601BF91AF919F918F913F91AF
:100190002F910F900FBE0F901F9018951F920F92E6
:1001A0000FB60F9211241092B2000F900FBE0F9055
:1001B0001F901895E6E1F1E01682178210861186ED
:1001C000128613861486158616861786108A118A5B
:1001D000128A138A148A158A0895789484B58260E5
:1001E00084BD84B5816084BD85B5826085BD85B5DB
:1001F000816085BD80916E00816080936E00109259
:1002000081008091810082608093810080918100D3
:100210008160809381008091800081608093800064
:100220008091B10084608093B1008091B0008160C2
:100230008093B00080917A00846080937A008091EE
:100240007A00826080937A0080917A008160809346
:100250007A0080917A00806880937A001092C100C1
:10026000539A539A8091B0008E7F8093B000809112
:10027000B0008D7F8093B0008091B100877F809324
:10028000B1008091B10081608093B1008091B10094
:100290008D7F8093B1008091B1008B7F8093B100FE
:1002A00080EC8093B4008091700084608093700033
:1002B00078948091B0008F7E8093B0008091B000E0
:1002C0008F7D8093B00006E111E0CBE1D3E00E9486
:1002D0005F004B015C0134E6C32ED12CE12CF12CE4
:1002E0000E945F00DC01CB0188199909AA09BB09AA
:1002F000883E9340A105B10598F321E0C21AD108C8
:10030000E108F10888EE880E83E0981EA11CB11C5C
:10031000C114D104E104F10419F7E0E0F1E00E1793
:100320001F07A9F2819191912091B0002061209343
:10033000B0002091B0002F7D2093B0008230910555
:1003400038F0880F991F880F991F05970197F1F7CB
:100350008091B0008F7E8093B0008091B0008F7D3F
:100360008093B000CE010197F1F7D9CFEE0FFF1FB8
:0C0370000590F491E02D0994F894FFCF63
:10037C00E80358029001580290015802900158026B
:06038C009001580220035D
:107E0000112484B714BE81FFF0D085E080938100F7
:107E100082E08093C00088E18093C10086E0809377
:107E2000C20080E18093C4008EE0C9D0259A86E02C
:107E300020E33CEF91E0309385002093840096BBD3
:107E4000B09BFECF1D9AA8958150A9F7CC24DD24C4
:107E500088248394B5E0AB2EA1E19A2EF3E0BF2EE7
:107E6000A2D0813461F49FD0082FAFD0023811F036
:107E7000013811F484E001C083E08DD089C08234E0
:107E800011F484E103C0853419F485E0A6D080C0E4
:107E9000853579F488D0E82EFF2485D0082F10E0AE
:107EA000102F00270E291F29000F111F8ED06801E7
:107EB0006FC0863521F484E090D080E0DECF843638
:107EC00009F040C070D06FD0082F6DD080E0C81688
:107ED00080E7D80618F4F601B7BEE895C0E0D1E017
:107EE00062D089930C17E1F7F0E0CF16F0E7DF06D8
:107EF00018F0F601B7BEE89568D007B600FCFDCFD4
:107F0000A601A0E0B1E02C9130E011968C91119780
:107F100090E0982F8827822B932B1296FA010C0160
:107F200087BEE89511244E5F5F4FF1E0A038BF0790
:107F300051F7F601A7BEE89507B600FCFDCF97BE46
:107F4000E89526C08437B1F42ED02DD0F82E2BD052
:107F50003CD0F601EF2C8F010F5F1F4F84911BD097
:107F6000EA94F801C1F70894C11CD11CFA94CF0C13
:107F7000D11C0EC0853739F428D08EE10CD085E9AC
:107F80000AD08FE07ACF813511F488E018D01DD067
:107F900080E101D065CF982F8091C00085FFFCCF94
:107FA0009093C60008958091C00087FFFCCF809118
:107FB000C00084FD01C0A8958091C6000895E0E648
:107FC000F0E098E1908380830895EDDF803219F02E
:107FD00088E0F5DFFFCF84E1DECF1F93182FE3DFCA
:107FE0001150E9F7F2DF1F91089580E0E8DFEE27F6
:047FF000FF270994CA
:027FFE00040479
:0400000300007E007B
:00000001FF