:100000001DC10000EBC600004AC1000048C100004D
:1000100046C1000044C1000042C1000040C10000D0
:100020003EC100003CC100003AC1000038C10000E0
:1000300036C1000034C1000019C7000030C1000003
:100040002EC100002CC100002AC1000028C1000000
:1000500026C1000024C1000022C100000C948808C1
:100060001EC100000C94CC1A0C94A31A18C10000F5
:1000700016C1000014C1000012C1000010C1000030
:100080000EC100000CC100000AC1000008C1000040
:1000900006C1000004C1000002C1000063C50000E9
:1000A000FEC00000FCC00000FAC00000F8C0000064
:1000B000F6C00000F4C00000F2C00000F0C0000074
:1000C000EEC00000ECC00000EAC00000E8C0000084
:1000D000E6C00000E4C00000E2C00000E0C0000094
:1000E000DEC00000CD07D007BF07C307C907070858
:1000F000D407D807DE07E207E607EC07F007F407A6
:100100000708FA07FE070208000021002400270064
:100110002A002D0030003300010100000401070116
:100120000A017C3C3E5E2B3D3F2F5B5D3B2C2A222F
:100130005C00000020002300260029002C002F0076
:1001400032000001000003010601090100000A0B52
:1001500002090C0D0E080703040100000000000056
:10016000000000000000000000000000000000008F
:10017000000000000000000012111000000000004C
:10018000000000000000000000000000000000006F
:10019000000001021020200808102040102040809C
:1001A000020102010804020101020408102040803B
:1001B00080402010080402018004020180402010C9
:1001C0000804020108040201010204081020408012
:1001D00001020408102040800000220025002800B1
:1001E0002B002E003100340002010000050108013F
:1001F0000B010505050507050808080802020202AB
:100200000A0A0808040404040101010101010101B2
:100210000303030303030303040707070C0C0C0C7D
:100220000C0C0C0C02020202060606060606060666
:100230000B0B0B0B0B0B0B0B5E23522311241FBE5E
:10024000CFEFD1E2DEBFCDBF00E00CBF13E0A0E0F6
:10025000B2E0E4EBF3E500E00BBF02C007900D92C3
:10026000A231B107D9F728E0A2E1B3E001C01D92A5
:10027000A436B207E1F711E0CDE1D1E000E006C01D
:1002800021970109802FFE010E948225CC31D107E0
:1002900080E00807A9F70E94041E0C94C929B0CE7B
:1002A00010921303809112038F5F833018F48093B0
:1002B000120302C01092120331E0309303029091B6
:1002C00014038091C6079923E1F08130B9F02091A1
:1002D0004F08822F90E0AC01440F551F840F951FEB
:1002E0008055984FFC01ED59FF4F42E04083319615
:1002F0001082319630832F5F20934F0810921403A1
:1003000008958823B9F020914F08822F90E0AC0126
:10031000440F551F840F951F8055984FFC01ED59D0
:10032000FF4F32E0308331961082319610822F5F7A
:1003300020934F0881E08093140308950F931F9337
:10034000CF93DF93CDB7DEB76B970FB6F894DEBFD0
:100350000FBECDBF14E10BE080914F08882309F454
:1003600042C090E001979C01220F331F820F931F20
:100370008055984FDC01AB59BF4FFC01EC59FF4F42
:10038000208130E02F5F3F4F129FB001139F700D0F
:100390001124319780814C91912F189F900D112439
:1003A000892F0E94441620914F08822F90E00197D8
:1003B000AC01440F551F840F951F8055984FFC01C9
:1003C000ED59FF4F30813196A0810A9FD001112451
:1003D000A30FB11DA055B84F319680818C93215049
:1003E00020934F08B9CF80910302882309F45AC0A3
:1003F00060E080E063D560E080E060D580913B07FD
:100400008130F1F565E672E0CE0101960E94EA26A0
:1004100080911303813059F038F0823059F08330E5
:1004200079F469E772E008C069E672E005C06FE63A
:1004300072E002C063E772E0CE0101960E94D4260A
:10044000809112031F928F9380E892E09F938F9385
:100450008E01075E1F4F1F930F930E940027B80164
:10046000CE0101960E94D42663E073E0CE0101968E
:100470000E94D4260F900F900F900F900F900F9026
:10048000CE0101960E94F71240913707509138072C
:100490006091390770913A07CE0101960E940814C5
:1004A000109203026B960FB6F894DEBF0FBECDBF5D
:1004B000DF91CF911F910F9108950F931F93CF93C9
:1004C000DF93FC01A3A1B4A11097E1F1EC01158A1F
:1004D000168A178A108E038CF48DE02D309771F1F7
:1004E000888181FD2BC014960D911C91159715964E
:1004F000DC93CE93149788818260888319959881C4
:1005000080FB90F9988388818D7F8883EBA1FCA183
:1005100015830483F1D509811A812B813C810D83D8
:100520001E832F833887DC01CB01801B910BA20B2C
:10053000B30B89879A87AB87BC8704C088818160A9
:100540008883E8CFDF91CF911F910F910895CF93CA
:10055000DF93EC01988188818E7F888388818D7FED
:10056000888390FF02C0CE01B8D48BA19CA10097D4
:1005700069F11CA21BA2EF8DF8A1A9A1BAA1309725
:1005800099F4109749F4DC0111961C921E9213966F
:100590001C921E9212971AC090961C921E925F9700
:1005A000FC01B183A08312C0109741F412A211A2E2
:1005B000DC011396FC93EE93129708C0B2A3A1A39B
:1005C000A9A1BAA19096FC93EE935F97DF91CF918A
:1005D0000895DC015996ED91FC915A973097B9F046
:1005E00083899489A589B6894285538564857585F3
:1005F000841B950BA60BB70B811520E89207A1056C
:10060000B10538F08FEF9FE7A0E0B0E0089580E0FB
:1006100090E00895CF93DF931F92CDB7DEB7698343
:10062000DC01ED91FC910280F381E02D41E050E08E
:10063000BE016F5F7F4F19950F90DF91CF910895A5
:1006400085ED8093BC008091BC0084FDFCCF1092AE
:10065000DE03089540918403262F30E0240F311DDE
:1006600021323105DCF42091DE032430C9F4FC0191
:1006700080E090E0861758F4309184032191DC01EA
:10068000AE59BC4FA30FB11D2C930196F3CF8091AF
:100690008403680F6093840380E0089581E00895E7
:1006A00082E008950895E091070680910606E81714
:1006B00030F4F0E0E85FF94F808190E008958FEF2B
:1006C0009FEF08959091070680910606981750F4C1
:1006D000E92FF0E0E85FF94F208130E09F5F9093D1
:1006E000070602C02FEF3FEFC9010895809106066B
:1006F00090E020910706821B91090895CF92DF9226
:10070000EF92FF920F931F93CF93DF937C01262FDD
:10071000972F8A018091DF03882391F0C62FD72F6E
:100720006E01C40ED51ECC15DD0569F06991D701A7
:10073000ED91FC910190F081E02DC7011995F3CF67
:10074000642F822F87DFC801DF91CF911F910F9116
:10075000FF90EF90DF90CF900895CF93DF931F929B
:10076000CDB7DEB769832091DF032223D1F020913A
:100770000204203240F021E030E0FC013383228388
:1007800080E090E014C08091E003E82FF0E0EF51AA
:10079000FC4F998190838F5F8093E00380930204E4
:1007A00004C061E0CE01019655DF81E090E00F903A
:1007B000DF91CF910895FC01818D928D009711F00A
:1007C0000C940C0F0895CF93DF93EC01898D9A8DD3
:1007D000009739F481E090E09B838A8380E090E089
:1007E0000BC0FC01138212820E94530FE98DFA8D17
:1007F00022813381232B71F7DF91CF9108957F926E
:100800008F929F92AF92BF92CF92DF92EF92FF9220
:100810000F931F93CF93DF9300D01F92CDB7DEB716
:100820008BE40E94741B85FDDBC08E010F5F1F4FA0
:1008300064E0F62EF00E87ED0E94741BF8018193A0
:100840008F01FE12F8CFF9807A800B811C818BE436
:100850000E94741B85FF04C06FEF8BE00E94321B67
:10086000812F90E0C397853B934008F071C020E151
:10087000F29EC0011124272D30E044E035952795E4
:100880004A95E1F7282B392BC901A0E0B0E09C0183
:10089000AD012E51310941095109A0EFB0E00E948C
:1008A000382552E8852E5FE0952EA12CB12CA501AC
:1008B00094010E941C2569017A01872D8F70402FB9
:1008C00050E0582B60E070E09A01AB012E513109E5
:1008D00041095109A0E4B1E00E943825A501940125
:1008E0000E941C2549015A0182EA92E00E94E61208
:1008F0008FEFC816D806E806F80631F46FEF7FEFE1
:10090000CB010E940C1805C04AE0C701B6010E9445
:10091000CC1787EA92E00E94E612B7FE05C0C50137
:10092000B4010E940C1805C04AE0C501B4010E9440
:10093000CC178EEA92E00E94E612612F70E080E010
:1009400090E04AE00E94CC1785EB92E00E94E6120C
:1009500080911503813009F443C08FEE9BE70E941C
:10096000651987E080930A0281E49EEF9093090263
:100970008093080248EB52E06FE070E081E290E083
:100980000E9464184FEB52E060E570E08FE590E064
:100990000E94641822E348E766E98EE10E9432185B
:1009A00022E348E766E98AEA0E94321883E08093EE
:1009B0000A02109209021092080243EC52E065EA22
:1009C00070E082E390E00E94641849EC52E065EA2E
:1009D00070E083EC90E00E94641881E0809315033E
:1009E0000F900F900F900F90DF91CF911F910F916B
:1009F000FF90EF90DF90CF90BF90AF909F908F903F
:100A00007F900895EF92FF920F931F93CF93DF9300
:100A1000EC017B018A011B821A8288EE93E0A0E040
:100A2000B0E08C839D83AE83BF8387E192E099839E
:100A300088838DE190E00E9496259A8F898F009798
:100A400079F02DE1F701DC0101900D922A95E1F793
:100A50004CE050E0B801CE010C960E94F126188EB1
:100A6000DF91CF911F910F91FF90EF900895CF9359
:100A7000DF931F92CDB7DEB741E050E0BE016F5F5C
:100A80007F4F0E940A0E019719F4898190E002C0FD
:100A90008FEF9FEF0F90DF91CF910895FC01818D33
:100AA000928D009709F0E3CF8FEF9FEF08950F939A
:100AB0001F93CF93DF93FC01818D928D0097A9F056
:100AC000EF01D5DF8C010F3F8FEF180789F0898D7B
:100AD0009A8DFC0142855385648575854150510985
:100AE0006109710902D7C80105C080E090E002C029
:100AF0008FEF9FEFDF91CF911F910F910895CF93CB
:100B0000CFB7F8948091A903811124C0E7E2F2E005
:100B10008491E7ECF1E09491E82FF0E0EE0FFF1FF5
:100B2000E85FFE4FA591B491EC91E92321F461E0D7
:100B300085E30E94021B61E085E36AD28CB5806187
:100B40008CBD8CB580648CBD61E084E361D261E0D2
:100B500083E35ED28091A9038F5F8093A903CFBF07
:100B6000CF9108951F920F920FB60F9211240BB6DA
:100B70000F922F933F934F935F936F937F938F9336
:100B80009F93AF93BF93EF93FF938091B900887FBA
:100B9000803609F49CC068F5883209F45BC090F493
:100BA000803109F454C038F4882309F4F6C0883041
:100BB00009F44DC0F5C0883109F44CC0803209F405
:100BC0005DC0EEC0803409F468C048F4803309F495
:100BD00055C0883309F0E4C08093DC03D8C0803569
:100BE00009F44FC0883509F45DC0883409F0D8C0D5
:100BF000D6C0883909F4C7C0A8F4883709F467C09B
:100C000038F4883609F463C0803709F460C0C8C07E
:100C1000883809F4B8C0803909F45FC0803809F019
:100C2000BFC05BC0803B09F486C038F4803A09F449
:100C300066C0883A09F47FC0B3C0803C09F4A7C0FD
:100C4000883C09F4A4C0883B09F48AC0A9C08091FB
:100C5000B90310C09091DB038091DA03981770F507
:100C6000E091DB0381E08E0F8093DB03F0E0E6543C
:100C7000FC4F80818093BB0085EC86C08093DC03B1
:100C80008EC0E091DB0381E08E0F8093DB038091C7
:100C9000BB00F0E0E654FC4F80839091DB03809131
:100CA000DA036EC0E091DB0381E08E0F8093DB03FB
:100CB0008091BB00F0E0E654FC4F80838091DD031F
:100CC00081116DC081E08093B80384EA61C083E044
:100CD0008093DE031092A803CFCF8091A8038032C7
:100CE00008F051C0E091A80381E08E0F8093A80323
:100CF0008091BB00F0E0E857FC4F8083BDCF85ECCE
:100D00008093BC001092DE038091A803803230F4FF
:100D1000E091A803F0E0E857FC4F10826091A8032F
:100D200070E0E0918603F091870388E893E01995DD
:100D30001092A80335C084E08093DE0310928503EF
:100D400010928403E0918203F091830319958091BE
:100D50008403811105C081E08093840310926203B3
:100D6000E091850381E08E0F80938503F0E0EE59DA
:100D7000FC4F80818093BB00909185038091840318
:100D8000981708F479CF85E88093BC0009C085ECFA
:100D90008093BC001092DE0303C01092DC0350DC91
:100DA000FF91EF91BF91AF919F918F917F916F9143
:100DB0005F914F913F912F910F900BBE0F900FBEFF
:100DC0000F901F90189508958EBD00000DB407FE7A
:100DD000FDCF8EB508958CBD9DBD08951F920F92D5
:100DE0000FB60F9211240BB60F922F933F938F9350
:100DF0009F93EF93FF938091600390916103109212
:100E000061031092600320913E0730913F078217E3
:100E10009307A0F0E0915E03F0915F03EE0FFF1FD8
:100E2000EA5EFC4F9183808320915E0330915F03E3
:100E30002F5F3F4F30935F0320935E0320913C0769
:100E400030913D078217930720F010925F031092B4
:100E50005E03FF91EF919F918F913F912F910F90A2
:100E60000BBE0F900FBE0F901F9018951F920F9200
:100E70000FB60F9211242F938F939F931092B2006D
:100E80008091600390916103019690936103809338
:100E900060038091600390916103843F914030F042
:100EA00084EF91E090936103809360039F918F9111
:100EB0002F910F900FBE0F901F9018950F931F93B7
:100EC00070E000E010E024E130E044E150E090E028
:100ED0000E94B6121F910F9108950F931F93CF9305
:100EE000DF93DC015D96ED91FC915E97309781F088
:100EF000EC01ABA1BCA114960D911C911597159610
:100F00009C938E9314971995EBA1FCA115830483F0
:100F1000DF91CF911F910F9108953FB7F894809181
:100F2000B4039091B503A091B603B091B70326B571
:100F3000A89B05C02F3F19F00196A11DB11D3FBF11
:100F4000BA2FA92F982F8827820F911DA11DB11D9F
:100F5000BC01CD0142E0660F771F881F991F4A959B
:100F6000D1F7089590E0FC013197E231F10508F0E6
:100F70004EC08827EE58FF4F8F4F0C9482258091EA
:100F800080008F7703C0809180008F7D80938000E8
:100F9000089580918000877FF9CF84B58F7702C054
:100FA00084B58F7D84BD08958091B0008F7703C094
:100FB0008091B0008F7D8093B00008958091900063
:100FC0008F7707C0809190008F7D03C08091900043
:100FD000877F8093900008958091A0008F7707C04D
:100FE0008091A0008F7D03C08091A000877F8093B7
:100FF000A0000895809120018F7707C08091200183
:101000008F7D03C080912001877F80932001089508
:10101000CF93DF9390E0FC01EE56FE4F2491FC014C
:10102000EE50FE4F8491882361F190E0880F991F64
:10103000FC01E85FFE4FC591D491FC01E852FE4FE0
:10104000A591B491611109C09FB7F894888120954A
:1010500082238883EC912E230BC0623061F49FB70A
:10106000F8943881822F809583238883EC912E2BEE
:101070002C939FBF06C08FB7F894E8812E2B28834E
:101080008FBFDF91CF9108958F929F92AF92BF92C1
:10109000CF92DF92EF92FF926B017C013EDF4B011A
:1010A0005C01C114D104E104F104E9F036DFDC0194
:1010B000CB0188199909AA09BB09883E9340A1056B
:1010C000B10578F321E0C21AD108E108F10888EEF1
:1010D000880E83E0981EA11CB11CC114D104E10448
:1010E000F10421F7DECFFF90EF90DF90CF90BF901B
:1010F000AF909F908F9008952FB7F8946091B003B0
:101100007091B1038091B2039091B3032FBF089502
:101110001F920F920FB60F9211242F933F938F932C
:101120009F93AF93BF938091B0039091B103A0912F
:10113000B203B091B3033091AF0323E0230F2D37F7
:1011400020F40196A11DB11D05C026E8230F0296CB
:10115000A11DB11D2093AF038093B0039093B10301
:10116000A093B203B093B3038091B4039091B503FD
:10117000A091B603B091B7030196A11DB11D809354
:10118000B4039093B503A093B603B093B703BF9194
:10119000AF919F918F913F912F910F900FBE0F9024
:1011A0001F901895CF93DF93EC018091AA038111D2
:1011B00008C081E08093AA038091C5069091C6067D
:1011C0000ADE60E08C81DF91CF910C94021B61E01C
:1011D000FC0184810E94021B8091AA03882319F0DC
:1011E0001092AA03F0CD08958FEFEECD0F931F93C9
:1011F000CF93DF93EB0180DF8B01F6DF8F3F41F070
:101200007BDF601B710B6C177D07B8F380E001C0BA
:1012100081E0DF91CF911F910F910895CF93DF93DC
:10122000EC018E81882379F08F8198859C012F5F56
:101230003F4F38872F838230924010F4D5DFF4CFB0
:10124000CE01C5DF1E82DF91CF910895CF92DF924C
:10125000FF920F931F93CF93DF9300D01F92CDB7D0
:10126000DEB76C01F62E29833A834B835C83D6DF8D
:10127000C60198DF6CE271E0C601B8DF8F2D806493
:10128000A3DD08E110E05C814B813A812981DA011C
:10129000C901002E04C0B695A795979587950A9425
:1012A000D2F729833A834B835C838EDD0850110982
:1012B00029813A814B815C81083F8FEF180739F70C
:1012C000FF2029F0E8E0FE1204C087E803C085E9AA
:1012D00001C08FEF79DD10E087DFF601828787FF9D
:1012E00004C01F3F11F01F5FF7CF0F900F900F90BA
:1012F0000F90DF91CF911F910F91FF90DF90CF90D2
:101300000895AF92BF92CF92DF92EF92FF920F9328
:101310001F93CF93DF93EC016901C801820F931FE4
:101320008130924008F068C08E81882371F08881F6
:101330009981AA81BB81481759076A077B0729F45D
:101340008F819885C816D90688F5488359836A83A2
:101350007B838B85833039F089E0440F551F661FEE
:10136000771F8A95D1F79A01AB0161E1CE016EDF5B
:10137000882319F083E08D833FC0BEDE5B0134DF3C
:101380008A878F3F41F4B8DE6A197B096D3271405C
:10139000B0F38FE003C08E3F29F08DE08D83CE0146
:1013A00016DF2AC018861F8281E08E838F81988580
:1013B0008C159D0538F418DF8F81988501969887E4
:1013C0008F83F4CF6701E00EF11ECE14DF0429F005
:1013D0000BDFF60181936F01F8CF8F819885080F9D
:1013E000191F18870F838985882319F0011512406A
:1013F00038F0CE0113DF04C0CE01E9DE80E001C089
:1014000081E0DF91CF911F910F91FF90EF90DF90DE
:10141000CF90BF90AF900895EF92FF920F931F93DC
:10142000CF93DF93EC0179014115510561057105F9
:1014300011F482E134C08B85833039F089E0440FA8
:10144000551F661F771F8A95D1F79A01AB0168E196
:10145000CE01FCDE882311F084E021C08EEFB4DCE5
:1014600087018EEFF81AF80181918F01ADDC0E151E
:101470001F05C9F78FEFA8DC8FEFA6DCB5DE8A87E2
:101480008F71853029F081E18D83CE01A0DE08C007
:1014900068E572E0CE01AADE811106C085E18D8388
:1014A000CE0195DE80E010C020E030E0A9016DE0C3
:1014B000CE01CCDE811103C097DE882311F084E1D8
:1014C000EECFCE0184DE81E0DF91CF911F910F91AD
:1014D000FF90EF90089580910304882399F1409143
:1014E000040250910502609106027091070224E007
:1014F00034E080910406909105068EDF811102C0D0
:1015000080E008954091AB035091AC036091AD032E
:101510007091AE03411551056105710589F024E014
:1015200034E0809104069091050676DF882341F32C
:101530001092AB031092AC031092AD031092AE0365
:101540001092030481E008958F929F92AF92BF9210
:10155000EF92FF920F931F93CF934B015C01C42F27
:101560008091040290910502A0910602B0910702B9
:1015700088159905AA05BB05F1F0ADDF811102C000
:1015800080E01FC084E0E82E84E0F82E00E012E046
:1015900020E030E0B501A401809104069091050699
:1015A000B0DE882369F38092040290920502A09233
:1015B0000602B092070280910304C82BC093030473
:1015C00081E0CF911F910F91FF90EF90BF90AF906E
:1015D0009F908F9008954F925F926F927F928F921B
:1015E0009F92AF92BF92CF92DF92EF92FF920F93B2
:1015F0001F93CF93DF93EC016A017B01280139012E
:10160000423051056105710510F480E072C0898592
:101610009A85AB85BC850196A11DB11D84179507E0
:10162000A607B70790F38B889C88AD88BE888F8902
:10163000803129F4BB27AF2D9E2D8D2D09C0DB01F4
:10164000CA0147E0B695A795979587954A95D1F732
:10165000880E991EAA1EBB1E80910402909105025D
:10166000A0910602B091070288169906AA06BB0649
:1016700079F48F89803199F4DD24EE24FF24C601AA
:10168000880F991FFC01EC5FFB4F5182408218C00C
:1016900040E0C501B40158DF8111EBCFB6CFE8942B
:1016A000C7F8DD24EE24FF24C601880F991F880F98
:1016B000991FFC01EC5FFB4F408251826282738272
:1016C000809103048160809303048A89823080F0D2
:1016D0008D819E81AF81B885880E991EAA1EBB1E82
:1016E0008092AB039092AC03A092AD03B092AE0394
:1016F00081E0DF91CF911F910F91FF90EF90DF90EC
:10170000CF90BF90AF909F908F907F906F905F90A1
:101710004F9008958F929F92AF92BF92CF92DF9297
:10172000EF92FF920F931F93CF93DF93FC0181857C
:101730009285A385B4850196A11DB11D84179507D7
:10174000A607B70710F480E05BC083899489A58958
:10175000B689C789C03129F4852E962EA72EBB24C1
:1017600009C04A015B01C7E0B694A7949794879497
:10177000CA95D1F7E9016A017B018F01BC01CD0156
:10178000680D791D8A1D9B1D8090040290900502B2
:10179000A0900602B0900702681579058A059B059E
:1017A00099F4F80187898031A1F4B701A601552782
:1017B00066277727440F551FFA01EC5FFB4F8081A6
:1017C0009181A0E0B0E017C040E0BEDE8111E9CF1A
:1017D000BACFB701A6014F77552766277727440F61
:1017E000551F440F551FFA01EC5FFB4F808191811B
:1017F000A281B381BF7088839983AA83BB8381E070
:10180000DF91CF911F910F91FF90EF90DF90CF90DC
:10181000BF90AF909F908F9008954F925F926F927C
:101820007F92AF92BF92CF92DF92EF92FF920F938F
:101830001F93CF93DF9300D01F92CDB7DEB78C01FB
:1018400049835A836B837C835901C12CD12C760147
:10185000412C82E0582E612C712C49815A816B8178
:101860007C819E012F5F3F4FC80154DF882351F1D7
:10187000D301C201F801058404C0880F991FAA1F73
:10188000BB1F0A94D2F7C80ED91EEA1EFB1E49815F
:101890005A816B817C818789803129F088EF9FEFA5
:1018A000AFEFBFE004C088EF9FEFA0E0B0E04817C3
:1018B00059076A077B0788F2F501C082D182E2826C
:1018C000F38281E00F900F900F900F90DF91CF91F6
:1018D0001F910F91FF90EF90DF90CF90BF90AF904E
:1018E0007F906F905F904F9008958F929F92AF92EC
:1018F000BF92CF92DF92EF92FF920F931F93CF93FD
:10190000DF93EC018D81811102C080E076C00B89EC
:101910001C892D893E890417150726073707A8F368
:101920006A017B01823029F4CA86DB86EC86FD865B
:101930000DC0C114D104E104F10451F41E821F82D0
:10194000188619861A861B861C861D8681E055C05E
:101950008A849B84AC84BD84EB8DFC8D258530E02E
:10196000275F3F4FB501A401415051096109710939
:10197000022E04C076956795579547950A94D2F73D
:10198000D701C6010197A109B10904C0B695A79571
:10199000979587952A95D2F784179507A607B707D5
:1019A00020F089288A288B2849F44F89588D698D21
:1019B0007A8D4E835F836887798704C0841B950B7B
:1019C000A60BB70B4C015D018E010A5F1F4F8114FE
:1019D0009104A104B10409F4A7CF4E815F81688509
:1019E000798598018B8D9C8D95DE91E0891A9108FF
:1019F000A108B1088111EBCF88CFDF91CF911F9162
:101A00000F91FF90EF90DF90CF90BF90AF909F909D
:101A10008F9008953F924F925F926F927F928F9234
:101A20009F92AF92BF92CF92DF92EF92FF920F936D
:101A30001F93CF93DF93CDB7DEB72C970FB6F894F3
:101A4000DEBF0FBECDBF5C01DC015B968D909C902C
:101A50005C971696CD90DD90ED90FC901997C1148F
:101A6000D104E104F10439F0BFEFCB1ADB0AEB0A31
:101A7000FB0A312C07C0F401C080D180E280F380E2
:101A800033243394F40181859285A385B4859C0128
:101A9000AD012F5F3F4F4F4F5F4F29873A874B87ED
:101AA0005C87260137011D821E821F821886F40181
:101AB00081859285A385B4852D813E814F8158858E
:101AC000281739074A075B0708F060C089859A859F
:101AD000AB85BC858C159D05AE05BF0550F482E035
:101AE000C82ED12CE12CF12C92E0492E512C612CE6
:101AF000712C9E012F5F3F4FB701A601C4010ADE82
:101B0000882309F443C089819A81AB81BC81892BE8
:101B10008A2B8B2B41F0260137019FEF491A590A76
:101B2000690A790A05C0C414D504E604F70491F0E3
:101B30002D813E814F8158852F5F3F4F4F4F5F4F23
:101B40002D833E834F8358873FEFC31AD30AE30A9E
:101B5000F30AADCF0FEF1FEF2FEF3FE0B301A2016C
:101B6000C40139DD882391F0D50116964D915D9120
:101B70006D917C911997411551056105710541F0F1
:101B800093018201C40127DD811102C080E02AC0D7
:101B9000D50116964D925D926D927C9219973320E5
:101BA00051F0D301C2010196A11DB11DF401808342
:101BB0009183A283B383F5018789908DA18DB28D26
:101BC000892B8A2B8B2B69F4D50157964D925D9208
:101BD0006D927C925A9714968C9114978068149603
:101BE0008C9381E02C960FB6F894DEBF0FBECDBF6C
:101BF000DF91CF911F910F91FF90EF90DF90CF90E9
:101C0000BF90AF909F908F907F906F905F904F901C
:101C10003F9008952F923F924F925F926F927F92E2
:101C20008F929F92AF92BF92CF92DF92EF92FF92EC
:101C30000F931F93CF93DF93EC016B014A018D81CA
:101C4000811103C08FEF9FEFD4C08C8180FFFACF4A
:101C50004B885C886D887E884A855B856C857D8530
:101C6000C401A0E0B0E093018201041B150B260B18
:101C7000370B081719072A073B0718F44201841A83
:101C8000950A54011E0126E0220E311CA114B10454
:101C900009F47DC04A855B856C857D852A0181E0DC
:101CA0005822ED818A019B0189E036952795179589
:101CB00007958A95D1F78B8D9C8DE23061F4FC01FC
:101CC000828D938DA48DB58DBC01CD01600F711FE8
:101CD000821F931F3EC0FC0174807A9470224114CD
:101CE0005104C1F4711016C0452B462B472B49F403
:101CF0008F89988DA98DBA8D8E839F83A887B98788
:101D000009C04E815F8168857985910103DD882353
:101D100009F498CFEB8DFC8D8E819F81A885B985C4
:101D20000297A109B109058404C0880F991FAA1F51
:101D3000BB1F0A94D2F74685578560897189840F45
:101D4000951FA61FB71FBC01CD01670D711D811D19
:101D5000911D20E032E02419350935012A153B0593
:101D600008F439012C8126FD04C06114F2E07F06DD
:101D700081F4009104021091050220910602309135
:101D800007026017710782079307A9F402C0C40114
:101D900030C040E0D9DB882309F454CFF201EC5F76
:101DA000FB4FD601CF01860D971DE817F90781F08B
:101DB00021912D93FACF760183019201AB01BC01F1
:101DC00080910406909105069CDA882309F43ACFA5
:101DD000C60CD71C8A859B85AC85BD85860D971D55
:101DE000A11DB11D8A879B87AC87BD87A618B70840
:101DF0004DCFDF91CF911F910F91FF90EF90DF902A
:101E0000CF90BF90AF909F908F907F906F905F909A
:101E10004F903F902F900895CF93DF93EC018D81E9
:101E2000882391F18C8187FF2CC06E857F858889FE
:101E3000998941E089DB882339F1EA8980E2E89FCA
:101E4000F0011124DF01AC5FBB4F1097E9F08D81E9
:101E5000823050F44B895C896D897E895C964D9304
:101E60005D936D937C935F978F89988DA98DBA8DC3
:101E7000EC5FFB4F938F828FB58BA48B8C818F7718
:101E80008C83DF91CF9127CB80E0DF91CF910895B4
:101E9000CF93DF93EC01C0DF882311F01D8281E036
:101EA000DF91CF9108952F923F924F925F926F9260
:101EB0007F928F929F92AF92BF92CF92DF92EF92DA
:101EC000FF920F931F93CF93DF9300D01F92CDB754
:101ED000DEB78C015B011A01DC0115968C91159718
:101EE0008130C1F414968C9181FF14C082FF1AC016
:101EF000F801438954896589768982859385A4850B
:101F0000B58584179507A607B70761F0C801EDDC12
:101F1000811108C081E090E0F8019383828380E022
:101F200090E033C1610182C0D8015B968D919C9194
:101F30005C97FC01248121502A013B0139E0769411
:101F40006794579447943A95D1F7722E74207A018A
:101F5000F1E0FF22772009F475C080E092E08E194D
:101F60009F0946018C159D0508F44C01D8015B962C
:101F70002D913C915C9716968D919D910D90BC9101
:101F8000A02D0297A109B109F901058404C0880FA9
:101F9000991FAA1FBB1F0A94D2F7468557856089EF
:101FA0007189840F951FA61FB71F9C01AD01270DD6
:101FB000311D411D511D29013A01811432E0930662
:101FC00009F085C08091040290910502A09106025B
:101FD000B091070284159505A605B70559F48FEF52
:101FE0009FEFDC018093040290930502A093060208
:101FF000B09307029501B301A2018091040690916C
:1020000005060ADA882309F485CF9EEFB91AC818A5
:10201000D908F80182859385A485B585880D991D19
:10202000A11DB11D82879387A487B587D8011A9611
:102030004D915D916D917C911D97C114D10409F072
:1020400073CF83C0E114F10409F087CF16964D9148
:102050005D916D917C91199741155105610571054F
:1020600059F457968D919D910D90BC91A02D00979C
:10207000A105B10531F520C09E012F5F3F4F4ADB1E
:10208000882309F44DCF89819A81AB81BC81F80105
:10209000238D348DF9012789203129F048EF5FEF36
:1020A0006FEF7FE004C048EF5FEF60E070E08417FF
:1020B0009507A607B70728F0C801ACDC81114DCF02
:1020C00029CFF80186839783A087B18746CFE11493
:1020D000F10421F5D8011A964D915D916D917C9195
:1020E0001D9753968D919D910D90BC91A02D4817F1
:1020F00059076A077B0790F0EED9882309F40ACFC5
:102100004092040250920502609206027092070209
:102110008091030481608093030407C041E0C30100
:10212000B20112DA882309F4F5CED501F701EC5F8C
:10213000FB4FCF01880D991DE817F90719F02D9174
:102140002193FACFA80CB91C62CF53968D919D9123
:102150000D90BC91A02D84179507A607B70740F4F2
:10216000F801438B548B658B768B848180688483E4
:10217000D80114968C9183FD02C0C10106C0C8012C
:102180004BDE882309F4C6CEF8CF0F900F900F9046
:102190000F90DF91CF911F910F91FF90EF90DF9003
:1021A000CF90BF90AF909F908F907F906F905F90F7
:1021B0004F903F902F900895CF93DF931F92CDB70C
:1021C000DEB7698341E050E0BE016F5F7F4F6BDE99
:1021D0000F90DF91CF910895FC01DB0112968D9154
:1021E0009C9113979383828389E392E09183808308
:1021F00014968C911497848315968C9115978583EA
:1022000016964D915D916D917C91199746835783F8
:10221000608771871A964D915D916D917C911D97A4
:1022200042875387648775871E964D915D916D91A6
:102230007C91519746875787608B718B52968C9112
:102240005297828B53964D915D916D917C915697EB
:10225000438B548B658B768B57964D915D916D9129
:102260007C915A97478B508F618F728F5B968D91BF
:102270009C915C97948F838F08950F931F93CF93B6
:10228000DF9300D01F92CDB7DEB78C010E944E05C0
:102290008983C8010E944E058A83C8010E944E05A9
:1022A0008B83C8010E944E058C8369817A818B8162
:1022B0009C810F900F900F900F90DF91CF911F9105
:1022C0000F9108950F931F93CF93DF931F921F9247
:1022D000CDB7DEB78C010E944E058983C8010E94EC
:1022E0004E058A8389819A810F900F90DF91CF915B
:1022F0001F910F910895CF93DF93EC016A8B80912A
:10230000040290910502A0910602B09107028E8707
:102310009F87A88BB98B80E2689FF0011124EC5F46
:10232000FB4F4489558960E070E0BA015527442786
:102330004F8B588F698F7A8F828D938DA0E0B0E09C
:10234000482B592B6A2B7B2B4F8B588F698F7A8F99
:102350008385887151F4848D958DA68DB78D8B8B77
:102360009C8BAD8BBE8B81E00DC0803111F080E085
:1023700014C09E012D5E3F4F8B8D9C8D4EDA8823BD
:10238000B1F384E08D8381E08C831E821F821886E6
:1023900019861A861B861C861D86DF91CF910895AB
:1023A000AF92BF92CF92DF92EF92FF920F931F9363
:1023B000CF93DF93CDB7DEB72B970FB6F894DEBF80
:1023C0000FBECDBF7C01CE0101966C01FC0190E2F5
:1023D0008BE08C0D91938E13FDCFDA0120E037E076
:1023E0009D91992339F19E3219F0E2E2F1E00AC0A1
:1023F0003A3009F4A9C028E03AE0F2CF31968917C3
:1024000009F4A2C084918111F9CF321708F49CC05D
:102410008FED890F8E3508F097C081E0820FF601AD
:10242000E20FF11D2FE9290F2A3108F49052908311
:10243000282FD6CF8981803209F486C08B01FB0119
:10244000838D948DF701948F838FFB011682178201
:10245000108611861286138614861586A12CF80123
:1024600082859385A485B585438954896589768954
:1024700084179507A607B70708F066C025E0B6954C
:10248000A795979587952A95D1F7F82FFF70BF2EBE
:10249000F8018581823008F457C0C8010E943705D1
:1024A00097FD52C0F80182859385A485B5854F9626
:1024B000A11DB11D82879387A487B587F0E2BF9ED7
:1024C000C0011124BC016C5F7B4F61157105E1F106
:1024D000FB0120812223B1F1253ED9F04BE050E0F1
:1024E000C6010E94C726892B09F0B9CF6B2DC70101
:1024F0002B960FB6F894DEBF0FBECDBFDF91CF9104
:102500001F910F91FF90EF90DF90CF90BF90AF9011
:10251000F2CEA11014C0F701B28A4091040250918A
:102520000502609106027091070246875787608B0B
:10253000718BFC01EC5FFB4F8081882329F0AA247A
:10254000A3948DCFAA2039F380E02B960FB6F89490
:10255000DEBF0FBECDBFDF91CF911F910F91FF90D6
:10256000EF90DF90CF90BF90AF9008950F931F939F
:10257000CF93DF93CDB7DEB728970FB6F894DEBFC1
:102580000FBECDBF2F8338874D835E836B837C83E3
:1025900089839A830E94CF1D89819A812F813885F2
:1025A0004D815E816B817C818034E1E09E0714F473
:1025B0000E94561D28960FB6F894DEBF0FBECDBF01
:1025C000DF91CF911F910F910C94721C009761F0D5
:1025D000FC0101900020E9F73197AF01481B590B2E
:1025E000BC0188E296E0F5C380E090E00895CF93C7
:1025F000DF93ECDFEC0185EB92E0E8DF8C0F9D1FB1
:10260000DF91CF910895CF93282F8091250787FFE1
:1026100009C09EBD0DB407FEFDCF2EBD0DB407FE53
:10262000FDCF08C0892FC22F0E94811C8C2FCF9113
:102630000C94811CCF9108952F923F924F925F92FC
:102640006F927F928F929F92AF92BF92CF92DF92C2
:10265000EF92FF920F931F93CF93DF93CDB7DEB727
:10266000C656D1090FB6F894DEBF0FBECDBF6C01C0
:102670005B014E018EE1880E911C61EF76E0C40192
:10268000ABDD1C821B8289E392E09A8389831E82E0
:1026900035018E010F5F1F4F240118016FE270E0BA
:1026A000C3010E94DF26009709F43EC0F301208198
:1026B0002F3221F4FFEF6F1A7F0AF0CF86198D3089
:1026C00008F08CE0E82EF12CA701B301CE01885A66
:1026D0009F4F0E94F126E8E5F0E0EC0FFD1FEE0DA4
:1026E000FF1D1082C801D4DBF8018581882351F0D9
:1026F0001EAE1DAE89E392E09CAF8BAF21961FAE5C
:1027000021971DC0AE01485A5F4FB201C80148DE93
:10271000882371F36E0C7F1CC201BADB942D852DCA
:102720002801092F182FBACFC3018A199B09A79630
:102730009FAF8EAFA797B201CE01CB964DDDA79686
:10274000EEADFFADA797AE0EBF1EF50180818111E2
:1027500008C0BE01655C7F4FC1013EDD47E652E027
:1027600038C019A218A289E392E09F8F8E8F1BA216
:1027700021968FAD2197811113C0F6011382128229
:1027800088EE93E0A0E0B0E084839583A683B783CE
:1027900087E192E091838083128E118E14861DC092
:1027A0008250A501823038F461EF76E0C401F8DD93
:1027B00081110BC0E2CFBE01655C7F4FC401F0DD2B
:1027C0008823D9F2CE01CB9663DBB401C10104DDCD
:1027D000A501B101C6010E940205C601CA59DF4F19
:1027E0000FB6F894DEBF0FBECDBFDF91CF911F9122
:1027F0000F91FF90EF90DF90CF90BF90AF909F90A0
:102800008F907F906F905F904F903F902F900895A2
:102810002F923F924F925F926F927F928F929F92F0
:10282000AF92BF92CF92DF92EF92FF920F931F93DE
:10283000CF93DF93CDB7DEB7CF54D1090FB6F8945D
:10284000DEBF0FBECDBF1B018A011F8E1E8E48EE5C
:1028500053E060E070E048A359A36AA37BA327E19B
:1028600032E03D8F2C8F1EAA1DAA18A620E4221646
:1028700021E032060CF0EEC1003F11050CF0EAC178
:10288000BC01CE010196D8DE8B819C819F8F8E8FFB
:102890008D819E81AF81B88588A399A3AAA3BBA38C
:1028A00089859A85AB85BC858CA39DA3AEA3BFA368
:1028B0008DE0FE013D96DE01989601900D928A957D
:1028C000E1F7EA8DFB8DFEABEDAB309719F085811A
:1028D000811104C08EEC92E08ADEBCC1CE014C9620
:1028E000F1DC82349D4409F0B1C1CE014C96C5DCC7
:1028F000CE014C96C2DCCE014C96BFDC4B015C0194
:10290000CE014C96BADCCE014C96B7DC6B017C0153
:10291000CE014C96B2DC2B013C01CE014C96D2DCB0
:10292000019709F093C1CE014C96CCDC883109F0B7
:102930008DC1CE014C96A1DC21966CAF7DAF8EAFE0
:102940009FAF2197672B682B692B09F07FC1DCAE05
:10295000CBAE58AE4FAAC60101969C01220F331F81
:10296000820F931FBC016C7F23967FAF6EAF2397BE
:10297000CB01092E000CAA0BBB0B27968CAF9DAF89
:10298000AEAFBFAF279757FE5CC144275527441908
:10299000550958AF4FAB28961FAE2897C20CD31CD1
:1029A00096012150310937FD42C14FA858AC400E65
:1029B000511EC201019797FD3AC137FE09C0662436
:1029C000772462187308DCAECBAE212C312C02C008
:1029D000612C712C17FF07C0EE24FF24E01AF10AC6
:1029E00000E010E004C04FA858ACE12CF12C2034DA
:1029F00031403CF020E431E0B901621973097CAF49
:102A00006BAF803F91052CF080EF90E02C01401AD5
:102A1000510A0E94CF1D92014BAD5CADB801C101BE
:102A2000B9D7C301880F991F680E791EC301770CAF
:102A3000AA0BBB0B2C968CAF9DAFAEAFBFAF2C9744
:102A40002FA938AD21503109A901330F660B770B3F
:102A5000C7010F2C000CAA0BBB0B9A01AB01281B62
:102A6000390B4A0B5B0B27966CAD7DAD8EAD9FADE0
:102A700027970E9473259B01AC01280D391D4A1D23
:102A80005B1D2FAB38AF49AF5AAF97012396AEAD60
:102A9000BFAD23970E948A25860E971EA81EB91ED9
:102AA000C12CD12C7601612C712C2FE0641475049B
:102AB0000CF0BCC028963FAD2897332379F02196BF
:102AC0004CAD5DAD6EAD7FAD21978FA998ADA9AD31
:102AD000BAAD480F591F6A1F7B1F06C0B701A60178
:102AE000480D591D6A1D7B1D2C968CAD9DADAEAD5C
:102AF000BFAD2C97480F591F6A1F7B1FEDA9FEA978
:102B0000309729F082859385A485B58503C08FEF22
:102B10009FEFDC0184179507A607B70711F12D96E3
:102B20004FAF2D972E965FAF2E972F966FAF2F97A3
:102B300060967FAF6097D6D68DA99EA92D964FAD92
:102B40002D972E965FAD2E972F966FAD2F9760968F
:102B50007FAD6097009711F00E94750C0E94CF1D09
:102B60002FE000E010E04BAD5CAD041715070CF052
:102B70003FC02F3070F0B6D68DA99EA9009731F0D6
:102B80004FE050E0BE016F5F7F4F44D80E94CF1DE1
:102B900020E0E1E0F0E0EC0FFD1FE20FF11D3081DD
:102BA00081E0820FE1E0F0E0EC0FFD1FE80FF11D86
:102BB000808192E0920FE1E0F0E0EC0FFD1FE90F61
:102BC000F11D2D5F4081487F8C7FA8E08A9FC00166
:102BD0001124942B369536953695832B2D962FAF51
:102BE0002D9711DD0F5F1F4F2D962FAD2D97BBCF6A
:102BF0005FEF651A750A21968CAD9DADAEADBFAD88
:102C0000219727964CAD5DAD6EAD7FAD2797841BA8
:102C1000950BA60BB70B21968CAF9DAFAEAFBFAF98
:102C20002197C40ED51EE61EF71E40CF5BD68DA998
:102C30009EA9009779F02CD98DA99EA90E942B26D8
:102C400009C0B1E02896BFAF2897A8CE8DED92E0DD
:102C5000CEDCEDCFC15BDF4F0FB6F894DEBF0FBE09
:102C6000CDBFDF91CF911F910F91FF90EF90DF903B
:102C7000CF90BF90AF909F908F907F906F905F901C
:102C80004F903F902F900895413049F0423071F4B9
:102C9000462F50E0682F70E089EF92E006C0462F83
:102CA00050E0682F70E08BEE92E0B2CD0C945E079E
:102CB000EF92FF920F931F93CF93DF93F0905408FE
:102CC0009FEFF91208C0DF91CF911F910F91FF90F4
:102CD000EF900C94E406E090520807E010E0C82F53
:102CE000D0E0BE01002E02C0759567950A94E2F708
:102CF000617077278E2D86D461E08F2D83D460E0BC
:102D00008F2D80D40150110960F7DF91CF911F9171
:102D10000F91FF90EF900895382F20910204909129
:102D20000104213208F049C08091DE038111FCCFFB
:102D300042E04093DE033093DD033FEF3093DC034A
:102D40001092DB032093DA03A1EEB3E04AEB53E0E9
:102D5000FA013E2F341B321718F43D913193F9CF0D
:102D60001092B9032091B903990F922B9093B90354
:102D70009091B803913061F41092B8039091B90327
:102D80009093BB009091BC0093FDF8CF95EC01C0EF
:102D900095EE9093BC009091DE039230E1F3909118
:102DA000DC039F3F79F08091DC03803241F0809119
:102DB000DC03803331F084E005C081E003C082E0B1
:102DC00001C083E01092E003109202041092DF032E
:102DD0000895CF92DF92EF92FF920F931F93CF93BC
:102DE000DF936C017A018B01C0E0D0E0CE15DF05E6
:102DF00089F0D8016D918D01D601ED91FC91019082
:102E0000F081E02DC6011995892B11F47E0102C0D5
:102E10002196ECCFC701DF91CF911F910F91FF90C9
:102E2000EF90DF90CF900895FC01918D828D9817DF
:102E300061F0828DDF01A80FB11D5D968C91928D9E
:102E40009F5F9F73928F90E008958FEF9FEF08959B
:102E5000FC01918D828D981731F0828DE80FF11D64
:102E6000858D90E008958FEF9FEF0895FC01918D7F
:102E7000228D892F90E0805C9F4F821B91098F7378
:102E800099270895FC01848DDF01A80FB11DA35A75
:102E9000BF4F2C91848D90E001968F739927848F7A
:102EA000A689B7892C93A089B1898C9180648C9371
:102EB000938D848D981306C00288F389E02D80815C
:102EC0008F7D80830895EF92FF920F931F93CF938E
:102ED000DF93EC0181E0888F9B8D8C8D981305C06A
:102EE000E889F989808185FD23C0F62E0B8D10E0DD
:102EF0000F5F1F4F0F731127E02E8C8DE8120BC050
:102F00000FB607FCFACFE889F989808185FFF5CFF4
:102F1000CE01B8DFF2CF8B8DFE01E80FF11DE35A31
:102F2000FF4FF0820B8FEA89FB898081806207C0A6
:102F3000EE89FF896083E889F989808180648083D4
:102F400081E090E0DF91CF911F910F91FF90EF9082
:102F50000895CF93DF93EC01888D8823C1F0EA892F
:102F6000FB89808185FD05C0A889B9898C9186FD82
:102F70000EC00FB607FCF5CF808185FFF2CFA88980
:102F8000B9898C9185FFEDCFCE017CDFE8CFDF9151
:102F9000CF9108950E94C3268F929F92AF92BF92C5
:102FA0000F931F93CF93DF93CDB7DEB7A1970FB6E3
:102FB000F894DEBF0FBECDBF19A2423008F44AE03C
:102FC0008E010F5D1F4F842E912CA12CB12CA501D9
:102FD00094010E944225E62FB901CA01015011094E
:102FE000EA3014F4E05D01C0E95CD801EC93232BD6
:102FF000242B252B61F7C801E9DAA1960FB6F894C6
:10300000DEBF0FBECDBFDF91CF911F910F91BF905B
:10301000AF909F908F900895CF92DF92EF92FF92A2
:10302000CF93DF936B017C01E0912806F091290694
:103030000190F081E02D6DE288E296E01995EC01B7
:1030400066277727CB016C197D098E099F094AE015
:10305000A3DF8C0F9D1FDF91CF91FF90EF90DF904A
:10306000CF900895AF92BF92CF92DF92EF92FF92EE
:103070000F931F93CF93DF93C22ED12CE42EF12C0C
:10308000C62FD0E0A82EB12C0AEC13EB9601A701B5
:10309000BE01C5016BDA96012A503109A7014A50D9
:1030A0005109BE016B5F7F4F01E41EEFC50105961C
:1030B0005DDADF91CF911F910F91FF90EF90DF903C
:1030C000CF90BF90AF9008952F923F924F925F9212
:1030D0006F927F928F929F92AF92BF92CF92DF9228
:1030E000EF92FF920F931F93CF93DF93CDB7DEB78D
:1030F000A7970FB6F894DEBF0FBECDBF9AA389A3E2
:103100005B015CA34BA31C8E9E012F5F3F4F1901F7
:10311000CB0108969EA38DA395E0920F9FA33C8DB3
:10312000C32ED12CEBA1FCA1EC0DFD1D80808820CD
:1031300009F4B2C090900A0268E073E0C1017CDA41
:10314000EA8CFB8CE114F10421F0F70185818111F7
:1031500004C08EEC92E04BDA9BC0F5E08F9EA0019C
:103160001124052E000C660B770BC7010E94750C0D
:1031700045E050E0B101C7010E940A0EC7010E945C
:10318000480FC7010E942B2626E0929EC001112401
:103190008C9D70018D9DF00C9C9DF00C112489A1DB
:1031A0009AA1E80EF91E90E4E91691E0F9060CF0F8
:1031B0006FC0E0EFAE16B1040CF06AC0F0910A02E5
:1031C000FF8F8F2E912CC70126E0F29F800D911D5D
:1031D0001124181619060CF05BC0C40123E0880FF7
:1031E000991F2A95E1F78A0D9B1D181619060CF0F8
:1031F0004FC0D5D437013E8E2D8EED8DFE8D2191A1
:10320000FE8FED8F28A32501650138A130FF29C06D
:1032100000910802109109028F8D8130C1F490E471
:10322000E91691E0F906E8F4D7FC1BC080910B0287
:1032300090910C02C816D906A0F421E030E041E0DC
:1032400050E0B601C701A6D3C801DDD90AC0E0E449
:103250006E16E1E07E062CF49401A401B201C301D4
:1032600025D4F8A1F695F8A32FEFC21AD20A480C7C
:10327000591C8DA19EA1C816D90639F69FEFE91AEF
:10328000F90A680C791CEFA1FD8DEF13B6CF2AD394
:103290002C8D2F5F2C8F43CFA7960FB6F894DEBFEF
:1032A0000FBECDBFDF91CF911F910F91FF90EF9097
:1032B000DF90CF90BF90AF909F908F907F906F9056
:1032C0005F904F903F902F9008950F931F938C0124
:1032D00020EF30E040E451E060E070E080E090E01A
:1032E00045D91F910F9108958F929F92AF92BF92EF
:1032F000CF92DF92EF92FF92CF93DF93C82F87ECAC
:1033000096E09093050680930406CC2369F1C530BE
:1033100010F080E00DC140E060E070E0CB010E9461
:10332000A40A8823B1F320E1C29FC00111248C506C
:103330009C4FFC01E254FE4F20812F7751F73C96C1
:103340004081518162817381443651056105710567
:1033500000F33497C080D180E280F380C114D1049F
:10336000E104F10421F4D5CFC12CD12C760140E049
:10337000C701B6010E94A40A882359F280910F0464
:10338000909110048115924021F6A0911404AA2373
:1033900009F4BFCF60911204709113046115710597
:1033A00009F4B7CF20911104222309F4B2CFA093DE
:1033B000E5062093D70680E030E0E1E0F0E0C82F9A
:1033C000AF01082E02C0440F551F0A94E2F72417DC
:1033D000350741F0982F8F5F983089F789E0809307
:1033E000E00697CF8093E00620911A0430911B04E9
:1033F0002115310519F040E050E008C02091280463
:103400003091290440912A0450912B042093D8062E
:103410003093D9064093DA065093DB0646015701F4
:10342000860E971EA11CB11C8092E6069092E706BC
:10343000A092E806B092E906E0911504F091160416
:10344000F093EC06E093EB06B0E00E943825860E80
:10345000971EA81EB91E8092ED069092EE06A092CD
:10346000EF06B092F00685E0EE0FFF1F8A95E1F7B8
:10347000E150FE4FEF2FFF27E6958E0E9F1EA11CF9
:10348000B11C8092E1069092E206A092E306B0920F
:10349000E40620911704309118042115310521F01C
:1034A000A90160E070E008C0409124045091250417
:1034B0006091260470912704D701C60188199909E3
:1034C000AA09BB09840F951FA61FB71F04C0B69594
:1034D000A79597958795CA95D2F78093DC06909328
:1034E000DD06A093DE06B093DF06853F2FE092074E
:1034F000A105B10510F48CE018C0853F9F4FA105D0
:10350000B10510F480E111C0809130049091310434
:10351000A0913204B09133048093ED069093EE06AF
:10352000A093EF06B093F00680E28093EA0681E074
:10353000DF91CF91FF90EF90DF90CF90BF90AF9051
:103540009F908F9008951F920F920FB60F921124A3
:103550000BB60F922F933F934F935F936F937F938D
:103560008F939F93AF93BF93EF93FF9388E296E07F
:1035700089DCFF91EF91BF91AF919F918F917F91E6
:103580006F915F914F913F912F910F900BBE0F90D4
:103590000FBE0F901F9018951F920F920FB60F92AB
:1035A00011240BB60F922F938F939F93EF93FF935A
:1035B000E0913806F09139068081E0913E06F09165
:1035C0003F0682FD12C09081809141068F5F8F730C
:1035D00020914206821751F0E0914106F0E0E85D4B
:1035E000F94F958F8093410601C08081FF91EF9143
:1035F0009F918F912F910F900BBE0F900FBE0F9048
:103600001F9018951F93CF93DF93282F30E0F90177
:10361000E45BFE4F8491F901EE56FE4FD491F9011F
:10362000EE50FE4FC491CC23C9F0162F81110E9499
:10363000B207EC2FF0E0EE0FFF1FE852FE4FA5910E
:10364000B4918FB7F894111105C09C91ED2FE095BE
:10365000E92302C0EC91ED2BEC938FBFDF91CF916A
:103660001F910895CF93DF93D82FC62F80915108D3
:103670008F3FC9F48091550891E09093DF038093C8
:1036800001041092E003109202046D2F80E197E094
:103690000E94AD036C2F80E197E00E94AD0381E0B2
:1036A000DF91CF9139CB809154088F3F31F48091D5
:1036B0001C0790911D070E94EB0660E08091510865
:1036C000A1DF8D2FF5DA8C2FF3DA61E080915108BC
:1036D00099DF809154088F3F21F4DF91CF910C94B2
:1036E000E306DF91CF9108958F929F92AF92BF92A0
:1036F000CF92DF92EF92FF920F931F93CF93DF93BE
:10370000C82F809151088F3F09F06BC080915508F8
:10371000D1E0D093DF03809301041092E003109274
:1037200002046C2F80E197E00E94AD0381E0F4DA9F
:1037300080915508D093DF03809301041092E00339
:10374000109202049091DE039111FCCF91E09093CE
:10375000DE039093DD032FEF2093DC031092DB0355
:103760001092DA039093B9039091B903880F892BD3
:103770008093B9038091B803813061F41092B8034B
:103780008091B9038093BB008091BC0083FDF8CF8A
:1037900085EC01C085EE8093BC008091DE03813012
:1037A000E1F38091DB03811103C08091DB0301C051
:1037B00081E0AAEBB3E028E036E0F9019E2F921BEE
:1037C000981718F49D919193F9CF10920706809362
:1037D000060680E197E00E946203B82E81E09CDA41
:1037E00063C0809154088F3F31F480911C07909101
:1037F0001D070E94EB0660E08091510803DF8C2FCB
:10380000806856DA80E054DAA09054088FEFA8124E
:1038100005C080E00E94E406B82E3CC0C091530869
:1038200007E010E0B12CD0E0FE01E45BFE4F7F0129
:10383000CE018E569E4F6C01CE50DE4F61E08A2D38
:10384000E1DEF7018491F6018490FE0194909920C5
:1038500099F081110E94B207292D30E0220F331F09
:103860002E5C3E4FF901A591B4918C91882231E0F4
:1038700009F430E0832F02C080E090E0002E01C008
:10388000880F0A94EAF7B82A60E08A2DBBDE01505F
:103890001109A0F661E080915108B4DE80915408CE
:1038A0008F3F11F40E94E3068B2DDF91CF911F9182
:1038B0000F91FF90EF90DF90CF90BF90AF909F90CF
:1038C0008F900895CF93DF9380E00EDFC82FD0E074
:1038D000DC2FCC2781E008DF9E01282BC901DF9176
:1038E000CF910895E0913007F09131079081809158
:1038F0003507892B80838091250787FD0C94E3068B
:1039000008959091250797FF05C08EBD0DB407FE61
:10391000FDCF089528E030E040E8E0912807F091DD
:10392000290790913207542F582319F05081952B75
:1039300003C05081909595239083E0912C07F091DE
:103940002D07508190913407909595239083E091B5
:103950002C07F0912D07508190913407952B90837F
:10396000469521503109C9F60895CF93DF93CEE1F2
:10397000D7E0E889F9892081988D909592239083EA
:10398000C0DFE889F9899081888D892B8083DF9158
:10399000CF9108958F929F92AF92BF92CF92DF9274
:1039A000EF92FF920F931F9369018A010150110951
:1039B000080F191F20E030E04C01A12CB12C54015C
:1039C00099248824802A912AA22AB32A81E0C81A3D
:1039D000D108C60ED71EC601A0E0B0E06B01E12CF5
:1039E000F12C7601DD24CC24C82AD92AEA2AFB2A24
:1039F0008AE2BBDF209125078B2D9927AA27BB27B9
:103A000027FF18C08EBD0DB407FEFDCFC501AA2744
:103A1000BB278EBD0DB407FEFDCFBB27AB2D9A2D66
:103A2000892D8EBD0DB407FEFDCF8EBC0DB407FEF3
:103A3000FDCF07C066DF8A2D64DF892D62DF882D08
:103A400060DF8BE292DF209125078F2D9927AA272F
:103A5000BB2727FF18C08EBD0DB407FEFDCFC701E1
:103A6000AA27BB278EBD0DB407FEFDCFBB27AF2D08
:103A70009E2D8D2D8EBD0DB407FEFDCFCEBC0DB499
:103A800007FEFDCF07C03DDF8E2D3BDF8D2D39DFDB
:103A90008C2D37DF8CE21F910F91FF90EF90DF901C
:103AA000CF90BF90AF909F908F905FCFAF92BF921B
:103AB000CF92DF92EF92FF920F931F93CF93DF93FA
:103AC0007C01FB01690120910B0230910C0262170D
:103AD000730708F059C0EC01C40FD51FBE01615037
:103AE0007109DF01AC0DBD1DCD01019777FD4CC003
:103AF00097FD4AC0F7FE03C0AE01E12CF12CF7FFA1
:103B000003C06D01E0E0F0E06034714024F040E477
:103B100051E04E195F098217930718F06901CE1A18
:103B2000DF0A9A01D601F6D75B01D82FC92F96017B
:103B3000BF01C7012FDF6501ED2EFC2E8091250707
:103B400087FF13C0C114D104E104F104E9F01EBDE4
:103B50000DB407FEFDCF0EBD0DB407FEFDCF81E015
:103B6000C81AD108E108F108EDCFC114D104E1046D
:103B7000F10451F0812FC5DE802FC3DEA1E0CA1A07
:103B8000D108E108F108F1CFDF91CF911F910F919A
:103B9000FF90EF90DF90CF90BF90AF9008950F937C
:103BA0001F938091250787FF22C000911E07109167
:103BB0001F07209120073091210790E040E052E15B
:103BC0006AE770E0041715072607370740F4769573
:103BD0006795579547959F5F9630A1F797E081E0ED
:103BE0009827892F806A869591700E94EB06E09154
:103BF0003007F091310790818091350780958923B6
:103C000080831F910F910895789484B5826084BD5C
:103C100084B5816084BD85B5826085BD85B58160D0
:103C200085BD80916E00816080936E00109281004E
:103C30008091810082608093810080918100816009
:103C400080938100809180008160809380008091CA
:103C5000B10084608093B1008091B0008160809356
:103C6000B0008091910082608093910080919100DA
:103C7000816080939100809190008160809390009A
:103C80008091A10082608093A1008091A100816059
:103C90008093A1008091A00081608093A00080911A
:103CA00021018260809321018091210181608093B4
:103CB00021018091200181608093200180917A0010
:103CC000846080937A0080917A00826080937A0089
:103CD00080917A00816080937A0080917A00806878
:103CE00080937A001092C100E0913806F091390675
:103CF00082E08083E0913406F09135061082E091F5
:103D00003606F091370680E1808310924006E091FC
:103D10003C06F0913D0686E08083E0913A06F09102
:103D20003B06808180618083E0913A06F0913B06FA
:103D3000808188608083E0913A06F0913B06808123
:103D400080688083E0913A06F0913B0680818F7D08
:103D5000808383E892E00E94F7121092D2061092BC
:103D6000D0061092CD061092CC0684E08093CB064C
:103D70000E947C088B0161E08091CB060E940808BC
:103D800061E08091CB063EDC0E947F0582E5809356
:103D9000C5061092C6068091C5069091C6060E947F
:103DA000EB06CAE08FEF0E94E406C150D9F70E94EB
:103DB000E30687EC96E00E94D20820E030E0A901FB
:103DC00060E087EC96E00E942609D82F8093D10608
:103DD000813049F00E947C08601B710B613D774087
:103DE00060F381E054C02AEA31E040E050E068E04E
:103DF00087EC96E00E94260982FF03C0D093D2068A
:103E00000EC0D4E00E94F4088093D106D150D1F7BF
:103E10008A3A11F082E03BC082E08093D206809122
:103E2000D206823021F0C12CD12C760105C0C12CE4
:103E3000D12CE12C30E4F32E20E030E0A90167E33F
:103E400087EC96E00E942609A701960169E287ECBB
:103E500096E00E9426098093D106882349F00E94AB
:103E60007C08601B710B613D774030F388E00FC028
:103E70008091D206823001F520E030E0A9016AE3AA
:103E800087EC96E00E942609882341F086E0809323
:103E9000CC0687EC96E00E94E7088FC00E94F408E9
:103EA000807C803C19F483E08093D2060E94F40861
:103EB0000E94F4080E94F40887EC96E00E94E7084C
:103EC00080E58093C5061092C60681E00DDA88234E
:103ED00029F08091F606882339F06FC080E004DA7B
:103EE000882309F46AC0F5CF8091EA06803109F58C
:103EF00082E08093F606109208071092090710924C
:103F00000A0710920B078091EB069091EC06A0E057
:103F1000B0E025E0880F991FAA1FBB1F2A95D1F793
:103F20008093040790930507A0930607B0930707B3
:103F30001EC0803209F041C083E08093F6064091B4
:103F4000ED065091EE066091EF067091F0064093F9
:103F500008075093090760930A0770930B0724E042
:103F600037E083ED96E00E940D0C882331F183ED5C
:103F700096E090930D0780930C0781E08093F506FF
:103F80001092F7061092F8061092F9061092FA06AF
:103F90001092FB061092FC061092FD061092FE068F
:103FA0001092FF061092000710920107109202076C
:103FB0001092030781E992E002C088E992E00E9432
:103FC000F71280E092E1AAE7B0E080931E07909399
:103FD0001F07A0932007B093210761E0809123077A
:103FE0000E94080860E0809123070CDB61E080916B
:103FF00022070E94080861E08091220703DB80917C
:10400000250787FD19C061E0809126070E940808F6
:1040100060E080912607F6DA61E0809125070E9432
:10402000080861E080912507EDDA8091270787FD78
:1040300003C060E00E9408088091250787FD0E9468
:104040007F058091240787FD21C061E00E94080858
:1040500061E080912407D6DA64E670E080E090E0C9
:104060000E94440860E080912407CCDA64E670E0A6
:1040700080E090E00E94440861E080912407C2DA69
:1040800068EC70E080E090E00E94440888DD8FEEEC
:104090006CDC83E036DC80E834DC82E032DC8FEC00
:1040A00064DC80E02EDC81EC2CDC80E32ADC8DEE0D
:1040B0005CDC84E626DC83E024DC82E122DC81E82F
:1040C00020DC88EE52DC85E81CDC80E01ADC88E726
:1040D00018DC8BEC4ADC89E314DC8CE212DC80E037
:1040E00010DC84E30EDC82E00CDC87EF3EDC80E257
:1040F00008DC8AEE3ADC80E004DC80E002DC80EC64
:1041000034DC83E2FEDB81EC30DC80E1FADB85EC41
:104110002CDC8EE3F6DB88E2F4DB87EC26DC86E839
:10412000F0DB86E322DC88E4ECDB87E31EDC8091B5
:10413000250787FF09C01EBC0DB407FEFDCF1EBCBE
:104140000DB407FEFDCF04C080E0DBDB80E0D9DBEF
:104150008AE30BDC85E5D5DB81EB07DC80E0D1DB96
:1041600088E1CFDB86EB01DC88E0CBDB82E8C9DBD2
:1041700087E2C7DB82EFF9DB80E0C3DB86E2F5DBB9
:1041800081E0BFDB80EEF1DB8FE0BBDB81E3B9DBFD
:104190008BE2B7DB8CE0B5DB8EE0B3DB88E0B1DB34
:1041A0008EE4AFDB81EFADDB87E3ABDB87E0A9DB40
:1041B00080E1A7DB83E0A5DB8EE0A3DB89E0A1DB68
:1041C00080E09FDB81EED1DB80E09BDB8EE099DB42
:1041D00084E197DB83E095DB81E193DB87E091DB92
:1041E00081E38FDB81EC8DDB88E48BDB88E089DB8E
:1041F0008FE087DB8CE085DB81E383DB86E381DB9B
:104200008FE07FDB81E1B1DB68E770E080E090E088
:104210000E94440889E2A9DB68E770E080E090E052
:104220000E9444085FDBD1E0D093020280EF90E06F
:10423000909301028093000280E491E090930C023D
:1042400080930B02ACDC86E390DB88E25ADB4ADB2E
:1042500080E090E03AD8909151089F3F51F18091D1
:10426000540861E08F3F99F4892F0E94080861E0AB
:1042700080915108C7D90E947F0581E580931C0772
:1042800010921D07109257081092560839C00E94CC
:10429000080861E0809151080E94080861E080915F
:1042A00052080E94080860E0809153080E940808A4
:1042B00027C010920706109206061092E003109293
:1042C00002041092DE03D093DD031092B80361E084
:1042D00084E198D961E085E195D98091B9008E7F1C
:1042E0008093B9008091B9008D7F8093B90088E4F4
:1042F0008093B80085E48093BC0081E480935508E6
:10430000E1DA8131984059F462E083E0ABD96AE0A8
:1043100070E080E090E00E944408D0E01AC08091F4
:1043200051088F3F09F441C0809154088F3F09F034
:104330003CC085E580931C0710921D0784E090E047
:104340009093570880935608BDDA8131984069F5FB
:10435000DBCF8D2FC9D9DF5FD134D9F760E084E09E
:1043600081D961E080E47ED961E08AE07BD960E6B2
:1043700080E278D962E081E275D964EA81E472D999
:1043800066E086E56FD961E08AE46CD961E08BE490
:1043900069D960E08BE466D961E088E563D96FEFA5
:1043A0008BE060D965E089E05DD910925B081092DE
:1043B0005A0810925D0810925C0810925F081092E3
:1043C0005E088BE897E02091AE073091AF072A5541
:1043D0003840B1F02AE538E03093AF072093AE07BC
:1043E00090935B0880935A081092AB071092AA072B
:1043F0001092AD071092AC0790935D0880935C0813
:1044000086E697E02091890730918A072A5538403F
:1044100049F12AE538E030938A07209389072091F3
:104420005A0830915B08232B49F490935B088093E2
:104430005A0810928607109285070AC0E0915C081E
:10444000F0915D08F0938607E093850792A381A31E
:10445000109288071092870786E697E090935D0890
:1044600080935C0881E497E02091640730916507B0
:104470002A55384049F12AE538E030936507209302
:10448000640720915A0830915B08232B49F49093DC
:104490005B0880935A0810926107109260070AC067
:1044A000E0915C08F0915D08F0936107E09360078C
:1044B00092A381A3109263071092620781E497E0B0
:1044C00090935D0880935C088BE897E00E945D0202
:1044D00086E697E00E945D0200EB17E0980142E05B
:1044E0005BE0500F80E090E0F901E80FF91F408396
:1044F0000B9683369105C1F72F5F3F4F5213F2CFD2
:1045000080E090E021E0FC01E055F84F248722A3F1
:1045100020AFE25BFF4F208302968A30910599F726
:104520001092B0071092BB071092B10710921208B8
:104530001092110810920708D0E041E060E08D2F42
:104540000E944416DC5ED430C1F7D4E141E06D2F07
:1045500080E00E94441641E06D2F80EF0E944416D7
:10456000DC5ED83C99F741E068EC8C2F0E94441641
:10457000CC5EC430C1F7D4E17801C4E1F7014081D9
:104580006C2F8D2F0E944416FBE0EF0EF11CCC5EC9
:10459000C83CA1F70F5F1F4FDC5ED03F69F78091E9
:1045A0005A0890915B0890935F0880935E08E091B1
:1045B0005E08F0915F08309791F3C1A1D2A180818C
:1045C00080FF6BC085859685A785B089892B8A2B4E
:1045D0008B2B69F4908180818E7F808380818D7F99
:1045E000808390FF5AC0CF010E946D0756C00E9481
:1045F0007C08E0915E08F0915F0881809280A38042
:10460000B480C184D284E384F48405811681278137
:104610003085DC01CB018C199D09AE09BF098017DB
:104620009107A207B307C8F185859685A785B0894C
:10463000181619061A061B065CF485859685A7854B
:10464000B0890197A109B10985879687A787B08BA3
:1046500085899689A789B08D0196A11DB11D858B8D
:10466000968BA78BB08F85819681A781B0850185B8
:10467000128523853485800F911FA21FB31F818768
:104680009287A387B48785829682A782B086018CA1
:10469000F28DE02D309709F01995D0935F08C09303
:1046A0005E0885CF81E497E00E94A70286E697E046
:1046B0000E94A7028BE897E00C94A702CF92DF92AA
:1046C000EF92FF92CF93DF93E8E2F6E0138212823B
:1046D00048EE53E060E070E044835583668377835F
:1046E00089E292E09183808385EC90E095878487CE
:1046F00084EC90E09787868780EC90E0918B808BAC
:1047000081EC90E0938B828B82EC90E0958B848B94
:1047100086EC90E0978B868B118E128E138E148E02
:10472000E5ECF6E080E580831182E7ECF6E01582A7
:1047300016821186138692E0C92ED12CE12CF12C21
:10474000C486D586E686F78613A215A614A629E3A5
:1047500032E033A722A717A6E0E1F7E01382128226
:10476000448355836683778321E432E03183208359
:10477000ECE1F7E080831182AEE1B7E08AE01496C5
:104780008C93149789E015968C9315978FEF169656
:104790008C93169717968C93179718968C93189757
:1047A00019968C9319971D921D921D921C92139726
:1047B000ECEFF1E0E491F0E0EE0FFF1FE852FE4F66
:1047C0002591349153963C932E935297ECE9F1E066
:1047D000E4915796EC935797EBEFF1E0E491F0E01A
:1047E000EE0FFF1FE852FE4F2591349151963C93F6
:1047F0002E935097EBE9F1E0E4915896EC9358979B
:104800001F961C921E921E9756961C9256971B96A8
:104810001C921E921A9754961C9254971D961C92A5
:104820001E921C9755961C92EAE5F8E011821082C0
:10483000138212821582148291E0909340072CE338
:1048400030E030933F0720933E072AEF30E030936B
:104850003D0720933C07E1E5F8E028E020838383CF
:104860008283818390933B0784E190E090933A07A1
:10487000809339079093380780933707E0EBF7E090
:1048800080EADF011D928A95E9F7CBE8D7E08881BD
:104890008E7F888388818D7F888319861A861B8600
:1048A0001C861D821E821F82188619821A821B8214
:1048B0001C8218A21F8E1AA219A21CA21BA21D8A5A
:1048C0001E8A1F8A188E8EE991E09A8F898F1C8E1E
:1048D0001B8E1E8E1D8E82E390E0A0E0B0E08983E7
:1048E0009A83AB83BC8389819A81AB81BC818D83A0
:1048F0009E83AF83B8870E947C0869877A878B87FD
:104900009C87CC24CA94DC2C7601CD86DE86EF868B
:10491000F88AC98ADA8AEB8AFC8AC6E6D7E08881F7
:104920008E7F888388818D7F888319861A861B866F
:104930001C861D821E821F82188619821A821B8283
:104940001C8218A21F8E1AA219A21CA21BA21D8AC9
:104950001E8A1F8A188E80E591E09A8F898F1C8E9F
:104960001B8E1E8E1D8E84EF91E0A0E0B0E0898347
:104970009A83AB83BC8389819A81AB81BC818D830F
:104980009E83AF83B8870E947C0869877A878B876C
:104990009C87CD86DE86EF86F88AC98ADA8AEB8A1A
:1049A000FC8AC1E4D7E088818E7F888388818D7FEF
:1049B000888319861A861B861C861D821E821F828A
:1049C000188619821A821B821C8218A21F8E1AA2B4
:1049D00019A21CA21BA21D8A1E8A1F8A188E8FEF85
:1049E00093E09A8F898F1C8E1B8E1E8E1D8E81E008
:1049F00090E0A0E0B0E089839A83AB83BC83898197
:104A00009A81AB81BC818D839E83AF83B8870E94DE
:104A10007C0869877A878B879C87CD86DE86EF86C0
:104A2000F88AC98ADA8AEB8AFC8ADF91CF91FF90F3
:104A3000EF90DF90CF900895052E97FB16F4009429
:104A40000FD057FD05D01ED007FC02D046F408C099
:104A500050954095309521953F4F4F4F5F4F0895AA
:104A600090958095709561957F4F8F4F9F4F0895DA
:104A70002BD0A59F900DB49F900DA49F800D911DEC
:104A800011240895A1E21A2EAA1BBB1BFD010DC023
:104A9000AA1FBB1FEE1FFF1FA217B307E407F507EE
:104AA00020F0A21BB30BE40BF50B661F771F881FCA
:104AB000991F1A9469F760957095809590959B0160
:104AC000AC01BD01CF010895A29FB001B39FC00109
:104AD000A39F700D811D1124911DB29F700D811D2A
:104AE0001124911D0895DB018F939F93C1DFBF9126
:104AF000AF91A29F800D911DA39F900DB29F900D2D
:104B000011240895EE0FFF1F881F8BBF0790F691A9
:104B1000E02D1994D9DF332312F48A1B9B0B01C0BB
:104B2000D3DFB7FF0895821B930B0895CF93DF93D4
:104B30008230910510F482E090E0E0916208F091FB
:104B4000630820E030E0C0E0D0E0309711F1408110
:104B5000518148175907C0F04817590761F48281FD
:104B60009381209719F09B838A832BC090936308CD
:104B70008093620826C02115310519F042175307AA
:104B800018F49A01BE01DF01EF010280F381E02DEC
:104B9000DCCF2115310509F1281B390B24303105F3
:104BA00090F412968D919C9113976115710521F0E7
:104BB000FB019383828304C090936308809362080F
:104BC000FD01329644C0FD01E20FF31F81939193E2
:104BD000225031092D933C933AC0209160083091C6
:104BE0006108232B41F420910F0230911002309381
:104BF00061082093600820910D0230910E0221156A
:104C0000310541F42DB73EB7409111025091120287
:104C1000241B350BE0916008F0916108E217F3075F
:104C2000A0F42E1B3F0B2817390778F0AC014E5F1C
:104C30005F4F2417350748F04E0F5F1F50936108F0
:104C4000409360088193919302C0E0E0F0E0CF01CF
:104C5000DF91CF9108950F931F93CF93DF93009728
:104C600009F48CC0FC013297138212820091620811
:104C7000109163080115110581F420813181820FA3
:104C8000931F20916008309161082817390779F542
:104C9000F0936108E093600871C0D80140E050E0F3
:104CA000AE17BF0750F412962D913C911397AD01AA
:104CB0002115310509F1D901F3CF9D01DA013383C3
:104CC000228360817181860F971F8217930769F491
:104CD000EC0128813981260F371F2E5F3F4F31832A
:104CE00020838A819B8193838283452B29F4F093CF
:104CF0006308E093620842C01396FC93EE93129708
:104D0000ED01499159919E01240F351FE217F307D8
:104D100071F480819181840F951F029611969C9366
:104D20008E938281938113969C938E931297E0E0E9
:104D3000F0E0D80112968D919C911397009719F08D
:104D4000F8018C01F6CF8D919C9198012E5F3F4F19
:104D5000820F931F2091600830916108281739074E
:104D600069F4309729F4109263081092620802C027
:104D7000138212821093610800936008DF91CF9133
:104D80001F910F91089581E090E0F89402C3FB0118
:104D9000DC0104C08D910190801921F441505040F4
:104DA000C8F7881B990B0895FB01DC010D900020CA
:104DB000E9F7119701900D920020E1F70895FC01A9
:104DC0008191861721F08823D9F799270895319783
:104DD000CF010895FB01DC0101900D920020E1F765
:104DE0000895FB01DC014150504048F001900D92C4
:104DF0000020C9F701C01D9241505040E0F70895CE
:104E00000F931F93CF93DF93CDB7DEB72E970FB6D7
:104E1000F894DEBF0FBECDBF0E891F8986E08C835C
:104E20001A8309838FEF9FE79E838D83AE01465ED1
:104E30005F4F688D798DCE01019611D02F81388515
:104E4000F801E20FF31F10822E960FB6F894DEBF22
:104E50000FBECDBFDF91CF911F910F9108952F927B
:104E60003F924F925F926F927F928F929F92AF92FA
:104E7000BF92CF92DF92EF92FF920F931F93CF9347
:104E8000DF93CDB7DEB72C970FB6F894DEBF0FBE19
:104E9000CDBF7C016B018A01FC01178216828381E0
:104EA00081FFB0C1CE0101964C01F7019381F6015B
:104EB00093FD859193FF81916F01882309F49EC131
:104EC000853239F493FD859193FF81916F0185328D
:104ED00021F4B70190E0C7D1E8CF512C312C20E06C
:104EE0002032A0F48B3269F030F4803259F08332F2
:104EF00069F420612CC08D3239F0803339F421609F
:104F000026C02260246023C0286021C027FD27C05E
:104F100030ED380F3A3078F426FF06C0FAE05F9E95
:104F2000300D1124532E13C08AE0389E300D112409
:104F3000332E20620CC08E3221F426FD5FC1206426
:104F400006C08C3611F4206802C0883641F4F601A0
:104F500093FD859193FF81916F018111C1CF982FAE
:104F60009F7D9554933028F40C5F1F4FFFE3F98326
:104F70000DC0833631F0833771F0833509F057C0A7
:104F800021C0F801808189830E5F1F4F4424439420
:104F9000512C540114C03801F2E06F0E711CF8015D
:104FA000A080B18026FF03C0652D70E002C06FEFC6
:104FB0007FEFC5012C874CD12C0183012C852F77E5
:104FC000222E16C03801F2E06F0E711CF801A0808D
:104FD000B18026FF03C0652D70E002C06FEF7FEF48
:104FE000C5012C872AD12C012C852068222E830113
:104FF00023FC19C0832D90E048165906A0F4B70190
:1050000080E290E030D13A94F5CFF50127FC85910C
:1050100027FE81915F01B70190E025D131103A94CC
:10502000F1E04F1A51084114510479F7DEC084367B
:1050300011F0893631F5F80127FF07C060817181D1
:10504000828193810C5F1F4F08C060817181072EA0
:10505000000C880B990B0E5F1F4F2F76722E97FF57
:1050600009C090958095709561957F4F8F4F9F4FA8
:105070002068722E2AE030E0A4012DD1A82EA818B5
:1050800043C0853729F42F7EB22E2AE030E025C0B8
:10509000F22FF97FBF2E8F36C1F018F4883579F0E2
:1050A000ADC0803719F0883721F0A8C02F2F2061BC
:1050B000B22EB4FE0DC08B2D8460B82E09C024FF23
:1050C0000AC09F2F9660B92E06C028E030E005C0C8
:1050D00020E130E002C020E132E0F801B7FE07C075
:1050E00060817181828193810C5F1F4F06C0608156
:1050F000718180E090E00E5F1F4FA401ECD0A82EDC
:10510000A818FB2DFF777F2E76FE0BC0372D3E7F34
:10511000A51450F474FE0AC072FC08C0372D3E7E00
:1051200005C0BA2C372D03C0BA2C01C0B52C34FFF2
:105130000DC0FE01EA0DF11D8081803311F4397E2E
:1051400009C032FF06C0B394B39404C0832F86789D
:1051500009F0B39433FD12C030FF06C05A2CB314CB
:1051600018F4530C5B18B32CB31460F4B70180E24D
:1051700090E03C8778D0B3943C85F6CFB31410F41C
:105180003B1801C0312C34FF11C0B70180E390E01F
:105190003C8769D03C8532FF16C031FD03C088E7EB
:1051A00090E002C088E590E0B7010CC0832F8678BC
:1051B00051F031FF02C08BE201C080E237FD8DE289
:1051C000B70190E050D0A51430F4B70180E390E02F
:1051D0004AD05A94F8CFAA94F401EA0DF11D8081C7
:1051E000B70190E040D0A110F6CF332009F45DCE96
:1051F000B70180E290E037D03A94F7CFF70186818B
:10520000978102C08FEF9FEF2C960FB6F894DEBF08
:105210000FBECDBFDF91CF911F910F91FF90EF9007
:10522000DF90CF90BF90AF909F908F907F906F90C6
:105230005F904F903F902F900895FC010590615032
:1052400070400110D8F7809590958E0F9F1F08959C
:10525000FC016150704001900110D8F78095909545
:105260008E0F9F1F08950F931F93CF93DF93FB0122
:10527000238121FD03C08FEF9FEF28C022FF16C0BE
:1052800046815781248135814217530744F4A08118
:10529000B1819D012F5F3F4F318320838C93268105
:1052A00037812F5F3F4F3783268310C0EB01092FD3
:1052B000182F0084F185E02D1995892BE1F68E8158
:1052C0009F8101969F838E83812F902FDF91CF91B5
:1052D0001F910F910895FA01AA27283051F120312A
:1052E00081F1E8946F936E7F6E5F7F4F8F4F9F4F7A
:1052F000AF4FB1E03ED0B4E03CD0670F781F891FBC
:105300009A1FA11D680F791F8A1F911DA11D6A0F89
:10531000711D811D911DA11D20D009F468943F913C
:105320002AE0269F11243019305D3193DEF6CF013B
:105330000895462F4770405D4193B3E00FD0C9F701
:10534000F6CF462F4F70405D4A3318F0495D31FD6E
:105350004052419302D0A9F7EACFB4E0A6959795C1
:10536000879577956795BA95C9F700976105710597
:1053700008959B01AC010A2E0694579547953795E1
:105380002795BA95C9F7620F731F841F951FA01D3B
:10539000089511E0CDE1D1E000E005C0802FFE01CD
:1053A000B1DB2196011DCE31D10780E00807B1F7AE
:0453B000F894FFCF9F
:1053B40040010101FFFFFFFFFFFF01F00000006457
:1053C400088000000000000A03E303E9024E0557C9
:1053D40005DB030000000000006317E9163617140C
:1053E400172817A91700000000DC10E916000000B8
:1053F40000AD037E037603620353035203000000EF
:1054040000CA17E916CA17CA17CA17CA1700000034
:1054140000CA17E91670312F00646F776E2F00757C
:10542400702F006C6566742F0072696768742F00B2
:10543400256400677261706869637320696E6974BA
:10544400005344206F6B21005344206572726F72C5
:105454002100702E783D002C20702E793D002C20E8
:10546400702E7A3D000D0A00424F4D424552004DC8
:10547400414E005374617274004A6F696E0066692C
:105484006C65206E6F7420666F756E64006269745B
:105494006D6170206572726F7221006D61702F579B
:1054A400616C6C312E626D70006D61702F4372619E
:1054B4007465312E626D7000666F6E742E68657847
:0254C4000000E6
:020000023000CC
:10E000000D9489F10D94B2F10D94B2F10D94B2F129
:10E010000D94B2F10D94B2F10D94B2F10D94B2F1F0
:10E020000D94B2F10D94B2F10D94B2F10D94B2F1E0
:10E030000D94B2F10D94B2F10D94B2F10D94B2F1D0
:10E040000D94B2F10D94B2F10D94B2F10D94B2F1C0
:10E050000D94B2F10D94B2F10D94B2F10D94B2F1B0
:10E060000D94B2F10D94B2F10D94B2F10D94B2F1A0
:10E070000D94B2F10D94B2F10D94B2F10D94B2F190
:10E080000D94B2F10D94B2F10D94B2F10D94B2F180
:10E090000D94B2F10D94B2F10D94B2F10D94B2F170
:10E0A0000D94B2F10D94B2F10D94B2F10D94B2F160
:10E0B0000D94B2F10D94B2F10D94B2F10D94B2F150
:10E0C0000D94B2F10D94B2F10D94B2F10D94B2F140
:10E0D0000D94B2F10D94B2F10D94B2F10D94B2F130
:10E0E0000D94B2F141546D656761323536300041AF
:10E0F000726475696E6F206578706C6F72657220DE
:10E1000073746B3530305632206279204D4C530099
:10E11000426F6F746C6F616465723E004875683F52
:10E1200000436F6D70696C6564206F6E203D200048
:10E130004350552054797065202020203D20005FF9
:10E140005F4156525F415243485F5F3D2000415658
:10E1500052204C696243205665723D20004743437C
:10E160002056657273696F6E203D20004350552024
:10E1700049442020202020203D20004C6F7720663D
:10E18000757365202020203D20004869676820665F
:10E190007573652020203D200045787420667573D6
:10E1A00065202020203D20004C6F636B2066757336
:10E1B000652020203D20004D617220203720323024
:10E1C000313300312E362E3800342E332E350056A2
:10E1D00023202020414444522020206F7020636F70
:10E1E00064652020202020696E73747275637469E1
:10E1F0006F6E2061646472202020496E74657272B3
:10E20000757074006E6F20766563746F7200726A49
:10E210006D702020006A6D70200057686174207056
:10E220006F72743A00506F7274206E6F7420737541
:10E2300070706F72746564004D7573742062652030
:10E2400061206C6574746572002000577269747483
:10E25000696E672045450052656164696E672045B7
:10E26000450045452065727220636E743D00504F35
:10E27000525400303D5A65726F2061646472003FF1
:10E280003D43505520737461747300403D454550C3
:10E29000524F4D207465737400423D426C696E6B41
:10E2A000204C454400453D44756D70204545505215
:10E2B0004F4D00463D44756D7020464C415348001B
:10E2C000483D48656C70004C3D4C69737420492F83
:10E2D0004F20506F72747300513D51756974005234
:10E2E0003D44756D702052414D00563D73686F7707
:10E2F00020696E7465727275707420566563746FF0
:10E30000727300593D506F727420626C696E6B00BD
:10E310002A0011241FBECFEFD1E2DEBFCDBF01E046
:10E320000CBF12E0A0E0B2E0EEE1FDEF03E00BBFB6
:10E3300002C007900D92A030B107D9F712E0A0E01B
:10E34000B2E001C01D92AE30B107E1F70F9460F367
:10E350000D948DFE01E20EBF0FEF0DBF11241FBE05
:10E360000D9460F30D9400F020E030E040ED57E0B4
:10E3700005C0FA013197F1F72F5F3F4F2817390792
:10E38000C0F308959C01260F311DC901A0E0B0E043
:10E390002F5F3F4FABBFFC018791882361F08093D3
:10E3A000C6008091C00086FFFCCF8091C0008064D1
:10E3B0008093C000EACF08958DE08093C6008091DD
:10E3C000C00086FFFCCF8091C00080648093C000B5
:10E3D0008AE08093C6008091C00086FFFCCF8091C8
:10E3E000C00080648093C00008950F94C2F10F9420
:10E3F000DCF10895FC019081992359F09093C600B7
:10E400008091C00086FFFCCF8091C0008064809323
:10E41000C0003196992379F70895282F982F929567
:10E420009F70892F805D8A3308F0895F8093C600D2
:10E430008091C00086FFFCCF8091C00080648093F3
:10E44000C000822F8F70982F905D9A3308F0995FEB
:10E450009093C6008091C00086FFFCCF8091C000E1
:10E4600080648093C00008959C01FB01853691056E
:10E470001CF46330710594F0C90164E670E00F94F8
:10E480002EFE605D7F4F6093C6008091C00086FFC6
:10E49000FCCF8091C00080648093C0002B30310598
:10E4A00014F43297B4F0C90164E670E00F942EFEC4
:10E4B0006AE070E00F942EFE605D7F4F6093C600AF
:10E4C0008091C00086FFFCCF8091C0008064809363
:10E4D000C000C9016AE070E00F942EFEC0968093E0
:10E4E000C6008091C00086FFFCCF8091C000806490
:10E4F0008093C00008951F93182F8EE692EE60E07F
:10E500000F94C2F11093C6008091C00086FFFCCF2B
:10E510008091C00080648093C0000F94DCF11F9153
:10E5200008952F923F924F925F926F927F928F92B7
:10E530009F92AF92BF92CF92DF92EF92FF920F9392
:10E540001F93DF93CF93CDB7DEB762970FB6F894E2
:10E55000DEBF0FBECDBF382E622ECA01DB015C01CB
:10E560006D01772420E2222E2E010894411C511CBB
:10E570008BC081E0A81680E0B80681E0C80680E084
:10E58000D80628F0C601AA27BB270F940DF2BB2797
:10E59000AD2D9C2D8B2D0F940DF28A2D0F940DF225
:10E5A0002092C6008091C00086FFFCCF8091C00001
:10E5B00080648093C0009DE29093C6008091C0006B
:10E5C00086FFFCCF8091C00080648093C0002092C1
:10E5D000C6008091C00086FFFCCF8091C00080649F
:10E5E0008093C00019828601750188249924A1E0D6
:10E5F0003A1651F03A1620F0B2E03B1661F409C029
:10E600000BBFF701779007C0C7010F9477FE782EF4
