:100000000C946B000C94E01A0C9493000C949300E5
:100010000C9493000C9493000C9493000C94930014
:100020000C94241B0C9493000C9493000C94930058
:100030000C9493000C9493000C9493000C949300F4
:100040000C943E0E0C9493000C9423060C94FD0526
:100050000C9493000C9493000C9493000C949300D4
:100060000C94A7190C9493000000000024002700B2
:100070002A000000000023002600290000000008DC
:10008000000201000003040700000000000000005F
:100090007C3C3E5E2B3D3F2F5B5D3B2C2A225C006F
:1000A000010204081020408001020408102001020F
:1000B0000408102000000000250028002B00040484
:1000C0000404040404040202020202020303030300
:1000D0000303C922BD2211241FBECFEFD8E0DEBF2B
:1000E000CDBF12E0A0E0B1E0EEEAF2E502C005907B
:1000F0000D92AE32B107D9F727E0AEE2B2E001C00F
:100100001D92AF37B207E1F710E0CAE6D0E004C0B5
:100110002197FE010E940125C936D107C9F70E9427
:100120001D1D0C944A290C9400000F931F93CF932C
:10013000DF93CDB7DEB76B970FB6F894DEBF0FBE77
:10014000CDBF80910A01882309F45CC060E080E0A3
:100150000E944C1B60E080E00E944C1B8091560680
:100160008130F1F565E671E0CE0101960E945C26D2
:100170008091AD04813059F038F0823059F08330ED
:1001800079F469E771E008C069E671E005C06FE6DF
:1001900071E002C063E771E0CE0101960E9446263D
:1001A0008091AC041F928F9380E891E09F938F938E
:1001B0008E01075E1F4F1F930F930E947226B80196
:1001C000CE0101960E94462669EC71E0CE010196AF
:1001D0000E9446260F900F900F900F900F900F9057
:1001E000CE0101960E94060A409152065091530694
:1001F0006091540670915506CE0101960E94230B22
:1002000010920A016B960FB6F894DEBF0FBECDBFF9
:10021000DF91CF911F910F910895CF93DF93EC0160
:10022000988188818E7F888388818D7F888390FFE5
:1002300003C0CE010E945B1B8BA19CA1009769F1BA
:100240001CA21BA2EF8DF8A1A9A1BAA1309799F425
:10025000109749F4DC0111961C921E9213961C9281
:100260001E9212971AC090961C921E925F97FC01E4
:10027000B183A08312C0109741F412A211A2DC0135
:100280001396FC93EE93129708C0B2A3A1A3A9A161
:10029000BAA19096FC93EE935F97DF91CF9108956A
:1002A000CF92DF92EF92FF920F931F93CF93DF9342
:1002B0006C017A018B01C0E0D0E0CE15DF0589F03A
:1002C000D8016D918D01D601ED91FC910190F081E5
:1002D000E02DC6010995892B11F47E0102C02196FB
:1002E000ECCFC701DF91CF911F910F91FF90EF905D
:1002F000DF90CF900895FC01918D828D981761F069
:10030000828DDF01A80FB11D5D968C91928D9F5F4C
:100310009F73928F90E008958FEF9FEF0895FC01F7
:10032000918D828D981731F0828DE80FF11D858DAA
:1003300090E008958FEF9FEF0895FC01918D228D3D
:10034000892F90E0805C9F4F821B91098F739927C2
:100350000895FC01848DDF01A80FB11DA35ABF4F82
:100360002C91848D90E001968F739927848FA689B4
:10037000B7892C93A089B1898C9180648C93938DDB
:10038000848D981306C00288F389E02D80818F7DCB
:1003900080830895EF92FF920F931F93CF93DF9383
:1003A000EC0181E0888F9B8D8C8D981305C0E889C6
:1003B000F989808185FD24C0F62E0B8D10E00F5F3A
:1003C0001F4F0F731127E02E8C8DE8120CC00FB653
:1003D00007FCFACFE889F989808185FFF5CFCE0146
:1003E0000E94A901F1CF8B8DFE01E80FF11DE35AA8
:1003F000FF4FF0820B8FEA89FB898081806207C002
:10040000EE89FF896083E889F9898081806480832F
:1004100081E090E0DF91CF911F910F91FF90EF90DD
:100420000895CF93DF93EC01888D8823C9F0EA8982
:10043000FB89808185FD05C0A889B9898C9186FDDD
:100440000FC00FB607FCF5CF808185FFF2CFA889DA
:10045000B9898C9185FFEDCFCE010E94A901E7CF2C
:10046000DF91CF910895833081F028F4813099F0A5
:100470008230A1F008958730A9F08830B9F0843037
:10048000D1F4809180008F7D03C0809180008F77B0
:1004900080938000089584B58F7702C084B58F7DE6
:1004A00084BD08958091B0008F7703C08091B00023
:1004B0008F7D8093B00008953FB7F89480912E020D
:1004C00090912F02A0913002B091310226B5A89BE5
:1004D00005C02F3F19F00196A11DB11D3FBFBA2FD6
:1004E000A92F982F8827820F911DA11DB11DBC0136
:1004F000CD0142E0660F771F881F991F4A95D1F7FB
:100500000895AF92BF92CF92DF92EF92FF920F9336
:100510001F93CF93DF93C22ED12CE42EF12CC62F44
:10052000D0E0A82EB12C0AEC13EB9601A701BE0176
:10053000C5010E94C40996012A503109A7014A50F9
:100540005109BE016B5F7F4F01E41EEFC5010596A7
:100550000E94C409DF91CF911F910F91FF90EF90FE
:10056000DF90CF90BF90AF9008950E9434268F9275
:100570009F92AF92BF920F931F93CF93DF93CDB70C
:10058000DEB7A1970FB6F894DEBF0FBECDBF19A29C
:10059000423008F44AE08E010F5D1F4F842E912CEB
:1005A000A12CB12CA50194010E94B124E62FB90120
:1005B000CA0101501109EA3014F4E05D01C0E95CA0
:1005C000D801EC93232B242B252B61F7C8010E9423
:1005D000F409A1960FB6F894DEBF0FBECDBFDF9130
:1005E000CF911F910F91BF90AF909F908F900895E2
:1005F000CF92DF92EF92FF92CF93DF936B017C015A
:10060000E0914305F09144050190F081E02D6DE209
:1006100083E495E00995EC0166277727CB016C19F7
:100620007D098E099F094AE00E94B7028C0F9D1F29
:10063000DF91CF91FF90EF90DF90CF9008952F92B0
:100640003F924F925F926F927F928F929F92AF9262
:10065000BF92CF92DF92EF92FF920F931F93CF93AF
:10066000DF93CDB7DEB7A7970FB6F894DEBF0FBE06
:10067000CDBF9AA389A35B015CA34BA31C8E9E01F3
:100680002F5F3F4F1901CB0108969EA38DA395E0E4
:10069000920F9FA33C8DC32ED12CEBA1FCA1EC0D9E
:1006A000FD1D8080882009F4B9C0909005016EEC92
:1006B00071E0C1010E942D0AEA8CFB8CE114F10467
:1006C00021F0F7018581811105C087ED91E00E943D
:1006D000060AA0C0F5E08F9EA0011124052E000C93
:1006E000660B770BC7010E94561245E050E0B1013E
:1006F000C7010E941914C7010E945C15C7010E941E
:100700009C2526E0929EC00111248C9D70018D9D38
:10071000F00C9C9DF00C112489A19AA1E80EF91E01
:1007200090E4E91691E0F9060CF074C0E0EFAE1623
:10073000B1040CF06FC0F0910501FF8F8F2E912C4A
:10074000C70126E0F29F800D911D1124181619068D
:100750000CF060C0C40123E0880F991F2A95E1F7CF
:100760008A0D9B1D181619060CF054C00E94E81C37
:1007700037013E8E2D8EED8DFE8D2191FE8FED8FFA
:1007800028A32501650138A130FF2CC00091030189
:10079000109104018F8D8130D1F490E4E91691E03D
:1007A000F90600F5D7FC1EC080910B0190910C0159
:1007B000C816D906B8F421E030E041E050E0B601B7
:1007C000C7010E94D41BC8010E94140A0BC0E0E4B8
:1007D0006E16E1E07E0634F49401A401B201C30177
:1007E0000E946B1CF8A1F695F8A32FEFC21AD20A4B
:1007F000480C591C8DA19EA1C816D90621F69FEF61
:10080000E91AF90A680C791CEFA1FD8DEF13B3CF3B
:100810000E947B1B2C8D2F5F2C8F3CCFA7960FB691
:10082000F894DEBF0FBECDBFDF91CF911F910F9126
:10083000FF90EF90DF90CF90BF90AF909F908F9000
:100840007F906F905F904F903F902F9008950F93FF
:100850001F938C0120EF30E040E451E060E070E055
:1008600080E090E00E94C4091F910F9108950F93BA
:100870001F93CF938FEE9BE70E942704C5E0C093A0
:10088000050181E49EEF909304018093030146EEFD
:1008900051E06FE070E08DE190E00E941F032EE6D2
:1008A0004AE56CE384E10E948102109204011092F7
:1008B0000301C093050140EF51E06FE570E086E26F
:1008C00090E00E941F032DE24AE564EB84E10E9460
:1008D0008102109204011092030183E080930501CC
:1008E00043EF51E060EC70E081E290E00E941F0372
:1008F00025EA44EB6CE388E70E9481020FEE1BE7D8
:1009000021E930E040EA50E066E470E082E890E0FF
:100910000E94C409CF911F910F9108958FEE9BE71C
:100920000E94270487E08093050181E49EEF909365
:1009300004018093030148EF51E06FE070E081E231
:1009400090E00E941F034CEE51E060E570E08FE5FF
:1009500090E00E941F0322E348E766E98EE10E94CF
:10096000810222E348E766E98AEA0E94810283E085
:100970008093050110920401109203014FEF51E0A2
:1009800065EA70E082E390E00E941F0345E052E0D8
:1009900065EA70E083EC90E00C941F038F929F92C5
:1009A000AF92BF92CF92DF92EF92FF92CF93DF93FD
:1009B000C82F82EE95E09093330280933202CC23CD
:1009C00069F1C53010F080E00DC140E060E070E0FA
:1009D000CB010E9480108823B1F320E1C29FC001A7
:1009E00011248E569D4FFC01E254FE4F20812F773B
:1009F00051F73C96408151816281738144365105A3
:100A00006105710500F33497C080D180E280F380E6
:100A1000C114D104E104F10421F4D5CFC12CD12CAF
:100A2000760140E0C701B6010E948010882359F288
:100A30008091AD029091AE028115924021F6A09175
:100A4000B202AA2309F4BFCF6091B0027091B10243
:100A50006115710509F4B7CF2091AF02222309F483
:100A6000B2CFA09300062093F20580E030E0E1E0F1
:100A7000F0E0C82FAF01082E02C0440F551F0A94A2
:100A8000E2F72417350741F0982F8F5F983089F7E8
:100A900089E08093FB0597CF8093FB052091B802F6
:100AA0003091B9022115310519F040E050E008C03D
:100AB0002091C6023091C7024091C8025091C902EC
:100AC0002093F3053093F4054093F5055093F60514
:100AD00046015701860E971EA11CB11C809201068B
:100AE00090920206A0920306B0920406E091B3022F
:100AF000F091B402F0930706E0930606B0E00E947E
:100B0000A624860E971EA81EB91E809208069092F3
:100B10000906A0920A06B0920B0685E0EE0FFF1FB1
:100B20008A95E1F7E150FE4FEF2FFF27E6958E0EF5
:100B30009F1EA11CB11C8092FC059092FD05A09205
:100B4000FE05B092FF052091B5023091B602211545
:100B5000310521F0A90160E070E008C04091C202B7
:100B60005091C3026091C4027091C502D701C601C1
:100B700088199909AA09BB09840F951FA61FB71FD9
:100B800004C0B695A79597958795CA95D2F7809397
:100B9000F7059093F805A093F905B093FA05853F02
:100BA0002FE09207A105B10510F48CE018C0853F35
:100BB0009F4FA105B10510F480E111C08091CE02D4
:100BC0009091CF02A091D002B091D10280930806FB
:100BD00090930906A0930A06B0930B0680E28093D7
:100BE000050681E0DF91CF91FF90EF90DF90CF90ED
:100BF000BF90AF909F908F9008951F920F920FB665
:100C00000F9211242F933F934F935F936F937F9392
:100C10008F939F93AF93BF93EF93FF9383E495E0FC
:100C20000E94A901FF91EF91BF91AF919F918F9188
:100C30007F916F915F914F913F912F910F900FBED8
:100C40000F901F9018951F920F920FB60F921124BC
:100C50002F938F939F93EF93FF93E0915305F09120
:100C600054058081E0915905F0915A0582FD12C02A
:100C7000908180915C058F5F8F7320915D05821755
:100C800051F0E0915C05F0E0ED5BFA4F958F8093B9
:100C90005C0501C08081FF91EF919F918F912F9111
:100CA0000F900FBE0F901F9018951F93CF93DF9357
:100CB000282F30E0F901E458FF4F8491F901E05604
:100CC000FF4FD491F901E254FF4FC491CC23C9F0F6
:100CD000162F81110E943302EC2FF0E0EE0FFF1F60
:100CE000EC54FF4FA591B4918FB7F894111105C042
:100CF0009C91ED2FE095E92302C0EC91ED2BEC9354
:100D00008FBFDF91CF911F910895CF93DF93D82F9D
:100D1000C62F80916C078F3FD1F48091700791E0CE
:100D200090937D0280939F0210927E021092A00207
:100D30006D2F8BE296E00E9406186C2F8BE296E0F6
:100D40000E94061881E0DF91CF910C94AA0D80914A
:100D50006F078F3F31F480913706909138060E94DB
:100D6000DD1A60E080916C070E9455068D2F0E946D
:100D7000730D8C2F0E94730D61E080916C070E94AF
:100D8000550680916F078F3F21F4DF91CF910C942E
:100D9000D51ADF91CF9108958F929F92AF92BF9213
:100DA000CF92DF92EF92FF920F931F93CF93DF9337
:100DB000C82F80916C078F3F09F06DC0809170073C
:100DC000D1E0D0937D0280939F0210927E02109218
:100DD000A0026C2F8BE296E00E94061881E00E9430
:100DE000AA0D80917007D0937D0280939F0210928C
:100DF0007E021092A00290917C029111FCCF91E0B2
:100E000090937C0290937B022FEF20937A021092B2
:100E10007902109278029093570290915702880FAE
:100E2000892B8093570280915602813061F4109291
:100E30005602809157028093BB008091BC0083FDD5
:100E4000F8CF85EC01C085EE8093BC0080917C02D8
:100E50008130E1F380917902811103C080917902A0
:100E600001C081E0A8E5B2E026E332E0F9019E2F5F
:100E7000921B981718F49D919193F9CF1092350217
:100E8000809334028BE296E00E94BA17B82E81E07C
:100E90000E94AA0D69C080916F078F3F31F4809145
:100EA0003706909138060E94DD1A60E080916C0749
:100EB0000E9455068C2F80680E94730D80E00E946E
:100EC000730DA0906F078FEFA81205C080E00E94FD
:100ED000D61AB82E3EC0C0916E0707E010E0B12CC4
:100EE000D0E0FE01E458FF4F7F01CE0180569F4FB6
:100EF0006C01C254DF4F61E08A2D0E945506F70154
:100F00008491F6018490FE019490992099F08111CA
:100F10000E943302292D30E0220F331F2E583F4FFD
:100F2000F901A591B4918C91882231E009F430E067
:100F3000832F02C080E090E0002E01C0880F0A9449
:100F4000EAF7B82A60E08A2D0E945506015011097F
:100F500090F661E080916C070E94550680916F07C2
:100F60008F3F11F40E94D51A8B2DDF91CF911F91E5
:100F70000F91FF90EF90DF90CF90BF90AF909F9038
:100F80008F900895CF93DF9380E00E94CC06C82F06
:100F9000D0E0DC2FCC2781E00E94CC069E01282BDC
:100FA000C901DF91CF910895CF93DF9390E0FC01C9
:100FB000E056FF4F2491FC01E254FF4F84918823B7
:100FC00061F190E0880F991FFC01E859FF4FC5912E
:100FD000D491FC01EC54FF4FA591B491611109C06B
:100FE0009FB7F8948881209582238883EC912E23E3
:100FF0000BC0623061F49FB7F8943881822F8095DE
:1010000083238883EC912E2B2C939FBF06C08FB730
:10101000F894E8812E2B28838FBFDF91CF9108951C
:101020008F929F92AF92BF92CF92DF92EF92FF92F8
:101030006B017C010E945C024B015C01C114D10474
:10104000E104F104F1F00E945C02DC01CB0188199B
:101050009909AA09BB09883E9340A105B10570F31F
:1010600021E0C21AD108E108F10888EE880E83E079
:10107000981EA11CB11CC114D104E104F10419F79C
:10108000DDCFFF90EF90DF90CF90BF90AF909F901B
:101090008F9008950F931F93CF93DF9300D000D0CC
:1010A000CDB7DEB78C010E94280E8983C8010E944B
:1010B000280E8A83C8010E94280E8B83C8010E94D3
:1010C000280E8C8369817A818B819C810F900F908F
:1010D0000F900F90DF91CF911F910F9108950F9373
:1010E0001F93CF93DF9300D0CDB7DEB78C010E9462
:1010F000280E8983C8010E94280E8A8389819A81DB
:101100000F900F90DF91CF911F910F910895CF9382
:10111000DF93EC016A8B8091060190910701A09109
:101120000801B09109018E879F87A88BB98B80E257
:10113000689FF0011124EE55FD4F4489558960E008
:1011400070E0BA01552744274F8B588F698F7A8FEB
:10115000828D938DA0E0B0E0482B592B6A2B7B2B1E
:101160004F8B588F698F7A8F8385887151F4848D66
:10117000958DA68DB78D8B8B9C8BAD8BBE8B81E0B7
:101180000EC0803111F080E015C09E012D5E3F4FF2
:101190008B8D9C8D0E94ED118823A9F384E08D83B3
:1011A00081E08C831E821F82188619861A861B8610
:1011B0001C861D86DF91CF910895AF92BF92CF928A
:1011C000DF92EF92FF920F931F93CF93DF93CDB7F0
:1011D000DEB72B970FB6F894DEBF0FBECDBF7C01F4
:1011E000CE0101966C01FC0190E28BE08C0D919395
:1011F0008E13FDCFDA0120E037E09D91992339F17C
:101200009E3219F0E0E9F0E00AC03A3009F4AAC0D1
:1012100028E03AE0F2CF3196891709F4A3C084910F
:101220008111F9CF321708F49DC08FED890F8E35EB
:1012300008F098C081E0820FF601E20FF11D2FE95E
:10124000290F2A3108F490529083282FD6CF898114
:10125000803209F487C08B01FB01838D948DF701E7
:10126000948F838FFB011682178210861186128657
:10127000138614861586A12CF80182859385A48592
:10128000B585438954896589768984179507A607AA
:10129000B70708F067C025E0B695A795979587959D
:1012A0002A95D1F7F82FFF70BF2EF8018581823083
:1012B00008F458C0C8010E945A1997FD53C0F8019C
:1012C00082859385A485B5854F96A11DB11D828722
:1012D0009387A487B587F0E2BF9EC0011124BC01AB
:1012E0006E557D4F61157105E9F1FB0120812223C7
:1012F000B9F1253EE1F04BE050E0C6010E943926ED
:10130000892B09F0B9CF6B2DC7012B960FB6F89436
:10131000DEBF0FBECDBFDF91CF911F910F91FF9028
:10132000EF90DF90CF90BF90AF900C948708A11002
:1013300014C0F701B28A40910601509107016091F3
:1013400008017091090146875787608B718BFC01FA
:10135000EE55FD4F8081882329F0AA24A3948CCFD9
:10136000AA2039F380E02B960FB6F894DEBF0FBEAB
:10137000CDBFDF91CF911F910F91FF90EF90DF9044
:10138000CF90BF90AF9008950F931F93CF93DF93AB
:10139000CDB7DEB728970FB6F894DEBF0FBECDBF2E
:1013A0002F8338874D835E836B837C8389839A8305
:1013B0000E94E81C89819A812F8138854D815E8148
:1013C0006B817C818034E1E09E0714F40E946B1CE9
:1013D00028960FB6F894DEBF0FBECDBFDF91CF9138
:1013E0001F910F910C947B1B009769F0FC010190F9
:1013F0000020E9F73197AF01481B590BBC0183E48A
:1014000095E00C94500180E090E00895CF93DF9335
:101410000E94F409EC018AE092E00E94F4098C0F2A
:101420009D1FDF91CF910895CF93282F8091400683
:1014300087FF09C09EBD0DB407FEFDCF2EBD0DB4C4
:1014400007FEFDCF08C0892FC22F0E948A1B8C2F58
:10145000CF910C948A1BCF9108952F923F924F9277
:101460005F926F927F928F929F92AF92BF92CF9234
:10147000DF92EF92FF920F931F93CF93DF93CDB73D
:10148000DEB7C656D1090FB6F894DEBF0FBECDBF8A
:101490006C015B014E018EE1880E911C6CE076E0E0
:1014A000C4010E9411171C821B8289E391E09A8378
:1014B00089831E8235018E010F5F1F4F24011801A1
:1014C0006FE270E0C3010E945126009709F441C009
:1014D000F30120812F3221F4FFEF6F1A7F0AF0CF42
:1014E00086198D3008F08CE0E82EF12CA701B301AD
:1014F000CE01885A9F4F0E946326E8E5F0E0EC0F8A
:10150000FD1FEE0DFF1D1082C8010E945C15F80141
:101510008581882351F01EAE1DAE89E391E09CAF1A
:101520008BAF21961FAE219720C0AE01485A5F4F66
:10153000B201C8010E94DD08882369F36E0C7F1C8C
:10154000C2010E945C15942D852D2801092F182FAA
:10155000B7CFC3018A199B09A7969FAF8EAFA797F4
:10156000B201CE01CB960E941117A796EEADFFAD4A
:10157000A797AE0EBF1EF5018081811109C0BE0183
:10158000655C7F4FC1010E94111747E651E03CC0E6
:1015900019A218A289E391E09F8F8E8F1BA221963A
:1015A0008FAD2197811113C0F6011382128288EE4C
:1015B00093E0A0E0B0E084839583A683B78387E1BE
:1015C00091E091838083128E118E148621C0825007
:1015D000A501823040F46CE076E0C4010E94DD0891
:1015E00081110DC0E1CFBE01655C7F4FC4010E9437
:1015F000DD088823C9F2CE01CB960E945C15B401A8
:10160000C1010E941117A501B101C6010E9425194F
:10161000C601CA59DF4F0FB6F894DEBF0FBECDBF6B
:10162000DF91CF911F910F91FF90EF90DF90CF90BE
:10163000BF90AF909F908F907F906F905F904F90F2
:101640003F902F9008952F923F924F925F926F920A
:101650007F928F929F92AF92BF92CF92DF92EF9242
:10166000FF920F931F93CF93DF93CDB7DEB7CF5485
:10167000D1090FB6F894DEBF0FBECDBF1B018A01A2
:101680001F8E1E8E48EE53E060E070E048A359A321
:101690006AA37BA327E131E03D8F2C8F1EAA1DAAF0
:1016A00018A620E4221621E032060CF002C2003F08
:1016B00011050CF0FEC1BC01CE0101960E942D0A5D
:1016C0008B819C819F8F8E8F8D819E81AF81B8850C
:1016D00088A399A3AAA3BBA389859A85AB85BC855A
:1016E0008CA39DA3AEA3BFA38DE0FE013D96DE01BA
:1016F000989601900D928A95E1F7EA8DFB8DFEABED
:10170000EDAB309719F08581811105C087ED91E02F
:101710000E94060ACEC1CE014C960E946F08823408
:101720009D4409F0C1C1CE014C960E944A08CE01E9
:101730004C960E944A08CE014C960E944A084B01E2
:101740005C01CE014C960E944A08CE014C960E9444
:101750004A086B017C01CE014C960E944A082B017D
:101760003C01CE014C960E946F08019709F09CC184
:10177000CE014C960E946F08883109F095C1CE01C8
:101780004C960E944A0821966CAF7DAF8EAF9FAFFA
:101790002197672B682B692B09F086C1DCAECBAE95
:1017A00058AE4FAAC60101969C01220F331F820F2B
:1017B000931FBC016C7F23967FAF6EAF2397CB0145
:1017C000092E000CAA0BBB0B27968CAF9DAFAEAFBA
:1017D000BFAF279757FE63C14427552744195509C2
:1017E00058AF4FAB28961FAE2897C20CD31C96015A
:1017F0002150310937FD48C14FA858AC400E511E49
:10180000C201019797FD40C137FE09C066247724C5
:1018100062187308DCAECBAE212C312C02C0612CD7
:10182000712C17FF07C0EE24FF24E01AF10A00E034
:1018300010E004C04FA858ACE12CF12C203431400A
:101840003CF020E431E0B901621973097CAF6BAF61
:10185000803F91052CF080EF90E02C01401A510A56
:101860000E94E81C92014BAD5CADB801C1010E9421
:10187000D41BC301880F991F680E791EC301770C12
:10188000AA0BBB0B2C968CAF9DAFAEAFBFAF2C9706
:101890002FA938AD21503109A901330F660B770B01
:1018A000C7010F2C000CAA0BBB0B9A01AB01281B24
:1018B000390B4A0B5B0B27966CAD7DAD8EAD9FADA2
:1018C00027970E94E2249B01AC01280D391D4A1D77
:1018D0005B1D2FAB38AF49AF5AAF97012396AEAD22
:1018E000BFAD23970E94F224860E971EA81EB91E34
:1018F000C12CD12C7601612C712C2FE0641475045D
:101900000CF0C0C028963FAD2897332379F021967C
:101910004CAD5DAD6EAD7FAD21978FA998ADA9ADF2
:10192000BAAD480F591F6A1F7B1F06C0B701A60139
:10193000480D591D6A1D7B1D2C968CAD9DADAEAD1D
:10194000BFAD2C97480F591F6A1F7B1FEDA9FEA939
:10195000309729F082859385A485B58503C08FEFE4
:101960009FEFDC0184179507A607B70719F12D969D
:101970004FAF2D972E965FAF2E972F966FAF2F9765
:1019800060967FAF60970E947B1B8DA99EA92D96C4
:101990004FAD2D972E965FAD2E972F966FAD2F974B
:1019A00060967FAD6097009711F00E9456120E94DA
:1019B000E81C2FE000E010E04BAD5CAD041715070C
:1019C0000CF042C02F3080F00E947B1B8DA99EA995
:1019D000009739F04FE050E0BE016F5F7F4F0E94EB
:1019E00019140E94E81C20E0E1E0F0E0EC0FFD1F7C
:1019F000E20FF11D308181E0820FE1E0F0E0EC0FB9
:101A0000FD1FE80FF11D808192E0920FE1E0F0E010
:101A1000EC0FFD1FE90FF11D2D5F4081487F8C7F8A
:101A2000A8E08A9FC0011124942B369536953695EF
:101A3000832B2D962FAF2D970E94140A0F5F1F4FF7
:101A40002D962FAD2D97B8CF5FEF651A750A2196A9
:101A50008CAD9DADAEADBFAD219727964CAD5DADC4
:101A60006EAD7FAD2797841B950BA60BB70B219608
:101A70008CAF9DAFAEAFBFAF2197C40ED51EE61E93
:101A8000F71E3CCF0E947B1B8DA99EA9009789F071
:101A90000E945C158DA99EA90E949C250AC0B1E0F8
:101AA0002896BFAF2897A1CE8DE092E00E94060A4B
:101AB000EBCFC15BDF4F0FB6F894DEBF0FBECDBFDB
:101AC000DF91CF911F910F91FF90EF90DF90CF901A
:101AD000BF90AF909F908F907F906F905F904F904E
:101AE0003F902F900895EF92FF920F931F93CF9303
:101AF000DF93F0906F079FEFF91208C0DF91CF914D
:101B00001F910F91FF90EF900C94D61AE0906D0703
:101B100007E010E0C82FD0E0BE01002E02C075958E
:101B200067950A94E2F7617077278E2D0E9455061B
:101B300061E08F2D0E94550660E08F2D0E945506B2
:101B40000150110948F7DF91CF911F910F91FF903C
:101B5000EF900895382F2091A00290919F0221329A
:101B600008F049C080917C028111FCCF42E0409393
:101B70007C0230937B023FEF30937A02109279021D
:101B800020937802AFE7B2E048E552E0FA013E2F39
:101B9000341B321718F43D913193F9CF109257024C
:101BA00020915702990F922B9093570290915602D1
:101BB000913061F410925602909157029093BB00BD
:101BC0009091BC0093FDF8CF95EC01C095EE9093F9
:101BD000BC0090917C029230E1F390917A029F3F99
:101BE00079F080917A02803241F080917A028033DC
:101BF00031F084E005C081E003C082E001C083E0F1
:101C000010927E021092A00210927D020895DC01D3
:101C10005996ED91FC915A973097B9F08389948940
:101C2000A589B6894285538564857585841B950B86
:101C3000A60BB70B811520E89207A105B10538F076
:101C40008FEF9FE7A0E0B0E0089580E090E0089576
:101C5000FC01818D928D009711F00C945A198FEF31
:101C60009FEF08952FB7F8946091A8047091A9048C
:101C70008091AA049091AB042FBF08951F920F92F8
:101C80000FB60F9211242F933F938F939F93AF938F
:101C9000BF938091A8049091A904A091AA04B09147
:101CA000AB043091A70423E0230F2D3720F40196D5
:101CB000A11DB11D05C026E8230F0296A11DB11D6F
:101CC0002093A7048093A8049093A904A093AA0446
:101CD000B093AB0480912E0290912F02A09130021C
:101CE000B09131020196A11DB11D80932E029093F7
:101CF0002F02A0933002B0933102BF91AF919F9118
:101D00008F913F912F910F900FBE0F901F901895BC
:101D1000CF93DF93EC018091A204811109C081E08F
:101D20008093A2048091E0059091E1050E94DD1A64
:101D300060E08C81DF91CF910C94550661E0FC014D
:101D400084810E9455068091A204882321F010927C
:101D5000A2040C94D51A08958FEF0C94D61A0F9301
:101D60001F93CF93DF93EB010E94320E8B010E94F1
:101D7000AC0E8F3F49F00E94320E601B710B6C1746
:101D80007D07A8F380E001C081E0DF91CF911F9132
:101D90000F910895CF93DF93EC018E81882389F012
:101DA0008F8198859C012F5F3F4F38872F8382302A
:101DB000924018F40E94AC0EF3CFCE010E949E0E0A
:101DC0001E82DF91CF910895CF92DF92FF920F9301
:101DD0001F93CF93DF9300D000D0CDB7DEB76C0157
:101DE000F62E29833A834B835C830E94CA0EC60178
:101DF0000E94880E6CE271E0C6010E94AF0E8F2D2A
:101E000080640E94D61A08E110E05C814B813A811F
:101E10002981DA01C901002E04C0B695A7959795CE
:101E200087950A94D2F729833A834B835C830E9477
:101E3000D61A0850110929813A814B815C81083FEB
:101E40008FEF180731F7FF2029F0E8E0FE1204C0F9
:101E500087E803C085E901C08FEF0E94D61A10E021
:101E60000E94AC0EF601828787FF04C01F3F11F06D
:101E70001F5FF6CF0F900F900F900F90DF91CF91D3
:101E80001F910F91FF90DF90CF900895AF92BF9276
:101E9000CF92DF92EF92FF920F931F93CF93DF9336
:101EA000EC016901C801820F931F8130924008F054
:101EB00070C08E81882371F088819981AA81BB814D
:101EC000481759076A077B0729F48F819885C81638
:101ED000D906B0F5488359836A837B838B85833029
:101EE00039F089E0440F551F661F771F8A95D1F797
:101EF0009A01AB0161E1CE010E94E40E882319F042
:101F000083E08D8346C00E94320E5B010E94AC0EBE
:101F10008A878F3F49F40E94320E6A197B096D321D
:101F20007140A0F38FE003C08E3F31F08DE08D83D0
:101F3000CE010E949E0E2DC018861F8281E08E83E6
:101F40008F8198858C159D0540F40E94AC0E8F8181
:101F50009885019698878F83F3CF6701E00EF11E75
:101F6000CE14DF0431F00E94AC0EF60181936F01B4
:101F7000F7CF8F819885080F191F18870F838985E0
:101F8000882319F00115124048F0CE010E94CA0EB4
:101F900005C0CE010E949E0E80E001C081E0DF916D
:101FA000CF911F910F91FF90EF90DF90CF90BF9056
:101FB000AF900895EF92FF920F931F93CF93DF930B
:101FC000EC017901411551056105710511F482E1BA
:101FD0003CC08B85833039F089E0440F551F661F64
:101FE000771F8A95D1F79A01AB0168E1CE010E9473
:101FF000E40E882311F084E028C08EEF0E94D61AE8
:1020000087018EEFF81AF80181918F010E94D61A8C
:102010000E151F05C1F78FEF0E94D61A8FEF0E9491
:10202000D61A0E94AC0E8A878F71853031F081E11B
:102030008D83CE010E949E0E09C068E572E0CE013C
:102040000E94AF0E811107C085E18D83CE010E94F1
:102050009E0E80E013C020E030E0A9016DE0CE01CB
:102060000E94E40E811104C00E94AC0E882311F07E
:1020700084E1EBCFCE010E949E0E81E0DF91CF91F3
:102080001F910F91FF90EF9008958091A1028823F6
:10209000A9F14091060150910701609108017091EA
:1020A000090122EA32E080913202909133020E94CB
:1020B000DA0F811102C080E008954091A30450918D
:1020C000A4046091A5047091A60441155105610511
:1020D000710591F022EA32E0809132029091330250
:1020E0000E94DA0F882339F31092A3041092A404FB
:1020F0001092A5041092A6041092A10281E0089506
:102100008F929F92AF92BF92EF92FF920F931F9385
:10211000CF934B015C01C42F809106019091070180
:10212000A0910801B091090188159905AA05BB0580
:1021300001F10E944510811102C080E020C082EAB6
:10214000E82E82E0F82E00E012E020E030E0B50159
:10215000A40180913202909133020E94460F88239D
:1021600061F38092060190920701A0920801B0925B
:1021700009018091A102C82BC093A10281E0CF91F7
:102180001F910F91FF90EF90BF90AF909F908F9015
:1021900008954F925F926F927F928F929F92AF922B
:1021A000BF92CF92DF92EF92FF920F931F93CF9344
:1021B000DF93EC016A017B012801390142305105AE
:1021C0006105710510F480E073C089859A85AB853F
:1021D000BC850196A11DB11D84179507A607B707F9
:1021E00090F38B889C88AD88BE888F89803129F4D4
:1021F000BB27AF2D9E2D8D2D09C0DB01CA0147E005
:10220000B695A795979587954A95D1F7880E991E0B
:10221000AA1EBB1E8091060190910701A0910801A2
:10222000B091090188169906AA06BB0679F48F8930
:102230008031A1F4DD24EE24FF24C601880F991F0C
:10224000FC01EE55FD4F5182408219C040E0C501AE
:10225000B4010E9480108111EACFB5CFE894C7F88D
:10226000DD24EE24FF24C601880F991F880F991FD3
:10227000FC01EE55FD4F4082518262827382809153
:10228000A10281608093A1028A89823080F08D81D1
:102290009E81AF81B885880E991EAA1EBB1E8092B2
:1022A000A3049092A404A092A504B092A60481E095
:1022B000DF91CF911F910F91FF90EF90DF90CF9022
:1022C000BF90AF909F908F907F906F905F904F9056
:1022D00008958F929F92AF92BF92CF92DF92EF922A
:1022E000FF920F931F93CF93DF93FC01818592851B
:1022F000A385B4850196A11DB11D84179507A60776
:10230000B70710F480E05CC083899489A589B689F9
:10231000C789C03129F4852E962EA72EBB2409C06B
:102320004A015B01C7E0B694A79497948794CA9535
:10233000D1F7E9016A017B018F01BC01CD01680D74
:10234000791D8A1D9B1D8090060190900701A09029
:102350000801B0900901681579058A059B0599F473
:10236000F80187898031A9F4B701A60155276627AE
:102370007727440F551FFA01EE55FD4F808191815B
:10238000A0E0B0E018C040E00E9480108111E8CFCA
:10239000B9CFB701A6014F77552766277727440F96
:1023A000551F440F551FFA01EE55FD4F8081918155
:1023B000A281B381BF7088839983AA83BB8381E0A4
:1023C000DF91CF911F910F91FF90EF90DF90CF9011
:1023D000BF90AF909F908F9008954F925F926F92B1
:1023E0007F92AF92BF92CF92DF92EF92FF920F93C4
:1023F0001F93CF93DF9300D000D0CDB7DEB78C0111
:1024000049835A836B837C835901C12CD12C76017B
:10241000412C82E0582E612C712C49815A816B81AC
:102420007C819E012F5F3F4FC8010E946911882364
:1024300051F1D301C201F801058404C0880F991F2E
:10244000AA1FBB1F0A94D2F7C80ED91EEA1EFB1E94
:1024500049815A816B817C818789803129F088EF9D
:102460009FEFAFEFBFE004C088EF9FEFA0E0B0E0C8
:10247000481759076A077B0780F2F501C082D182AD
:10248000E282F38281E00F900F900F900F90DF9126
:10249000CF911F910F91FF90EF90DF90CF90BF9061
:1024A000AF907F906F905F904F9008958F929F9222
:1024B000AF92BF92CF92DF92EF92FF920F931F9352
:1024C000CF93DF93EC018D81811102C080E077C052
:1024D0000B891C892D893E890417150726073707A4
:1024E000A8F36A017B01823029F4CA86DB86EC8678
:1024F000FD860DC0C114D104E104F10451F41E8223
:102500001F82188619861A861B861C861D8681E006
:1025100056C08A849B84AC84BD84EB8DFC8D25855C
:1025200030E0275F3F4FB501A401415051096109D7
:102530007109022E04C076956795579547950A94C0
:10254000D2F7D701C6010197A109B10904C0B69518
:10255000A795979587952A95D2F784179507A6078B
:10256000B70720F089288A288B2849F44F89588D8D
:10257000698D7A8D4E835F836887798704C0841B59
:10258000950BA60BB70B4C015D018E010A5F1F4F27
:1025900081149104A104B10409F4A7CF4E815F8195
:1025A0006885798598018B8D9C8D0E94691191E0D9
:1025B000891A9108A108B1088111EACF87CFDF916C
:1025C000CF911F910F91FF90EF90DF90CF90BF9030
:1025D000AF909F908F9008950F931F93CF93DF93A9
:1025E000FC01818D928D0097B9F0EF010E945A197C
:1025F0008C010F3F8FEF180791F0898D9A8DFC01A8
:102600004285538564857585415051096109710979
:102610000E945612C80105C080E090E002C08FEF12
:102620009FEFDF91CF911F910F9108953F924F92AD
:102630005F926F927F928F929F92AF92BF92CF9252
:10264000DF92EF92FF920F931F93CF93DF93CDB75B
:10265000DEB72C970FB6F894DEBF0FBECDBF5C017E
:10266000DC015B968D909C905C971696CD90DD90EA
:10267000ED90FC901997C114D104E104F10439F0F4
:10268000BFEFCB1ADB0AEB0AFB0A312C07C0F401BF
:10269000C080D180E280F38033243394F4018185BB
:1026A0009285A385B4859C01AD012F5F3F4F4F4FAD
:1026B0005F4F29873A874B875C87260137011D8248
:1026C0001E821F821886F40181859285A385B485B8
:1026D0002D813E814F815885281739074A075B07AE
:1026E00008F063C089859A85AB85BC858C159D05EE
:1026F000AE05BF0550F482E0C82ED12CE12CF12CA0
:1027000092E0492E512C612C712C9E012F5F3F4F7E
:10271000B701A601C4010E946911882309F445C0CC
:1027200089819A81AB81BC81892B8A2B8B2B41F0CB
:10273000260137019FEF491A590A690A790A05C02B
:10274000C414D504E604F70491F02D813E814F8135
:1027500058852F5F3F4F4F4F5F4F2D833E834F83F1
:1027600058873FEFC31AD30AE30AF30AACCF0FEF3F
:102770001FEF2FEF3FE0B301A201C4010E94C91077
:10278000882399F0D50116964D915D916D917C91BC
:102790001997411551056105710549F093018201B1
:1027A000C4010E94C910811102C080E02AC0D50175
:1027B00016964D925D926D927C921997332051F04E
:1027C000D301C2010196A11DB11DF4018083918343
:1027D000A283B383F5018789908DA18DB28D892B5A
:1027E0008A2B8B2B69F4D50157964D925D926D9291
:1027F0007C925A9714968C911497806814968C93B7
:1028000081E02C960FB6F894DEBF0FBECDBFDF91EE
:10281000CF911F910F91FF90EF90DF90CF90BF90DD
:10282000AF909F908F907F906F905F904F903F9070
:1028300008952F923F924F925F926F927F928F9264
:102840009F92AF92BF92CF92DF92EF92FF920F933F
:102850001F93CF93DF93EC016B014A018D818111AE
:1028600003C08FEF9FEFD7C08C8180FFFACF4B88DA
:102870005C886D887E884A855B856C857D85C40112
:10288000A0E0B0E093018201041B150B260B370B6F
:10289000081719072A073B0718F44201841A950AFA
:1028A00054011E0126E0220E311CA114B10409F4CA
:1028B0007EC04A855B856C857D852A0181E0582232
:1028C000ED818A019B0189E036952795179507953B
:1028D0008A95D1F78B8D9C8DE23061F4FC01828D5D
:1028E000938DA48DB58DBC01CD01600F711F821F2A
:1028F000931F3FC0FC0174807A94702241145104EC
:10290000C9F4711017C0452B462B472B49F48F890A
:10291000988DA98DBA8D8E839F83A887B9870AC0A9
:102920004E815F816885798591010E9469118823B4
:1029300009F497CFEB8DFC8D8E819F81A885B98599
:102940000297A109B109058404C0880F991FAA1F25
:10295000BB1F0A94D2F74685578560897189840F19
:10296000951FA61FB71FBC01CD01670D711D811DED
:10297000911D20E032E02419350935012A153B0567
:1029800008F439012C8126FD04C06114F2E07F06B1
:1029900081F4009106011091070120910801309106
:1029A00009016017710782079307B1F402C0C401DF
:1029B00032C040E00E948010882309F452CFF20117
:1029C000EE55FD4FD601CF01860D971DE817F9078B
:1029D00089F021912D93FACF760183019201AB0109
:1029E000BC0180913202909133020E94460F8823ED
:1029F00009F437CFC60CD71C8A859B85AC85BD856D
:102A0000860D971DA11DB11D8A879B87AC87BD8749
:102A1000A618B7084ACFDF91CF911F910F91FF9071
:102A2000EF90DF90CF90BF90AF909F908F907F906E
:102A30006F905F904F903F902F900895CF93DF93CA
:102A4000EC018D818823A1F18C8187FF2DC06E85DB
:102A50007F858889998941E00E948010882341F10F
:102A6000EA8980E2E89FF0011124DF01AE55BD4FF5
:102A70001097F1F08D81823050F44B895C896D891B
:102A80007E895C964D935D936D937C935F978F8960
:102A9000988DA98DBA8DEE55FD4F938F828FB58B92
:102AA000A48B8C818F778C83DF91CF910C94451010
:102AB00080E0DF91CF910895CF93DF93EC010E94E6
:102AC0001E15882311F01D8281E0DF91CF910895BA
:102AD000FC01818D928D009711F00C941E150895C4
:102AE0002F923F924F925F926F927F928F929F921E
:102AF000AF92BF92CF92DF92EF92FF920F931F930C
:102B0000CF93DF9300D000D0CDB7DEB78C015B014F
:102B10001A01DC0115968C9115978130C9F4149631
:102B20008C9181FF15C082FF1BC0F8014389548935
:102B30006589768982859385A485B58584179507EF
:102B4000A607B70769F0C8010E945612811108C094
:102B500081E090E0F8019383828380E090E039C1C6
:102B6000610183C0D8015B968D919C915C97FC01BB
:102B7000248121502A013B0139E0769467945794CF
:102B800047943A95D1F7722E74207A01F1E0FF2232
:102B9000772009F476C080E092E08E199F09460103
:102BA0008C159D0508F44C01D8015B962D913C9144
:102BB0005C9716968D919D910D90BC91A02D0297DA
:102BC000A109B109F901058404C0880F991FAA1F42
:102BD000BB1F0A94D2F74685578560897189840F97
:102BE000951FA61FB71F9C01AD01270D311D411D6B
:102BF000511D29013A01811432E0930609F088C081
:102C00008091060190910701A0910801B0910901FE
:102C100084159505A605B70559F48FEF9FEFDC01E4
:102C20008093060190930701A0930801B0930901D6
:102C30009501B301A20180913202909133020E946A
:102C4000DA0F882309F484CF9EEFB91AC818D9087F
:102C5000F80182859385A485B585880D991DA11DF0
:102C6000B11D82879387A487B587D8011A964D91A5
:102C70005D916D917C911D97C114D10409F072CFC3
:102C800087C0E114F10409F086CF16964D915D914D
:102C90006D917C911997411551056105710559F4A4
:102CA00057968D919D910D90BC91A02D0097A105F7
:102CB000B10541F521C09E012F5F3F4F0E94691170
:102CC000882309F44BCF89819A81AB81BC81F801BB
:102CD000238D348DF9012789203129F048EF5FEFEA
:102CE0006FEF7FE004C048EF5FEF60E070E08417B3
:102CF0009507A607B70730F0C8010E941613811187
:102D00004ACF26CFF80186839783A087B18743CF28
:102D1000E114F10429F5D8011A964D915D916D9158
:102D20007C911D9753968D919D910D90BC91A02DF6
:102D3000481759076A077B0798F00E9445108823B7
:102D400009F406CF409206015092070160920801F3
:102D5000709209018091A10281608093A10208C054
:102D600041E0C301B2010E948010882309F4F0CE33
:102D7000D501F701EE55FD4FCF01880D991DE817DC
:102D8000F90719F02D912193FACFA80CB91C5ECF49
:102D900053968D919D910D90BC91A02D8417950710
:102DA000A607B70740F4F801438B548B658B768BED
:102DB000848180688483D80114968C9183FD02C03D
:102DC000C10107C0C8010E941E15882309F4C0CEA6
:102DD000F7CF0F900F900F900F90DF91CF911F9131
:102DE0000F91FF90EF90DF90CF90BF90AF909F90AA
:102DF0008F907F906F905F904F903F902F900895AD
:102E0000CF93DF931F92CDB7DEB7698341E050E0E7
:102E1000BE016F5F7F4F0E9470150F90DF91CF91C1
:102E20000895FC01DB0112968D919C911397938379
:102E3000828389E391E09183808314968C91149727
:102E4000848315968C911597858316964D915D9187
:102E50006D917C91199746835783608771871A9685
:102E60004D915D916D917C911D9742875387648749
:102E700075871E964D915D916D917C915197468716
:102E80005787608B718B52968C915297828B539699
:102E90004D915D916D917C915697438B548B658BD1
:102EA000768B57964D915D916D917C915A97478B9A
:102EB000508F618F728F5B968D919C915C97948FF0
:102EC000838F0895CF93DF931F92CDB7DEB76983C9
:102ED000DC01ED91FC910280F381E02D41E050E0B6
:102EE000BE016F5F7F4F09950F90DF91CF910895DD
:102EF00085ED8093BC008091BC0084FDFCCF1092D6
:102F00007C02089540911D05262F30E0240F311DCD
:102F100021323105DCF420917C022430C9F4FC011B
:102F200080E090E0861758F430911D052191DC0176
:102F3000A550BB4FA30FB11D2C930196F3CF8091E9
:102F40001D05680F60931D0580E0089581E00895D8
:102F500082E008950895E091350280913402E817E7
:102F600030F4F0E0EA5CFD4F808190E008958FEF4F
:102F70009FEF08959091350280913402981750F494
:102F8000E92FF0E0EA5CFD4F208130E09F5F9093F5
:102F9000350202C02FEF3FEFC9010895809134023E
:102FA00090E020913502821B91090895CF92DF9223
:102FB000EF92FF920F931F93CF93DF937C01262F05
:102FC000972F8A0180917D02882391F0C62FD72FF9
:102FD0006E01C40ED51ECC15DD0571F06991D701C7
:102FE000ED91FC910190F081E02DC7010995F3CF9F
:102FF000642F822F0E948217C801DF91CF911F9109
:103000000F91FF90EF90DF90CF900895CF93DF93D3
:103010001F92CDB7DEB7698320917D022223D1F0C4
:103020002091A002203240F021E030E0FC01338307
:10303000228380E090E015C080917E02E82FF0E0CE
:10304000E158FD4F998190838F5F80937E0280933A
:10305000A00205C061E0CE0101960E94821781E0C6
:1030600090E00F90DF91CF9108951092AD04809180
:10307000AC048F5F833018F48093AC0402C01092CC
:10308000AC0481E080930A010895CF93DF93EC01B3
:10309000898D9A8D009739F481E090E09B838A8333
:1030A00080E090E00BC0FC01138212820E94701538
:1030B000E98DFA8D22813381232B71F7DF91CF9136
:1030C00008957F928F929F92AF92BF92CF92DF929C
:1030D000EF92FF920F931F93CF93DF9300D000D016
:1030E000CDB7DEB78BE40E94CC0685FD9CC08E0177
:1030F0000F5F1F4F64E0F62EF00E87ED0E94CC06A6
:10310000F80181938F01FE12F8CFF9807A800B814C
:103110001C818BE40E94CC0685FF04C06FEF8BE01E
:103120000E948506812F90E0C397853B934008F06D
:1031300071C020E1F29EC0011124272D30E044E04F
:10314000359527954A95E1F7282B392BC901A0E041
:10315000B0E09C01AD012E51310941095109A0EFA8
:10316000B0E00E94A62452E8852E5FE0952EA12CA7
:10317000B12CA50194010E94872469017A01872D51
:103180008F70402F50E0582B60E070E09A01AB0147
:103190002E51310941095109A0E4B1E00E94A62451
:1031A000A50194010E94872449015A018BE192E014
:1031B0000E94F4098FEFC816D806E806F80631F425
:1031C0006FEF7FEFCB010E94F80205C04AE0C70114
:1031D000B6010E94B70280E292E00E94F409B7FEB5
:1031E00005C0C501B4010E94F80205C04AE0C5014E
:1031F000B4010E94B70287E292E00E94F409612FB5
:1032000070E080E090E04AE00E94B7028AE092E03D
:103210000E94F4098091AE04813029F00E948E044E
:1032200081E08093AE040F900F900F900F90DF918C
:10323000CF911F910F91FF90EF90DF90CF90BF90B3
:10324000AF909F908F907F900895EF92FF920F9391
:103250001F93CF93DF93EC017B018A011B821A82BB
:1032600088EE93E0A0E0B0E08C839D83AE83BF83C3
:1032700087E191E0998388838DE190E00E940725A2
:103280009A8F898F009779F02DE1F701DC01019089
:103290000D922A95E1F74CE050E0B801CE010C9672
:1032A0000E946326188EDF91CF911F910F91FF909E
:1032B000EF900895CF93DF931F92CDB7DEB741E033
:1032C00050E0BE016F5F7F4F0E941914019719F4FF
:1032D000898190E002C08FEF9FEF0F90DF91CF9137
:1032E0000895CF93CFB7F89480914205811127C0FC
:1032F000E8ECF0E08491EAEAF0E09491E82FF0E065
:10330000EE0FFF1FE859FF4FA591B491EC91E9230F
:1033100021F461E08AE00E94550661E08AE00E94A3
:10332000D4078CB580618CBD8CB580648CBD61E0A8
:103330008DE00E94D40761E08BE00E94D407809169
:1033400042058F5F80934205CFBFCF9108951F92B2
:103350000F920FB60F9211242F933F934F935F93C9
:103360006F937F938F939F93AF93BF93EF93FF934D
:103370008091B900887F803609F49CC068F5883256
:1033800009F45BC090F4803109F454C038F4882308
:1033900009F4F6C0883009F44DC0F6C0883109F44C
:1033A0004CC0803209F45DC0EFC0803409F468C0BD
:1033B00048F4803309F455C0883309F0E5C08093A0
:1033C0007A02D8C0803509F44FC0883509F45DC051
:1033D000883409F0D9C0D6C0883909F4C7C0A8F428
:1033E000883709F467C038F4883609F463C0803739
:1033F00009F460C0C9C0883809F4B8C0803909F43C
:103400005FC0803809F0C0C05BC0803B09F486C053
:1034100038F4803A09F466C0883A09F47FC0B4C031
:10342000803C09F4A7C0883C09F4A4C0883B09F497
:103430008AC0AAC08091570210C0909179028091F1
:103440007802981770F5E091790281E08E0F8093F1
:103450007902F0E0E85AFD4F80818093BB0085EC53
:1034600086C080937A028EC0E091790281E08E0F4F
:10347000809379028091BB00F0E0E85AFD4F808391
:1034800090917902809178026EC0E091790281E09A
:103490008E0F809379028091BB00F0E0E85AFD4FD7
:1034A000808380917B0281116DC081E08093560200
:1034B00084EA61C083E080937C0210924105CFCF03
:1034C00080914105803208F051C0E091410581E0D2
:1034D0008E0F809341058091BB00F0E0EF5DFA4FC5
:1034E0008083BDCF85EC8093BC0010927C028091DC
:1034F0004105803230F4E0914105F0E0EF5DFA4F94
:1035000010826091410570E0E0911F05F091200567
:1035100081E295E009951092410536C084E08093E0
:103520007C0210921E0510921D05E0911B05F09182
:103530001C05099580911D05811105C081E08093CE
:103540001D051092FB04E0911E0581E08E0F809313
:103550001E05F0E0E550FB4F80818093BB00909109
:103560001E0580911D05981708F479CF85E8809392
:10357000BC000AC085EC8093BC0010927C0204C0A1
:1035800010927A020E947817FF91EF91BF91AF914C
:103590009F918F917F916F915F914F913F912F916B
:1035A0000F900FBE0F901F90189508958EBD0000CC
:1035B0000DB407FEFDCF8EB508958CBD9DBD089559
:1035C0001F920F920FB60F9211242F933F938F9358
:1035D0009F93EF93FF938091F9049091FA041092D6
:1035E000FA041092F9042091590630915A06821774
:1035F0009307A0F0E091F704F091F804EE0FFF1F9D
:10360000E155FB4F918380832091F7043091F804BA
:103610002F5F3F4F3093F8042093F7042091570613
:10362000309158068217930720F01092F8041092F8
:10363000F704FF91EF919F918F913F912F910F9000
:103640000FBE0F901F9018951F920F920FB60F92FA
:1036500011242F938F939F931092B2008091F904BD
:103660009091FA0401969093FA048093F904809162
:10367000F9049091FA04843F914030F084EF91E096
:103680009093FA048093F9049F918F912F910F905A
:103690000FBE0F901F9018950F931F9370E000E0DE
:1036A00010E024E130E044E150E090E00E94C409E1
:1036B0001F910F9108950F931F93CF93DF93DC0118
:1036C0005D96ED91FC915E97309781F0EC01ABA196
:1036D000BCA114960D911C91159715969C938E93F1
:1036E00014970995EBA1FCA115830483DF91CF9179
:1036F0001F910F910895E0914B06F0914C06908137
:1037000080915006892B80838091400687FD0C9420
:10371000D51A08959091400697FF05C08EBD0DB44F
:1037200007FEFDCF089528E030E040E8E091430631
:10373000F091440690914D06542F582319F0508172
:10374000952B03C05081909595239083E091470677
:10375000F0914806508190914F0690959523908363
:10376000E0914706F0914806508190914F06952BC5
:103770009083469521503109C9F60895CF93DF9380
:10378000C9E3D6E0E889F9892081988D9095922344
:1037900090830E948A1BE889F9899081888D892B02
:1037A0008083DF91CF9108958F929F92AF92BF92C5
:1037B000CF92DF92EF92FF920F931F9369018A01DC
:1037C00001501109080F191F20E030E04C01A12C15
:1037D000B12C540199248824802A912AA22AB32A40
:1037E00081E0C81AD108C60ED71EC601A0E0B0E01D
:1037F0006B01E12CF12C7601DD24CC24C82AD92AD6
:10380000EA2AFB2A8AE20E94BE1B209140068B2DE9
:103810009927AA27BB2727FF18C08EBD0DB407FE26
:10382000FDCFC501AA27BB278EBD0DB407FEFDCF76
:10383000BB27AB2D9A2D892D8EBD0DB407FEFDCF74
:103840008EBC0DB407FEFDCF0BC00E948A1B8A2DD3
:103850000E948A1B892D0E948A1B882D0E948A1B28
:103860008BE20E94BE1B209140068F2D9927AA272C
:10387000BB2727FF18C08EBD0DB407FEFDCFC701C3
:10388000AA27BB278EBD0DB407FEFDCFBB27AF2DEA
:103890009E2D8D2D8EBD0DB407FEFDCFCEBC0DB47B
:1038A00007FEFDCF0BC00E948A1B8E2D0E948A1B33
:1038B0008D2D0E948A1B8C2D0E948A1B8CE21F91E9
:1038C0000F91FF90EF90DF90CF90BF90AF909F90BF
:1038D0008F900C94BE1BAF92BF92CF92DF92EF926B
:1038E000FF920F931F93CF93DF937C01FB0169013C
:1038F00020910B0130910C016217730708F05DC035
:10390000EC01C40FD51FBE0161507109DF01AC0D80
:10391000BD1DCD01019777FD50C097FD4EC0F7FE4C
:1039200003C0AE01E12CF12CF7FF03C06D01E0E014
:10393000F0E06034714024F040E451E04E195F093A
:103940008217930718F06901CE1ADF0A9A01D6018F
:103950000E94F2245B01D82FC92F9601BF01C70135
:103960000E94D41B6501ED2EFC2E8091400687FF3E
:1039700013C0C114D104E104F104F9F01EBD0DB46B
:1039800007FEFDCF0EBD0DB407FEFDCF81E0C81AC6
:10399000D108E108F108EDCFC114D104E104F1042C
:1039A00061F0812F0E948A1B802F0E948A1BA1E058
:1039B000CA1AD108E108F108EFCFDF91CF911F912A
:1039C0000F91FF90EF90DF90CF90BF90AF90089550
:1039D0000F931F938091400687FF22C00091390604
:1039E00010913A0620913B0630913C0690E040E071
:1039F00052E16AE770E0041715072607370740F41D
:103A000076956795579547959F5F9630A1F797E014
:103A100081E09827892F806A869591700E94DD1A2F
:103A2000E0914B06F0914C06908180915006809574
:103A3000892380831F910F910895789484B58260C3
:103A400084BD84B5816084BD85B5826085BD85B542
:103A5000816085BD80916E00816080936E001092C0
:103A6000810080918100826080938100809181003B
:103A700081608093810080918000816080938000CC
:103A80008091B10084608093B1008091B00081602A
:103A90008093B00080917A00846080937A00809156
:103AA0007A00826080937A0080917A0081608093AE
:103AB0007A0080917A00806880937A001092C10029
:103AC000E0915305F091540582E08083E0914F0529
:103AD000F09150051082E0915105F091520580E17E
:103AE000808310925B05E0915705F091580586E0C0
:103AF0008083E0915505F091560580818061808337
:103B0000E0915505F0915605808188608083E091B1
:103B10005505F0915605808180688083E0915505B8
:103B2000F091560580818F7D808383E891E00E942B
:103B3000060A1092ED051092EB051092E80510921E
:103B4000E70584E08093E6050E94320EEB0161E018
:103B50008091E6050E94D40761E08091E6050E940D
:103B600055060E94711982E58093E0051092E105E7
:103B70008091E0059091E1050E94DD1A1AE08FEF37
:103B80000E94D61A1150D9F70E94D51A82EE95E0FC
:103B90000E94880E20E030E0A90160E082EE95E00E
:103BA0000E94E40E182F8093EC05813049F00E94AA
:103BB000320E6C1B7D0B613D774060F381E054C099
:103BC0002AEA31E040E050E068E082EE95E00E94B1
:103BD000E40E82FF03C01093ED050EC014E00E94B6
:103BE000AC0E8093EC051150D1F78A3A11F082E0C7
:103BF0003BC082E08093ED058091ED05823021F09D
:103C0000C12CD12C760105C0C12CD12CE12C30E483
:103C1000F32E20E030E0A90167E382EE95E00E94F8
:103C2000E40EA701960169E282EE95E00E94E40E9F
:103C30008093EC05882349F00E94320E6C1B7D0BAB
:103C4000613D774030F388E00FC08091ED05823010
:103C500001F520E030E0A9016AE382EE95E00E94E0
:103C6000E40E882341F086E08093E70582EE95E03C
:103C70000E949E0E91C00E94AC0E807C803C19F484
:103C800083E08093ED050E94AC0E0E94AC0E0E9472
:103C9000AC0E82EE95E00E949E0E80E58093E005DA
:103CA0001092E10581E00E94CE04882329F08091E2
:103CB0001106882341F070C080E00E94CE04882362
:103CC00009F46AC0F4CF80910506803109F582E0DD
:103CD0008093110610922306109224061092250656
:103CE000109226068091060690910706A0E0B0E0AB
:103CF00025E0880F991FAA1FBB1F2A95D1F7809333
:103D00001F0690932006A0932106B09322061EC0A2
:103D1000803209F041C083E080931106409108068B
:103D20005091090660910A0670910B064093230694
:103D30005093240660932506709326062FE136E003
:103D40008EEE95E00E94ED11882331F18EEE95E024
:103D5000909328068093270681E0809310061092A6
:103D60001206109213061092140610921506109265
:103D70001606109217061092180610921906109245
:103D80001A0610921B0610921C0610921D06109225
:103D90001E0681E991E002C088E991E00E94060ACE
:103DA00080E092E1AAE7B0E08093390690933A066A
:103DB000A0933B06B0933C0661E080913E060E94D2
:103DC000D40760E080913E060E94550661E0809134
:103DD0003D060E94D40761E080913D060E94550691
:103DE0008091400687FD1BC061E0809141060E94E2
:103DF000D40760E0809141060E94550661E0809101
:103E000040060E94D40761E0809140060E9455065A
:103E10008091420687FD03C060E00E94D407809134
:103E2000400687FD0E94711980913F0687FD24C0DE
:103E300061E00E94D40761E080913F060E94550630
:103E400064E670E080E090E00E94100860E08091FD
:103E50003F060E94550664E670E080E090E00E9414
:103E6000100861E080913F060E94550668EC70E002
:103E700080E090E00E9410080E94E81C8FEE0E94F3
:103E8000BE1B83E00E948A1B80E80E948A1B82E09E
:103E90000E948A1B8FEC0E94BE1B80E00E948A1B3E
:103EA00081EC0E948A1B80E30E948A1B8DEE0E9497
:103EB000BE1B84E60E948A1B83E00E948A1B82E16B
:103EC0000E948A1B81E80E948A1B88EE0E94BE1B0A
:103ED00085E80E948A1B80E00E948A1B88E70E9476
:103EE0008A1B8BEC0E94BE1B89E30E948A1B8CE21A
:103EF0000E948A1B80E00E948A1B84E30E948A1B26
:103F000082E00E948A1B87EF0E94BE1B80E20E9413
:103F10008A1B8AEE0E94BE1B80E00E948A1B80E002
:103F20000E948A1B80EC0E94BE1B83E20E948A1BB7
:103F300081EC0E94BE1B80E10E948A1B85EC0E94DE
:103F4000BE1B8EE30E948A1B88E20E948A1B87ECBC
:103F50000E94BE1B86E80E948A1B86E30E94BE1B4D
:103F600088E40E948A1B87E30E94BE1B8091400662
:103F700087FF09C01EBC0DB407FEFDCF1EBC0DB4EB
:103F800007FEFDCF06C080E00E948A1B80E00E94F1
:103F90008A1B8AE30E94BE1B85E50E948A1B81EB77
:103FA0000E94BE1B80E00E948A1B88E10E948A1B3F
:103FB00086EB0E94BE1B88E00E948A1B82E80E945A
:103FC0008A1B87E20E948A1B82EF0E94BE1B80E050
:103FD0000E948A1B86E20E94BE1B81E00E948A1B0F
:103FE00080EE0E94BE1B8FE00E948A1B81E30E942C
:103FF0008A1B8BE20E948A1B8CE00E948A1B8EE047
:104000000E948A1B88E00E948A1B8EE40E948A1B01
:1040100081EF0E948A1B87E30E948A1B87E00E942F
:104020008A1B80E10E948A1B83E00E948A1B8EE02B
:104030000E948A1B89E00E948A1B80E00E948A1BE2
:1040400081EE0E94BE1B80E00E948A1B8EE00E94CF
:104050008A1B84E10E948A1B83E00E948A1B81E103
:104060000E948A1B87E00E948A1B81E30E948A1BB0
:1040700081EC0E948A1B88E40E948A1B88E00E94CF
:104080008A1B8FE00E948A1B8CE00E948A1B81E3BE
:104090000E948A1B86E30E948A1B8FE00E948A1B73
:1040A00081E10E94BE1B68E770E080E090E00E9422
:1040B000100889E20E94BE1B68E770E080E090E093
:1040C0000E9410080E947B1BC1E0C093020180EF98
:1040D00090E0909301018093000180E491E090933F
:1040E0000C0180930B010E94E81C86E30E94BE1B1A
:1040F00088E20E948A1B0E947B1B80E090E00E9465
:10410000270490916C079F3F59F180916F0761E000
:104110008F3FA1F4892F0E94D40761E080916C0742
:104120000E9455060E94711981E58093370610920E
:10413000380610927207109271073BC00E94D40794
:1041400061E080916C070E94D40761E080916D0767
:104150000E94D40760E080916E070E94D40729C0B6
:10416000109235021092340210927E021092A00238
:1041700010927C02C0937B021092560261E082E1B1
:104180000E94550661E083E10E9455068091B900C6
:104190008E7F8093B9008091B9008D7F8093B900A4
:1041A00088E48093B80085E48093BC0081E4809328
:1041B00070070E94C2078131984061F462E083E099
:1041C0000E9485066AE070E080E090E00E9410089E
:1041D000C0E01BC080916C078F3F09F450C08091F4
:1041E0006F078F3F09F04BC085E58093370610922B
:1041F000380684E090E090937207809371070E94E4
:10420000C20781319840D9F5D9CF8C2F0E94CC06B6
:10421000CF5FC134D1F760E084E00E94850661E0A1
:1042200080E40E94850661E08AE00E94850660E6DF
:1042300080E20E94850662E081E20E94850664EACF
:1042400081E40E94850666E086E50E94850661E0BD
:104250008AE40E94850661E08BE40E94850660E0A6
:104260008BE40E94850661E088E50E9485066FEF79
:104270008BE00E94850665E089E00E948506109229
:1042800076071092750710927807109277071092B0
:104290007A071092790786EA96E02091C906309154
:1042A000CA0625573740B1F025E737E03093CA06F4
:1042B0002093C90690937607809375071092C606DF
:1042C0001092C5061092C8061092C7069093780700
:1042D0008093770781E896E02091A4063091A506A7
:1042E0002557374049F125E737E03093A50620935D
:1042F000A4062091750730917607232B49F49093FB
:104300007607809375071092A1061092A0060AC046
:10431000E0917707F0917807F093A106E093A0066B
:1043200092A381A31092A3061092A20681E896E0C0
:1043300090937807809377078CE596E020917F062D
:10434000309180062557374049F125E737E0309313
:10435000800620937F062091750730917607232BE6
:1043600049F4909376078093750710927C0610921B
:104370007B060AC0E0917707F0917807F0937C06FE
:10438000E0937B0692A381A310927E0610927D0695
:104390008CE596E0909378078093770783E080938D
:1043A000050142EA51E060E070E080E090E00E94A8
:1043B0001F0360ED77E080E090E00E94100880E04D
:1043C00090E00E9427040E94370460ED77E080E0CF
:1043D00090E00E94100880E090E00E9427040E9474
:1043E0008E0460ED77E080E090E00E9410088BEC96
:1043F00096E042E05BE0580F20E030E0FC01E20F85
:10440000F31F4083255F3F4F23363105B9F70196EF
:104410005813F2CF80E090E021E0FC01E553F94F22
:10442000248722A320AFE25BFF4F208302968A30CD
:10443000910599F71092CB061092D6061092CC06F1
:1044400010922D0710922C071092220780E090E026
:104450000E94270440E050E060E070E081EB91E0D2
:104460000E94230B44E150E060E070E08FEB91E0AC
:104470000E94230B809175079091760790937A079D
:1044800080937907E0917907F0917A07309791F35B
:10449000C1A1D2A1808180FF6BC085859685A7854B
:1044A000B089892B8A2B8B2B69F4908180818E7F38
:1044B000808380818D7F808390FF5AC0CF010E94CE
:1044C0005B1B56C00E94320EE0917907F0917A078B
:1044D00081809280A380B4800185128523853485F4
:1044E000C580D680E780F084DC01CB01801B910B76
:1044F000A20BB30B8C159D05AE05BF05C8F18585D4
:104500009685A785B089181619061A061B065CF44D
:1045100085859685A785B0890197A109B109858709
:104520009687A787B08B85899689A789B08D0196D4
:10453000A11DB11D858B968BA78BB08F8581968130
:10454000A781B085C184D284E384F4848C0D9D1D41
:10455000AE1DBF1D81879287A387B487858296820F
:10456000A782B086018CF28DE02D309709F0099575
:10457000D0937A07C093790785CF8CE596E00E94A7
:104580000D0181E896E00E940D0186EA96E00C9408
:104590000D01CF92DF92EF92FF92CF93DF93E3E48E
:1045A000F5E01382128248EE53E060E070E044834D
:1045B00055836683778389E291E09183808385ECDC
:1045C00090E09587848784EC90E09787868780ECDD
:1045D00090E0918B808B81EC90E0938B828B82ECCE
:1045E00090E0958B848B86EC90E0978B868B118E78
:1045F000128E138E148EE0EEF5E080E5808311823A
:10460000E2EEF5E0158216821186138692E0C92E3D
:10461000D12CE12CF12CC486D586E686F78613A230
:1046200015A614A629E331E033A722A717A6EBE2CB
:10463000F6E013821282448355836683778321E4F4
:1046400031E031832083E7E3F6E080831182A9E340
:10465000B6E08AE014968C93149789E015968C93B3
:1046600015978FEF16968C93169717968C9317972E
:1046700018968C93189719968C9319971D921D92E2
:104680001D921C921397E8ECF0E0E491F0E0EE0F3D
:10469000FF1FEC54FF4F2591349153963C932E937A
:1046A0005297EAEAF0E0E4915796EC935797E7ECDB
:1046B000F0E0E491F0E0EE0FFF1FEC54FF4F259186
:1046C000349151963C932E935097E9EAF0E0E491AF
:1046D0005896EC9358971F961C921E921E975696CA
:1046E0001C9256971B961C921E921A9754961C92D7
:1046F00054971D961C921E921C9755961C92E5E7A6
:10470000F7E011821082138212821582148291E0E6
:1047100090935B062CE330E030935A0620935906C1
:104720002AEF30E03093580620935706ECE6F7E086
:1047300028E020838383828381839093560684E1DB
:1047400090E090935506809354069093530680937F
:104750005206EBECF6E080EADF011D928A95E9F75C
:10476000C6EAD6E088818E7F888388818D7F8883A2
:1047700019861A861B861C861D821E821F82188639
:1047800019821A821B821C8218A21F8E1AA219A2D9
:104790001CA21BA21D8A1E8A1F8A188E85E990E022
:1047A0009A8F898F1C8E1B8E1E8E1D8E82E390E049
:1047B000A0E0B0E089839A83AB83BC8389819A812E
:1047C000AB81BC818D839E83AF83B8870E94320EFC
:1047D00069877A878B879C87CC24CA94DC2C7601E6
:1047E000CD86DE86EF86F88AC98ADA8AEB8AFC8A69
:1047F000C1E8D6E088818E7F888388818D7F888319
:1048000019861A861B861C861D821E821F821886A8
:1048100019821A821B821C8218A21F8E1AA219A248
:104820001CA21BA21D8A1E8A1F8A188E85E398E18E
:104830009A8F898F1C8E1B8E1E8E1D8E88EC90E0A9
:10484000A0E0B0E089839A83AB83BC8389819A819D
:10485000AB81BC818D839E83AF83B8870E94320E6B
:1048600069877A878B879C87CD86DE86EF86F88A74
:10487000C98ADA8AEB8AFC8ACCE5D6E088818E7F09
:10488000888388818D7F888319861A861B861C867B
:104890001D821E821F82188619821A821B821C8228
:1048A00018A21F8E1AA219A21CA21BA21D8A1E8A60
:1048B0001F8A188E81E698E19A8F898F1C8E1B8E35
:1048C0001E8E1D8E81E090E0A0E0B0E089839A8387
:1048D000AB83BC8389819A81AB81BC818D839E83AC
:1048E000AF83B8870E94320E69877A878B879C874F
:1048F000CD86DE86EF86F88AC98ADA8AEB8AFC8A58
:10490000DF91CF91FF90EF90DF90CF900895052E2B
:1049100097FB1EF400940E949E2457FD07D00E942E
:10492000B12407FC03D04EF40C949E24509540957E
:10493000309521953F4F4F4F5F4F0895909580954B
:10494000709561957F4F8F4F9F4F08950E94D3249C
:10495000A59F900DB49F900DA49F800D911D1124D3
:104960000895A1E21A2EAA1BBB1BFD010DC0AA1FB0
:10497000BB1FEE1FFF1FA217B307E407F50720F0C8
:10498000A21BB30BE40BF50B661F771F881F991F43
:104990001A9469F760957095809590959B01AC018C
:1049A000BD01CF010895A29FB001B39FC001A39F95
:1049B000700D811D1124911DB29F700D811D112458
:1049C000911D0895DB018F939F930E94A624BF91B0
:1049D000AF91A29F800D911DA39F900DB29F900D4E
:1049E000112408950E94D324332312F48A1B9B0BB5
:1049F0000C94FC240E94D324B7FF0895821B930BD0
:104A00000895EE0FFF1F0590F491E02D0994CF93C8
:104A1000DF938230910510F482E090E0E0917D0711
:104A2000F0917E0720E030E0C0E0D0E0309711F157
:104A30004081518148175907C0F04817590761F460
:104A400082819381209719F09B838A832BC0909356
:104A50007E0780937D0726C02115310519F0421786
:104A6000530718F49A01BE01DF01EF010280F381C0
:104A7000E02DDCCF2115310509F1281B390B24303D
:104A8000310590F412968D919C91139761157105E3
:104A900021F0FB019383828304C090937E0780936F
:104AA0007D07FD01329644C0FD01E20FF31F8193A3
:104AB0009193225031092D933C933AC020917B076A
:104AC00030917C07232B41F420910F01309110018C
:104AD00030937C0720937B0720910D0130910E01CC
:104AE0002115310541F42DB73EB740911101509188
:104AF0001201241B350BE0917B07F0917C07E21734
:104B0000F307A0F42E1B3F0B2817390778F0AC01F0
:104B10004E5F5F4F2417350748F04E0F5F1F5093CD
:104B20007C0740937B078193919302C0E0E0F0E023
:104B3000CF01DF91CF9108950F931F93CF93DF9310
:104B4000009709F48CC0FC01329713821282009105
:104B50007D0710917E070115110581F420813181B7
:104B6000820F931F20917B0730917C07281739070C
:104B700079F5F0937C07E0937B0771C0D80140E0A2
:104B800050E0AE17BF0750F412962D913C91139749
:104B9000AD012115310509F1D901F3CF9D01DA01EC
:104BA0003383228360817181860F971F8217930759
:104BB00069F4EC0128813981260F371F2E5F3F4FA2
:104BC000318320838A819B8193838283452B29F4BF
:104BD000F0937E07E0937D0742C01396FC93EE931B
:104BE0001297ED01499159919E01240F351FE2174B
:104BF000F30771F480819181840F951F02961196BD
:104C00009C938E938281938113969C938E9312979B
:104C1000E0E0F0E0D80112968D919C9113970097F7
:104C200019F0F8018C01F6CF8D919C9198012E5FBF
:104C30003F4F820F931F20917B0730917C072817ED
:104C4000390769F4309729F410927E0710927D0796
:104C500002C01382128210937C0700937B07DF91BE
:104C6000CF911F910F91089581E090E0F8940C94FA
:104C70004A29FB01DC0104C08D910190801921F4C7
:104C800041505040C8F7881B990B0895FB01DC0187
:104C90000D900020E9F7119701900D920020E1F7A7
:104CA0000895FC018191861721F08823D9F799276F
:104CB00008953197CF010895FB01DC0101900D9219
:104CC0000020E1F70895FB01DC014150504048F01D
:104CD00001900D920020C9F701C01D924150504033
:104CE000E0F70895AEE0B0E0E8E7F6E20C942129A1
:104CF0000D891E8986E08C831A8309838FEF9FE7D5
:104D00009E838D83AE01475E5F4F6F89788DCE01A4
:104D100001960E9495262F813885F801E20FF31F36
:104D200010822E96E4E00C943D29ACE0B0E0EBE973
:104D3000F6E20C9413297C016B018A01FC011782B5
:104D40001682838181FFBDC1CE0101964C01F7011E
:104D50009381F60193FD859193FF81916F018823E3
:104D600009F4ABC1853239F493FD859193FF8191AC
:104D70006F01853229F4B70190E00E947D28E7CFCA
:104D8000512C312C20E02032A0F48B3269F030F429
:104D9000803259F0833269F420612CC08D3239F0B1
:104DA000803339F4216026C02260246023C028604B
:104DB00021C027FD27C030ED380F3A3078F426FFA8
:104DC00006C0FAE05F9E300D1124532E13C08AE016
:104DD000389E300D1124332E20620CC08E3221F407
:104DE00026FD6BC1206406C08C3611F4206802C019
:104DF000883641F4F60193FD859193FF81916F010F
:104E00008111C1CF982F9F7D9554933028F40C5F6A
:104E10001F4FFFE3F9830DC0833631F0833771F004
:104E2000833509F05BC022C0F801808189830E5F61
:104E30001F4F44244394512C540115C03801F2E013
:104E40006F0E711CF801A080B18026FF03C0652D94
:104E500070E002C06FEF7FEFC5012C870E947228BF
:104E60002C0183012C852F77222E17C03801F2E008
:104E70006F0E711CF801A080B18026FF03C0652D64
:104E800070E002C06FEF7FEFC5012C870E9467289A
:104E90002C012C852068222E830123FC1BC0832D2E
:104EA00090E048165906B0F4B70180E290E00E9405
:104EB0007D283A94F4CFF50127FC859127FE819156
:104EC0005F01B70190E00E947D2831103A94F1E033
:104ED0004F1A51084114510471F7E5C0843611F09E
:104EE000893639F5F80127FF07C060817181828119
:104EF00093810C5F1F4F08C060817181072E000CE9
:104F0000880B990B0E5F1F4F2F76722E97FF09C0EB
:104F100090958095709561957F4F8F4F9F4F20683A
:104F2000722E2AE030E0A4010E94B528A82EA8180D
:104F300044C0853729F42F7EB22E2AE030E025C008
:104F4000F22FF97FBF2E8F36C1F018F4883579F033
:104F5000B4C0803719F0883721F0AFC02F2F2061FF
:104F6000B22EB4FE0DC08B2D8460B82E09C024FF74
:104F70000AC09F2F9660B92E06C028E030E005C019
:104F800020E130E002C020E132E0F801B7FE07C0C6
:104F900060817181828193810C5F1F4F06C06081A7
:104FA000718180E090E00E5F1F4FA4010E94B52840
:104FB000A82EA818FB2DFF777F2E76FE0BC0372D6D
:104FC0003E7FA51450F474FE0AC072FC08C0372D51
:104FD0003E7E05C0BA2C372D03C0BA2C01C0B52CBB
:104FE00034FF0DC0FE01EA0DF11D8081803311F404
:104FF000397E09C032FF06C0B394B39404C0832F36
:10500000867809F0B39433FD13C030FF06C05A2CE4
:10501000B31418F4530C5B18B32CB31468F4B70131
:1050200080E290E03C870E947D28B3943C85F5CFD8
:10503000B31410F43B1801C0312C34FF12C0B70177
:1050400080E390E03C870E947D283C8532FF17C0BA
:1050500031FD03C088E790E002C088E590E0B70129
:105060000CC0832F867859F031FF02C08BE201C05B
:1050700080E237FD8DE2B70190E00E947D28A51403
:1050800038F4B70180E390E00E947D285A94F7CF6E
:10509000AA94F401EA0DF11D8081B70190E00E940D
:1050A0007D28A110F5CF332009F451CEB70180E25D
:1050B00090E00E947D283A94F6CFF701868197818F
:1050C00002C08FEF9FEF2C96E2E10C942F29FC0198
:1050D0000590615070400110D8F7809590958E0F23
:1050E0009F1F0895FC016150704001900110D8F796
:1050F000809590958E0F9F1F08950F931F93CF93C8
:10510000DF93FB01238121FD03C08FEF9FEF28C0B8
:1051100022FF16C0468157812481358142175307EB
:1051200044F4A081B1819D012F5F3F4F31832083E3
:105130008C93268137812F5F3F4F3783268310C0A2
:10514000EB01092F182F0084F185E02D0995892B9B
:10515000E1F68E819F8101969F838E83812F902F10
:10516000DF91CF911F910F910895FA01AA2728305E
:1051700051F1203181F1E8946F936E7F6E5F7F4F24
:105180008F4F9F4FAF4FB1E03ED0B4E03CD0670FA0
:10519000781F891F9A1FA11D680F791F8A1F911DF3
:1051A000A11D6A0F711D811D911DA11D20D009F443
:1051B00068943F912AE0269F11243019305D319385
:1051C000DEF6CF010895462F4770405D4193B3E06E
:1051D0000FD0C9F7F6CF462F4F70405D4A3318F015
:1051E000495D31FD4052419302D0A9F7EACFB4E0C6
:1051F000A6959795879577956795BA95C9F700977E
:105200006105710508959B01AC010A2E069457951E
:10521000479537952795BA95C9F7620F731F841F75
:10522000951FA01D08952F923F924F925F926F920B
:105230007F928F929F92AF92BF92CF92DF92EF9226
:10524000FF920F931F93CF93DF93CDB7DEB7CA1BA7
:10525000DB0B0FB6F894DEBF0FBECDBF09942A88D2
:10526000398848885F846E847D848C849B84AA847A
:10527000B984C884DF80EE80FD800C811B81AA8107
:10528000B981CE0FD11D0FB6F894DEBF0FBECDBFD2
:10529000ED01089510E0CAE6D0E004C0FE010E94CE
:0E52A00001252196CB36D107C9F7F894FFCF30
:1052AE00400101FFFF01FFFFFFFF01F00000007F43
:1052BE000780000000000062174518070E280EEC4C
:1052CE00126815000000000000CA0150019D017B0C
:1052DE00018F0111020000000000175001000000B4
:1052EE00000618D617CE17BA17AB17AA170000006C
:1052FE0000B5025001B502B502B502B502000000BC
:10530E0000B502500170312F00646F776E2F00755B
:10531E00702F006C6566742F0072696768742F00B9
:10532E00256400677261706869637320696E6974C1
:10533E00005344206F6B21005344206572726F72CC
:10534E0021006B6172746F6666656C73616C61745B
:10535E00006D61702F57616C6C312E626D70006D37
:10536E0061702F4372617465312E626D7000666FCD
:10537E006E742E6865780066696C65206E6F742099
:10538E00666F756E6400424F4D4245524D414E0060
:10539E00474F006261636B00424F4D4245520053CE
:1053AE0074617274004A6F696E000D0A006269744E
:1053BE006D6170206572726F722100702E783D00E3
:0E53CE002C20702E793D002C20702E7A3D0090
:107E0000112484B714BE81FFF0D085E080938100F7
:107E100082E08093C00088E18093C10086E0809377
:107E2000C20080E18093C4008EE0C9D0259A86E02C
:107E300020E33CEF91E0309385002093840096BBD3
:107E4000B09BFECF1D9AA8958150A9F7CC24DD24C4
:107E500088248394B5E0AB2EA1E19A2EF3E0BF2EE7
:107E6000A2D0813461F49FD0082FAFD0023811F036
:107E7000013811F484E001C083E08DD089C08234E0
:107E800011F484E103C0853419F485E0A6D080C0E4
:107E9000853579F488D0E82EFF2485D0082F10E0AE
:107EA000102F00270E291F29000F111F8ED06801E7
:107EB0006FC0863521F484E090D080E0DECF843638
:107EC00009F040C070D06FD0082F6DD080E0C81688
:107ED00080E7D80618F4F601B7BEE895C0E0D1E017
:107EE00062D089930C17E1F7F0E0CF16F0E7DF06D8
:107EF00018F0F601B7BEE89568D007B600FCFDCFD4
:107F0000A601A0E0B1E02C9130E011968C91119780
:107F100090E0982F8827822B932B1296FA010C0160
:107F200087BEE89511244E5F5F4FF1E0A038BF0790
:107F300051F7F601A7BEE89507B600FCFDCF97BE46
:107F4000E89526C08437B1F42ED02DD0F82E2BD052
:107F50003CD0F601EF2C8F010F5F1F4F84911BD097
:107F6000EA94F801C1F70894C11CD11CFA94CF0C13
:107F7000D11C0EC0853739F428D08EE10CD085E9AC
:107F80000AD08FE07ACF813511F488E018D01DD067
:107F900080E101D065CF982F8091C00085FFFCCF94
:107FA0009093C60008958091C00087FFFCCF809118
:107FB000C00084FD01C0A8958091C6000895E0E648
:107FC000F0E098E1908380830895EDDF803219F02E
:107FD00088E0F5DFFFCF84E1DECF1F93182FE3DFCA
:107FE0001150E9F7F2DF1F91089580E0E8DFEE27F6
:047FF000FF270994CA
:027FFE00040479
:0400000300007E007B
:00000001FF