:100000000C946B000C94E5100C9493000C949300EA
:100010000C9493000C9493000C9493000C94930014
:100020000C9429110C9493000C9493000C9493005D
:100030000C9493000C9493000C9493000C949300F4
:100040000C94BE030C9493000C94B1020C948B029C
:100050000C9493000C9493000C9493000C949300D4
:100060000C94F20D0C949300000000002400270073
:100070002A007C3C3E5E2B3D3F2F5B5D3B2C2A22C1
:100080005C000102040810204080010204081020D6
:1000900001020408102000000000250028002B00A9
:1000A000040404040404040402020202020203031E
:1000B00003030303000000002300260029000000C2
:1000C0000008000201000003040700000000000017
:1000D00000002A231E2311241FBECFEFD8E0DEBF6D
:1000E000CDBF27E0A2E3B2E001C01D92A338B20762
:1000F000E1F712E0A0E0B1E0E0E7F3E502C005902F
:100100000D92A233B107D9F710E0CAE6D0E004C0DF
:100110002197FE010E940725C936D107C9F70E9421
:100120002C1D0C94AB290C940000CF93DF93EC01B1
:10013000988188818E7F888388818D7F888390FFD6
:1001400003C0CE010E9470118BA19CA1009769F1A0
:100150001CA21BA2EF8DF8A1A9A1BAA1309799F416
:10016000109749F4DC0111961C921E9213961C9272
:100170001E9212971AC090961C921E925F97FC01D5
:10018000B183A08312C0109741F412A211A2DC0126
:100190001396FC93EE93129708C0B2A3A1A3A9A152
:1001A000BAA19096FC93EE935F97DF91CF9108955B
:1001B000CF92DF92EF92FF920F931F93CF93DF9333
:1001C0006C017A018B01C0E0D0E0CE15DF0589F02B
:1001D000D8016D918D01D601ED91FC910190F081D6
:1001E000E02DC6010995892B11F47E0102C02196EC
:1001F000ECCFC701DF91CF911F910F91FF90EF904E
:10020000DF90CF900895FC01918D828D981761F059
:10021000828DDF01A80FB11D5D968C91928D9F5F3D
:100220009F73928F90E008958FEF9FEF0895FC01E8
:10023000918D828D981731F0828DE80FF11D858D9B
:1002400090E008958FEF9FEF0895FC01918D228D2E
:10025000892F90E0805C9F4F821B91098F739927B3
:100260000895FC01848DDF01A80FB11DA35ABF4F73
:100270002C91848D90E001968F739927848FA689A5
:10028000B7892C93A089B1898C9180648C93938DCC
:10029000848D981306C00288F389E02D80818F7DBC
:1002A00080830895EF92FF920F931F93CF93DF9374
:1002B000EC0181E0888F9B8D8C8D981305C0E889B7
:1002C000F989808185FD24C0F62E0B8D10E00F5F2B
:1002D0001F4F0F731127E02E8C8DE8120CC00FB644
:1002E00007FCFACFE889F989808185FFF5CFCE0137
:1002F0000E943101F1CF8B8DFE01E80FF11DE35A11
:10030000FF4FF0820B8FEA89FB898081806207C0F2
:10031000EE89FF896083E889F98980818064808320
:1003200081E090E0DF91CF911F910F91FF90EF90CE
:100330000895CF93DF93EC01888D8823C9F0EA8973
:10034000FB89808185FD05C0A889B9898C9186FDCE
:100350000FC00FB607FCF5CF808185FFF2CFA889CB
:10036000B9898C9185FFEDCFCE010E943101E7CF95
:10037000DF91CF9108953FB7F89480913B0290911F
:100380003C02A0913D02B0913E0226B5A89B05C05B
:100390002F3F19F00196A11DB11D3FBFBA2FA92F04
:1003A000982F8827820F911DA11DB11DBC01CD0181
:1003B00042E0660F771F881F991F4A95D1F708956D
:1003C0000E943A260F931F93CF938FEE9BE70E94D4
:1003D000D01BC5E0C0930B0181E49EEF90930A010E
:1003E0008093090144EB51E06FE070E08DE190E013
:1003F0000E94C81A2EE64AE56CE384E10E94941A32
:1004000010920A0110920901C0930B014EEB51E0CA
:100410006FE570E086E290E00E94C81A2DE24AE59E
:1004200064EB84E10E94941A10920A01109209016F
:1004300083E080930B0141EC51E060EC70E081E2DD
:1004400090E00E94C81A25EA44EB6CE388E70E941A
:10045000941A0FEE1BE721E930E040EA50E066E431
:1004600070E082E890E00E940A13CF911F910F91F3
:1004700008958FEE9BE70E94D01B87E080930B01CD
:1004800081E49EEF90930A018093090146EC51E0CC
:100490006FE070E081E290E00E94C81A4AEB51E000
:1004A00060E570E08FE590E00E94C81A22E348E71B
:1004B00066E98EE10E94941A22E348E766E98AEA37
:1004C0000E94941A83E080930B0110920A0110920B
:1004D00009014DEC51E065EA70E082E390E00E9492
:1004E000C81A43ED51E065EA70E083EC90E00C94AB
:1004F000C81ACF93DF9380E00E943619C82FD0E04E
:10050000DC2FCC2781E00E9436199E01282BC901DF
:10051000DF91CF9108951F920F920FB60F92112481
:100520002F933F934F935F936F937F938F939F93FB
:10053000AF93BF93EF93FF9387ED94E00E94310157
:10054000FF91EF91BF91AF919F918F917F916F91AB
:100550005F914F913F912F910F900FBE0F901F9081
:1005600018951F920F920FB60F9211242F938F930D
:100570009F93EF93FF93E091E704F091E80480816B
:10058000E091ED04F091EE0482FD12C09081809123
:10059000F0048F5F8F732091F104821751F0E09186
:1005A000F004F0E0E952FB4F958F8093F00401C016
:1005B0008081FF91EF919F918F912F910F900FBEAE
:1005C0000F901F901895833081F028F4813099F0B6
:1005D0008230A1F008958730A9F08830B9F08430D6
:1005E000D1F4809180008F7D03C0809180008F774F
:1005F00080938000089584B58F7702C084B58F7D85
:1006000084BD08958091B0008F7703C08091B000C1
:100610008F7D8093B00008951F93CF93DF93282F91
:1006200030E0F901E254FF4F8491F901EE57FF4F9A
:10063000D491F901E056FF4FC491CC23C9F0162F95
:1006400081110E94E302EC2FF0E0EE0FFF1FEA564B
:10065000FF4FA591B4918FB7F894111105C09C91EB
:10066000ED2FE095E92302C0EC91ED2BEC938FBFC9
:10067000DF91CF911F910895CF93DF9390E0FC011C
:10068000EE57FF4F2491FC01E056FF4F84918823E1
:1006900061F190E0880F991FFC01E859FF4FC59167
:1006A000D491FC01EA56FF4FA591B491611109C0A4
:1006B0009FB7F8948881209582238883EC912E231C
:1006C0000BC0623061F49FB7F8943881822F809517
:1006D00083238883EC912E2B2C939FBF06C08FB76A
:1006E000F894E8812E2B28838FBFDF91CF91089556
:1006F0008F929F92AF92BF92CF92DF92EF92FF9232
:100700006B017C010E94BB014B015C01C114D1044F
:10071000E104F104F1F00E94BB01DC01CB01881976
:100720009909AA09BB09883E9340A105B10570F358
:1007300021E0C21AD108E108F10888EE880E83E0B2
:10074000981EA11CB11CC114D104E104F10419F7D5
:10075000DDCFFF90EF90DF90CF90BF90AF909F9054
:100760008F9008952FB7F8946091370270913802F6
:100770008091390290913A022FBF08951F920F92F3
:100780000FB60F9211242F933F938F939F93AF93A4
:10079000BF938091370290913802A0913902B091B5
:1007A0003A023091360223E0230F2D3720F40196D0
:1007B000A11DB11D05C026E8230F0296A11DB11D84
:1007C000209336028093370290933802A093390227
:1007D000B0933A0280913B0290913C02A0913D027D
:1007E000B0913E020196A11DB11D80933B029093F2
:1007F0003C02A0933D02B0933E02BF91AF919F9106
:100800008F913F912F910F900FBE0F901F901895D1
:10081000CF93DF938091D602882399F1C0913F0254
:10082000D091400240910301509104016091050173
:100830007091060127ED32E0CE010E947A108111FD
:1008400002C080E01FC0409132025091330260919B
:10085000340270913502411551056105710579F039
:1008600027ED32E0CE010E947A10882351F31092D6
:10087000320210923302109234021092350210921A
:10088000D60281E0DF91CF9108958F929F92AF922F
:10089000BF92EF92FF920F931F93CF934B015C0196
:1008A000C42F8091030190910401A0910501B091A2
:1008B000060188159905AA05BB0501F10E940804E7
:1008C000811102C080E020C087EDE82E82E0F82E82
:1008D00000E012E020E030E0B501A40180913F0289
:1008E000909140020E94E60F882361F380920301F9
:1008F00090920401A0920501B09206018091D60267
:10090000C82BC093D60281E0CF911F910F91FF9029
:10091000EF90BF90AF909F908F9008958F929F928D
:10092000AF92BF92CF92DF92EF92FF92CF93DF937D
:10093000C82F86E795E09093400280933F02CC2336
:1009400069F1C53010F080E00DC140E060E070E07A
:10095000CB010E9445048823B1F320E1C29FC0016E
:10096000112489539D4FFC01E254FE4F20812F77C3
:1009700051F73C9640815181628173814436510523
:100980006105710500F33497C080D180E280F38067
:10099000C114D104E104F10421F4D5CFC12CD12C30
:1009A000760140E0C701B6010E944504882359F250
:1009B0008091E2029091E3028115924021F6A0918C
:1009C000E702AA2309F4BFCF6091E5027091E60225
:1009D0006115710509F4B7CF2091E402222309F4CF
:1009E000B2CFA09394052093860580E030E0E1E04B
:1009F000F0E0C82FAF01082E02C0440F551F0A9423
:100A0000E2F72417350741F0982F8F5F983089F768
:100A100089E080938F0597CF80938F052091ED0219
:100A20003091EE022115310519F040E050E008C088
:100A30002091FB023091FC024091FD025091FE0298
:100A400020938705309388054093890550938A0544
:100A500046015701860E971EA11CB11C8092950578
:100A600090929605A0929705B0929805E091E802C1
:100A7000F091E902F0939B05E0939A05B0E00E94A3
:100A80003829860E971EA81EB91E80929C0590924A
:100A90009D05A0929E05B0929F0585E0EE0FFF1F79
:100AA0008A95E1F7E150FE4FEF2FFF27E6958E0E76
:100AB0009F1EA11CB11C8092900590929105A0925E
:100AC0009205B09293052091EA023091EB02211534
:100AD000310521F0A90160E070E008C04091F70203
:100AE0005091F8026091F9027091FA02D701C601A3
:100AF00088199909AA09BB09840F951FA61FB71F5A
:100B000004C0B695A79597958795CA95D2F7809317
:100B10008B0590938C05A0938D05B0938E05853F32
:100B20002FE09207A105B10510F48CE018C0853FB5
:100B30009F4FA105B10510F480E111C0809103031E
:100B400090910403A0910503B091060380939C0546
:100B500090939D05A0939E05B0939F0580E280939E
:100B6000990581E0DF91CF91FF90EF90DF90CF90DA
:100B7000BF90AF909F908F9008954F925F926F9229
:100B80007F928F929F92AF92BF92CF92DF92EF921D
:100B9000FF920F931F93CF93DF93EC016A017B01C8
:100BA00028013901423051056105710510F480E0DA
:100BB00073C089859A85AB85BC850196A11DB11D41
:100BC00084179507A607B70790F38B889C88AD8894
:100BD000BE888F89803129F4BB27AF2D9E2D8D2DA6
:100BE00009C0DB01CA0147E0B695A795979587959F
:100BF0004A95D1F7880E991EAA1EBB1E809103014B
:100C000090910401A0910501B09106018816990602
:100C1000AA06BB0679F48F898031A1F4DD24EE2485
:100C2000FF24C601880F991FFC01E952FD4F518234
:100C3000408219C040E0C501B4010E944504811101
:100C4000EACFB5CFE894C7F8DD24EE24FF24C6012F
:100C5000880F991F880F991FFC01E952FD4F4082B0
:100C60005182628273828091D60281608093D60223
:100C70008A89823080F08D819E81AF81B885880E0F
:100C8000991EAA1EBB1E8092320290923302A0923D
:100C90003402B092350281E0DF91CF911F910F9124
:100CA000FF90EF90DF90CF90BF90AF909F908F908C
:100CB0007F906F905F904F9008958F929F92AF9228
:100CC000BF92CF92DF92EF92FF920F931F93CF9339
:100CD000DF93FC0181859285A385B4850196A11DD2
:100CE000B11D84179507A607B70710F480E05CC014
:100CF00083899489A589B689C789C03129F4852E4D
:100D0000962EA72EBB2409C04A015B01C7E0B6940A
:100D1000A79497948794CA95D1F7E9016A017B015A
:100D20008F01BC01CD01680D791D8A1D9B1D80902E
:100D3000030190900401A0900501B0900601681590
:100D400079058A059B0599F4F80187898031A9F412
:100D5000B701A601552766277727440F551FFA01CB
:100D6000E952FD4F80819181A0E0B0E018C040E0E1
:100D70000E9445048111E8CFB9CFB701A6014F7792
:100D8000552766277727440F551F440F551FFA0133
:100D9000E952FD4F80819181A281B381BF70888328
:100DA0009983AA83BB8381E0DF91CF911F910F913B
:100DB000FF90EF90DF90CF90BF90AF909F908F907B
:100DC00008954F925F926F927F92AF92BF92CF92AF
:100DD000DF92EF92FF920F931F93CF93DF9300D098
:100DE00000D0CDB7DEB78C0149835A836B837C83F7
:100DF0005901C12CD12C7601412C82E0582E612C56
:100E0000712C49815A816B817C819E012F5F3F4FFC
:100E1000C8010E945D06882351F1D301C201F80187
:100E2000058404C0880F991FAA1FBB1F0A94D2F71C
:100E3000C80ED91EEA1EFB1E49815A816B817C8136
:100E40008789803129F088EF9FEFAFEFBFE004C0C2
:100E500088EF9FEFA0E0B0E0481759076A077B07CB
:100E600080F2F501C082D182E282F38281E00F90AC
:100E70000F900F900F90DF91CF911F910F91FF90E6
:100E8000EF90DF90CF90BF90AF907F906F905F908A
:100E90004F900895CF93DF93EC018D818823A1F1CA
:100EA0008C8187FF2DC06E857F858889998941E077
:100EB0000E944504882341F1EA8980E2E89FF0011D
:100EC0001124DF01A952BD4F1097F1F08D818230BE
:100ED00050F44B895C896D897E895C964D935D9356
:100EE0006D937C935F978F89988DA98DBA8DE95208
:100EF000FD4F938F828FB58BA48B8C818F778C83E2
:100F0000DF91CF910C94080480E0DF91CF91089598
:100F10008F929F92AF92BF92CF92DF92EF92FF9209
:100F20000F931F93CF93DF93EC018D81811102C04A
:100F300080E077C00B891C892D893E89041715072D
:100F400026073707A8F36A017B01823029F4CA8695
:100F5000DB86EC86FD860DC0C114D104E104F104EA
:100F600051F41E821F82188619861A861B861C86DB
:100F70001D8681E056C08A849B84AC84BD84EB8D41
:100F8000FC8D258530E0275F3F4FB501A40141501E
:100F9000510961097109022E04C07695679557952C
:100FA00047950A94D2F7D701C6010197A109B10963
:100FB00004C0B695A795979587952A95D2F784177B
:100FC0009507A607B70720F089288A288B2849F4B7
:100FD0004F89588D698D7A8D4E835F8368877987B5
:100FE00004C0841B950BA60BB70B4C015D018E0151
:100FF0000A5F1F4F81149104A104B10409F4A7CF23
:101000004E815F816885798598018B8D9C8D0E94CA
:101010005D0691E0891A9108A108B1088111EACF13
:1010200087CFDF91CF911F910F91FF90EF90DF90CD
:10103000CF90BF90AF909F908F9008952F923F9246
:101040004F925F926F927F928F929F92AF92BF92D8
:10105000CF92DF92EF92FF920F931F93CF93DF9384
:1010600000D000D0CDB7DEB78C015B011A01DC01E6
:1010700015968C9115978130C9F414968C9181FF47
:1010800015C082FF1BC0F8014389548965897689A0
:1010900082859385A485B58584179507A607B7072C
:1010A00069F0C8010E948807811108C081E090E0C2
:1010B000F8019383828380E090E039C1610183C0AD
:1010C000D8015B968D919C915C97FC012481215005
:1010D0002A013B0139E076946794579447943A95F6
:1010E000D1F7722E74207A01F1E0FF22772009F403
:1010F00076C080E092E08E199F0946018C159D050F
:1011000008F44C01D8015B962D913C915C971696A2
:101110008D919D910D90BC91A02D0297A109B109CF
:10112000F901058404C0880F991FAA1FBB1F0A94E8
:10113000D2F74685578560897189840F951FA61F50
:10114000B71F9C01AD01270D311D411D511D290106
:101150003A01811432E0930609F088C080910301BE
:1011600090910401A0910501B091060184159505A7
:10117000A605B70559F48FEF9FEFDC0180930301BB
:1011800090930401A0930501B09306019501B3016A
:10119000A20180913F02909140020E947A10882320
:1011A00009F484CF9EEFB91AC818D908F8018285CE
:1011B0009385A485B585880D991DA11DB11D8287D4
:1011C0009387A487B587D8011A964D915D916D914B
:1011D0007C911D97C114D10409F072CF87C0E1142E
:1011E000F10409F086CF16964D915D916D917C9139
:1011F0001997411551056105710559F457968D915F
:101200009D910D90BC91A02D0097A105B10541F5D0
:1012100021C09E012F5F3F4F0E945D06882309F485
:101220004BCF89819A81AB81BC81F801238D348DAC
:10123000F9012789203129F048EF5FEF6FEF7FE058
:1012400004C048EF5FEF60E070E084179507A607E1
:10125000B70730F0C8010E94E80B81114ACF26CFB2
:10126000F80186839783A087B18743CFE114F10407
:1012700029F5D8011A964D915D916D917C911D973C
:1012800053968D919D910D90BC91A02D48175907B3
:101290006A077B0798F00E940804882309F406CFA8
:1012A0004092030150920401609205017092060180
:1012B0008091D60281608093D60208C041E0C301CC
:1012C000B2010E944504882309F4F0CED501F7014C
:1012D000E952FD4FCF01880D991DE817F90719F064
:1012E0002D912193FACFA80CB91C5ECF53968D9106
:1012F0009D910D90BC91A02D84179507A607B70767
:1013000040F4F801438B548B658B768B8481806825
:101310008483D80114968C9183FD02C0C10107C05B
:10132000C8010E944A07882309F4C0CEF7CF0F9066
:101330000F900F900F90DF91CF911F910F91FF9021
:10134000EF90DF90CF90BF90AF909F908F907F9065
:101350006F905F904F903F902F900895CF93DF93C1
:101360001F92CDB7DEB7698341E050E0BE016F5FE9
:101370007F4F0E941E080F90DF91CF9108952F920A
:101380003F924F925F926F927F928F929F92AF9215
:10139000BF92CF92DF92EF92FF920F931F93CF9362
:1013A000DF93EC016B014A018D81811103C08FEF46
:1013B0009FEFD7C08C8180FFFACF4B885C886D8807
:1013C0007E884A855B856C857D85C401A0E0B0E0A0
:1013D00093018201041B150B260B370B0817190705
:1013E0002A073B0718F44201841A950A54011E018A
:1013F00026E0220E311CA114B10409F47EC04A85F6
:101400005B856C857D852A0181E05822ED818A010A
:101410009B0189E036952795179507958A95D1F711
:101420008B8D9C8DE23061F4FC01828D938DA48DB7
:10143000B58DBC01CD01600F711F821F931F3FC08E
:10144000FC0174807A94702241145104C9F4711023
:1014500017C0452B462B472B49F48F89988DA98DB2
:10146000BA8D8E839F83A887B9870AC04E815F811A
:101470006885798591010E945D06882309F497CFDC
:10148000EB8DFC8D8E819F81A885B9850297A1097E
:10149000B109058404C0880F991FAA1FBB1F0A94B5
:1014A000D2F74685578560897189840F951FA61FDD
:1014B000B71FBC01CD01670D711D811D911D20E07D
:1014C00032E02419350935012A153B0508F43901A4
:1014D0002C8126FD04C06114F2E07F0681F40091A6
:1014E000030110910401209105013091060160175C
:1014F000710782079307B1F402C0C40132C040E013
:101500000E944504882309F452CFF201E952FD4FAD
:10151000D601CF01860D971DE817F90789F02191B3
:101520002D93FACF760183019201AB01BC0180912A
:101530003F02909140020E94E60F882309F437CFC2
:10154000C60CD71C8A859B85AC85BD85860D971DED
:10155000A11DB11D8A879B87AC87BD87A618B708D8
:101560004ACFDF91CF911F910F91FF90EF90DF90C5
:10157000CF90BF90AF909F908F907F906F905F9033
:101580004F903F902F900895CF93DF93EC010E94EE
:101590004A07882311F01D8281E0DF91CF910895E1
:1015A000DC015996ED91FC915A973097B9F08389F7
:1015B0009489A589B6894285538564857585841B80
:1015C000950BA60BB70B811520E89207A105B10575
:1015D00038F08FEF9FE7A0E0B0E0089580E090E062
:1015E0000895CF93DF931F92CDB7DEB76983DC01F7
:1015F000ED91FC910280F381E02D41E050E0BE01CD
:101600006F5F7F4F09950F90DF91CF91089585ED22
:101610008093BC008091BC0084FDFCCF10925707E2
:1016200008954091AF02262F30E0240F311D213262
:101630003105DCF4209157072430C9F4FC0180E027
:1016400090E0861758F43091AF022191DC01A35746
:10165000BD4FA30FB11D2C930196F3CF8091AF0224
:10166000680F6093AF0280E0089581E0089582E002
:1016700008950895E091100780910F07E81730F45E
:10168000F0E0EF5EF84F808190E008958FEF9FEFDC
:1016900008959091100780910F07981750F4E92F43
:1016A000F0E0EF5EF84F208130E09F5F90931007ED
:1016B00002C02FEF3FEFC901089580910F0790E01E
:1016C00020911007821B91090895CF92DF92EF922B
:1016D000FF920F931F93CF93DF937C01262F972FB9
:1016E0008A0180915807882391F0C62FD72F6E0169
:1016F000C40ED51ECC15DD0571F06991D701ED91B1
:10170000FC910190F081E02DC7010995F3CF642F82
:10171000822F0E94110BC801DF91CF911F910F9171
:10172000FF90EF90DF90CF900895CF93DF931F92BB
:10173000CDB7DEB76983209158072223D1F02091DD
:101740007A07203240F021E030E0FC01338322832D
:1017500080E090E015C080915907E82FF0E0E65A4C
:10176000F84F998190838F5F8093590780937A0710
:1017700005C061E0CE0101960E94110B81E090E06E
:101780000F90DF91CF910895FC01818D928D00978C
:1017900011F00C944A070895CF93DF93EC01898DE3
:1017A0009A8D009739F481E090E09B838A8380E0F2
:1017B00090E00BC0FC01138212820E941E08E98D8A
:1017C000FA8D22813381232B71F7DF91CF91089518
:1017D0003F924F925F926F927F928F929F92AF92C1
:1017E000BF92CF92DF92EF92FF920F931F93CF930E
:1017F000DF93CDB7DEB72C970FB6F894DEBF0FBEE0
:10180000CDBF5C01DC015B968D909C905C97169639
:10181000CD90DD90ED90FC901997C114D104E104B6
:10182000F10439F0BFEFCB1ADB0AEB0AFB0A312CCB
:1018300007C0F401C080D180E280F3803324339468
:10184000F40181859285A385B4859C01AD012F5F4C
:101850003F4F4F4F5F4F29873A874B875C87260161
:1018600037011D821E821F821886F40181859285B0
:10187000A385B4852D813E814F815885281739076E
:101880004A075B0708F063C089859A85AB85BC85EC
:101890008C159D05AE05BF0550F482E0C82ED12CF5
:1018A000E12CF12C92E0492E512C612C712C9E01DF
:1018B0002F5F3F4FB701A601C4010E945D06882338
:1018C00009F445C089819A81AB81BC81892B8A2B1F
:1018D0008B2B41F0260137019FEF491A590A690AFB
:1018E000790A05C0C414D504E604F70491F02D81EB
:1018F0003E814F8158852F5F3F4F4F4F5F4F2D8364
:101900003E834F8358873FEFC31AD30AE30AF30A93
:10191000ACCF0FEF1FEF2FEF3FE0B301A201C401E7
:101920000E94BD05882399F0D50116964D915D91D1
:101930006D917C911997411551056105710549F02B
:1019400093018201C4010E94BD05811102C080E0A3
:101950002AC0D50116964D925D926D927C92199790
:10196000332051F0D301C2010196A11DB11DF40134
:1019700080839183A283B383F5018789908DA18DA4
:10198000B28D892B8A2B8B2B69F4D50157964D92FA
:101990005D926D927C925A9714968C911497806800
:1019A00014968C9381E02C960FB6F894DEBF0FBE90
:1019B000CDBFDF91CF911F910F91FF90EF90DF90FE
:1019C000CF90BF90AF909F908F907F906F905F90DF
:1019D0004F903F900895FC01DB0112968D919C91F0
:1019E0001397938382838BE491E091838083149691
:1019F0008C911497848315968C91159785831696F0
:101A00004D915D916D917C911997468357836087C5
:101A100071871A964D915D916D917C911D974287CA
:101A20005387648775871E964D915D916D917C916A
:101A3000519746875787608B718B52968C9152973E
:101A4000828B53964D915D916D917C915697438B0E
:101A5000548B658B768B57964D915D916D917C91F2
:101A60005A97478B508F618F728F5B968D919C91A7
:101A70005C97948F838F0895EF92FF920F931F933B
:101A8000CF93DF93EC017B018A011B821A8288EEDF
:101A900093E0A0E0B0E08C839D83AE83BF8389E2B6
:101AA00091E0998388838DE190E00E940D259A8FC3
:101AB000898F009779F02DE1F701DC0101900D92FB
:101AC0002A95E1F74CE050E0B801CE010C960E9457
:101AD0006926188EDF91CF911F910F91FF90EF90A3
:101AE0000895CF93DF931F92CDB7DEB741E050E06A
:101AF000BE016F5F7F4F0E94BF09019719F4898172
:101B000090E002C08FEF9FEF0F90DF91CF9108958B
:101B1000FC01818D928D009711F00C94710D8FEF67
:101B20009FEF08950F931F93CF93DF93FC01818D57
:101B3000928D0097B9F0EF010E94710D8C010F3F5B
:101B40008FEF180791F0898D9A8DFC01428553859E
:101B50006485758541505109610971090E948807A2
:101B6000C80105C080E090E002C08FEF9FEFDF91D9
:101B7000CF911F910F910895CF93CFB7F894809193
:101B8000D402811127C0EAEAF0E08491ECE8F0E0A9
:101B90009491E82FF0E0EE0FFF1FE859FF4FA59159
:101BA000B491EC91E92321F461E08AE00E940C03F6
:101BB00061E08AE00E943C038CB580618CBD8CB5ED
:101BC00080648CBD61E08DE00E943C0361E08BE0AD
:101BD0000E943C038091D4028F5F8093D402CFBFD8
:101BE000CF9108951F920F920FB60F9211242F9349
:101BF0003F934F935F936F937F938F939F93AF9395
:101C0000BF93EF93FF938091B900887F803609F4EA
:101C10009CC068F5883209F45BC090F4803109F407
:101C200054C038F4882309F4F6C0883009F44DC054
:101C3000F6C0883109F44CC0803209F45DC0EFC0B1
:101C4000803409F468C048F4803309F455C08833FF
:101C500009F0E5C080935507D8C0803509F44FC01E
:101C6000883509F45DC0883409F0D9C0D6C08839F8
:101C700009F4C7C0A8F4883709F467C038F4883677
:101C800009F463C0803709F460C0C9C0883809F41A
:101C9000B8C0803909F45FC0803809F0C0C05BC0AB
:101CA000803B09F486C038F4803A09F466C0883A6B
:101CB00009F47FC0B4C0803C09F4A7C0883C09F493
:101CC000A4C0883B09F48AC0AAC08091320710C022
:101CD0009091540780915307981770F5E09154073D
:101CE00081E08E0F80935407F0E0ED5CF84F808127
:101CF0008093BB0085EC86C0809355078EC0E09131
:101D0000540781E08E0F809354078091BB00F0E070
:101D1000ED5CF84F808390915407809153076EC01B
:101D2000E091540781E08E0F809354078091BB00AF
:101D3000F0E0ED5CF84F80838091560781116DC013
:101D400081E08093310784EA61C083E08093570784
:101D50001092D302CFCF8091D302803208F051C0CD
:101D6000E091D30281E08E0F8093D3028091BB007B
:101D7000F0E0ED54FD4F8083BDCF85EC8093BC0037
:101D8000109257078091D302803230F4E091D30251
:101D9000F0E0ED54FD4F10826091D30270E0E091CD
:101DA000B102F091B20283EB92E009951092D30256
:101DB00036C084E0809357071092B0021092AF02B1
:101DC000E091AD02F091AE0209958091AF028111D0
:101DD00005C081E08093AF0210928D02E091B002C5
:101DE00081E08E0F8093B002F0E0E357FD4F8081D9
:101DF0008093BB009091B0028091AF02981708F4D5
:101E000079CF85E88093BC000AC085EC8093BC0044
:101E10001092570704C0109255070E94070BFF91BC
:101E2000EF91BF91AF919F918F917F916F915F9152
:101E30004F913F912F910F900FBE0F901F901895CB
:101E4000089561E0FC0184810E940C038091D50219
:101E500081111092D50208958EBD00000DB407FEC9
:101E6000FDCF8EB508958FEF0C942C0F0F931F9319
:101E7000CF93DF93EB010E94B2038B010E94330FDB
:101E80008F3F49F00E94B203601B710B6C177D07F6
:101E9000A8F380E001C081E0DF91CF911F910F9105
:101EA0000895CF93DF93EC018E81882389F08F8191
:101EB00098859C012F5F3F4F38872F838230924057
:101EC00018F40E94330FF3CFCE010E94210F1E821F
:101ED000DF91CF9108958CBD9DBD0895CF93DF9381
:101EE000EC018091D502811109C081E08093D50277
:101EF00080917405909175050E946B0F60E08C8154
:101F0000DF91CF910C940C03CF92DF92FF920F934D
:101F10001F93CF93DF9300D000D0CDB7DEB76C0115
:101F2000F62E29833A834B835C830E94510FC601AE
:101F30000E946E0F6CE271E0C6010E94360F8F2D79
:101F400080640E942C0F08E110E05C814B813A8193
:101F50002981DA01C901002E04C0B695A79597958D
:101F600087950A94D2F729833A834B835C830E9436
:101F70002C0F0850110929813A814B815C81083F5F
:101F80008FEF180731F7FF2029F0E8E0FE1204C0B8
:101F900087E803C085E901C08FEF0E942C0F10E095
:101FA0000E94330FF601828787FF04C01F3F11F0A4
:101FB0001F5FF6CF0F900F900F900F90DF91CF9192
:101FC0001F910F91FF90DF90CF900895AF92BF9235
:101FD000CF92DF92EF92FF920F931F93CF93DF93F5
:101FE000EC016901C801820F931F8130924008F013
:101FF00070C08E81882371F088819981AA81BB810C
:10200000481759076A077B0729F48F819885C816F6
:10201000D906B0F5488359836A837B838B858330E7
:1020200039F089E0440F551F661F771F8A95D1F755
:102030009A01AB0161E1CE010E94840F882319F05F
:1020400083E08D8346C00E94B2035B010E94330F80
:102050008A878F3F49F40E94B2036A197B096D3267
:102060007140A0F38FE003C08E3F31F08DE08D838F
:10207000CE010E94210F2DC018861F8281E08E8321
:102080008F8198858C159D0540F40E94330F8F81B8
:102090009885019698878F83F3CF6701E00EF11E34
:1020A000CE14DF0431F00E94330FF60181936F01EB
:1020B000F7CF8F819885080F191F18870F8389859F
:1020C000882319F00115124048F0CE010E94510FEB
:1020D00005C0CE010E94210F80E001C081E0DF91A8
:1020E000CF911F910F91FF90EF90DF90CF90BF9015
:1020F000AF900895EF92FF920F931F93CF93DF93CA
:10210000EC017901411551056105710511F482E178
:102110003CC08B85833039F089E0440F551F661F22
:10212000771F8A95D1F79A01AB0168E1CE010E9431
:10213000840F882311F084E028C08EEF0E942C0FBA
:1021400087018EEFF81AF80181918F010E942C0F00
:102150000E151F05C1F78FEF0E942C0F8FEF0E9405
:102160002C0F0E94330F8A878F71853031F081E107
:102170008D83CE010E94210F09C068E572E0CE0177
:102180000E94360F811107C085E18D83CE010E9428
:10219000210F80E013C020E030E0A9016DE0CE0106
:1021A0000E94840F811104C00E94330F882311F014
:1021B00084E1EBCFCE010E94210F81E0DF91CF912E
:1021C0001F910F91FF90EF9008951F920F920FB6FD
:1021D0000F9211242F933F938F939F93EF93FF932D
:1021E00080918B0290918C0210928C0210928B0243
:1021F0002091ED053091EE0582179307A0F0E09154
:102200008902F0918A02EE0FFF1FEF5BFD4F918371
:1022100080832091890230918A022F5F3F4F309353
:102220008A02209389022091EB053091EC058217F8
:10223000930720F010928A0210928902FF91EF9189
:102240009F918F913F912F910F900FBE0F901F90F4
:1022500018951F920F920FB60F9211242F938F9300
:102260009F931092B20080918B0290918C02019604
:1022700090938C0280938B0280918B0290918C02C0
:10228000843F914030F084EF91E090938C028093F2
:102290008B029F918F912F910F900FBE0F901F90E7
:1022A00018950F931F93262F30E02F5F3F4FE4E1E7
:1022B000E29FB001E39F700D112490E0019600E0D1
:1022C00010E024E130E044E150E0DC01EA9FC0018D
:1022D000EB9F900D11240E940A131F910F910895F6
:1022E0000F931F93CF93DF93DC015D96ED91FC91EB
:1022F0005E97309781F0EC01ABA1BCA114960D91D3
:102300001C91159715969C938E9314970995EBA1A4
:10231000FCA115830483DF91CF911F910F91089544
:102320000F931F93CF93DF9300D000D0CDB7DEB7CC
:102330008C010E94880D8983C8010E94880D8A83C0
:10234000C8010E94880D8B83C8010E94880D8C8370
:1023500069817A818B819C810F900F900F900F90F3
:10236000DF91CF911F910F9108950F931F93CF93FA
:10237000DF9300D0CDB7DEB78C010E94880D898332
:10238000C8010E94880D8A8389819A810F900F90DD
:10239000DF91CF911F910F910895CF93DF93EC01BF
:1023A0006A8B8091030190910401A0910501B09185
:1023B00006018E879F87A88BB98B80E2689FF0010A
:1023C0001124E952FD4F4489558960E070E0BA015B
:1023D000552744274F8B588F698F7A8F828D938D25
:1023E000A0E0B0E0482B592B6A2B7B2B4F8B588FEA
:1023F000698F7A8F8385887151F4848D958DA68D30
:10240000B78D8B8B9C8BAD8BBE8B81E00EC08031EA
:1024100011F080E015C09E012D5E3F4F8B8D9C8D8D
:102420000E94E1068823A9F384E08D8381E08C83F8
:102430001E821F82188619861A861B861C861D8698
:10244000DF91CF910895AF92BF92CF92DF92EF923A
:10245000FF920F931F93CF93DF93CDB7DEB72B97E8
:102460000FB6F894DEBF0FBECDBF7C01CE01019642
:102470006C01FC0190E28BE08C0D91938E13FDCFEB
:10248000DA0120E037E09D91992339F19E3219F06D
:10249000E2E7F0E00AC03A3009F4AAC028E03AE0E6
:1024A000F2CF3196891709F4A3C084918111F9CF35
:1024B000321708F49DC08FED890F8E3508F098C053
:1024C00081E0820FF601E20FF11D2FE9290F2A3179
:1024D00008F490529083282FD6CF8981803209F456
:1024E00087C08B01FB01838D948DF701948F838FBF
:1024F000FB011682178210861186128613861486B7
:102500001586A12CF80182859385A485B58543891C
:1025100054896589768984179507A607B70708F057
:1025200067C025E0B695A795979587952A95D1F729
:10253000F82FFF70BF2EF8018581823008F458C053
:10254000C8010E94710D97FD53C0F80182859385E3
:10255000A485B5854F96A11DB11D82879387A48759
:10256000B587F0E2BF9EC0011124BC0169527D4FC6
:1025700061157105E9F1FB0120812223B9F1253EA6
:10258000E1F04BE050E0C6010E943F26892B09F0A4
:10259000B9CF6B2DC7012B960FB6F894DEBF0FBED7
:1025A000CDBFDF91CF911F910F91FF90EF90DF9002
:1025B000CF90BF90AF900C94CD11A11014C0F70133
:1025C000B28A40910301509104016091050170911C
:1025D000060146875787608B718BFC01E952FD4FDE
:1025E0008081882329F0AA24A3948CCFAA2039F3D0
:1025F00080E02B960FB6F894DEBF0FBECDBFDF9103
:10260000CF911F910F91FF90EF90DF90CF90BF90EF
:10261000AF9008950F931F93CF93DF93CDB7DEB79D
:1026200028970FB6F894DEBF0FBECDBF2F83388733
:102630004D835E836B837C8389839A830E942618F3
:1026400089819A812F8138854D815E816B817C8162
:102650008034E1E09E0714F40E94A91728960FB673
:10266000F894DEBF0FBECDBFDF91CF911F910F91C8
:102670000C94B916009769F0FC0101900020E9F76D
:102680003197AF01481B590BBC0187ED94E00C94C6
:10269000D80080E090E00895CF93DF930E943A1332
:1026A000EC0188ED91E00E943A138C0F9D1FDF91A1
:1026B000CF910895CF93282F8091D40587FF09C02B
:1026C0009EBD0DB407FEFDCF2EBD0DB407FEFDCFA0
:1026D00008C0892FC22F0E94C8168C2FCF910C944E
:1026E000C816CF9108952F923F924F925F926F92AA
:1026F0007F928F929F92AF92BF92CF92DF92EF9292
:10270000FF920F931F93CF93DF93CDB7DEB7C656DB
:10271000D1090FB6F894DEBF0FBECDBF6C015B01CF
:102720004E018EE1880E911C60EA75E0C4010E94A2
:10273000EB0C1C821B828BE491E09A8389831E82BE
:1027400035018E010F5F1F4F240118016FE270E009
:10275000C3010E945726009709F441C0F30120816C
:102760002F3221F4FFEF6F1A7F0AF0CF86198D30D8
:1027700008F08CE0E82EF12CA701B301CE01885AB5
:102780009F4F0E946926E8E5F0E0EC0FFD1FEE0D7B
:10279000FF1D1082C8010E94C40AF80185818823A8
:1027A00051F01EAE1DAE8BE491E09CAF8BAF219635
:1027B0001FAE219720C0AE01485A5F4FB201C80139
:1027C0000E942312882369F36E0C7F1CC2010E94B1
:1027D000C40A942D852D2801092F182FB7CFC301C6
:1027E0008A199B09A7969FAF8EAFA797B201CE011A
:1027F000CB960E94EB0CA796EEADFFADA797AE0E61
:10280000BF1EF5018081811109C0BE01655C7F4F4B
:10281000C1010E94EB0C46E152E03CC019A218A293
:102820008BE491E09F8F8E8F1BA221968FAD219715
:10283000811113C0F6011382128288EE93E0A0E0AA
:10284000B0E084839583A683B78389E291E0918386
:102850008083128E118E148621C08250A501823091
:1028600040F460EA75E0C4010E94231281110DC09A
:10287000E1CFBE01655C7F4FC4010E942312882313
:10288000C9F2CE01CB960E94C40AB401C1010E94D4
:10289000EB0CA501B101C6010E943C0DC601CA594D
:1028A000DF4F0FB6F894DEBF0FBECDBFDF91CF91E3
:1028B0001F910F91FF90EF90DF90CF90BF90AF905E
:1028C0009F908F907F906F905F904F903F902F9050
:1028D00008952F923F924F925F926F927F928F92C4
:1028E0009F92AF92BF92CF92DF92EF92FF920F939F
:1028F0001F93CF93DF93CDB7DEB7CF54D1090FB677
:10290000F894DEBF0FBECDBF1B018A011F8E1E8E45
:1029100048EE53E060E070E048A359A36AA37BA3AC
:1029200029E231E03D8F2C8F1EAA1DAA18A620E4B3
:10293000221621E032060CF002C2003F11050CF015
:10294000FEC1BC01CE0101960E9473138B819C8154
:102950009F8F8E8F8D819E81AF81B88588A399A32B
:10296000AAA3BBA389859A85AB85BC858CA39DA3AF
:10297000AEA3BFA38DE0FE013D96DE0198960190C7
:102980000D928A95E1F7EA8DFB8DFEABEDAB3097AA
:1029900019F08581811105C08BED91E00E944C13E7
:1029A000CEC1CE014C960E94B51182349D4409F0EF
:1029B000C1C1CE014C960E949011CE014C960E944E
:1029C0009011CE014C960E9490114B015C01CE01FA
:1029D0004C960E949011CE014C960E9490116B0172
:1029E0007C01CE014C960E9490112B013C01CE013E
:1029F0004C960E94B511019709F09CC1CE014C96EE
:102A00000E94B511883109F095C1CE014C960E9403
:102A1000901121966CAF7DAF8EAF9FAF2197672B42
:102A2000682B692B09F086C1DCAECBAE58AE4FAA3D
:102A3000C60101969C01220F331F820F931FBC0118
:102A40006C7F23967FAF6EAF2397CB01092E000CCE
:102A5000AA0BBB0B27968CAF9DAFAEAFBFAF27972E
:102A600057FE63C1442755274419550958AF4FAB4A
:102A700028961FAE2897C20CD31C9601215031090D
:102A800037FD48C14FA858AC400E511EC2010197F6
:102A900097FD40C137FE09C0662477246218730889
:102AA000DCAECBAE212C312C02C0612C712C17FF77
:102AB00007C0EE24FF24E01AF10A00E010E004C091
:102AC0004FA858ACE12CF12C203431403CF020E4EC
:102AD00031E0B901621973097CAF6BAF803F91059A
:102AE0002CF080EF90E02C01401A510A0E94261829
:102AF00092014BAD5CADB801C1010E941217C30138
:102B0000880F991F680E791EC301770CAA0BBB0BA7
:102B10002C968CAF9DAFAEAFBFAF2C972FA938AD21
:102B200021503109A901330F660B770BC7010F2C18
:102B3000000CAA0BBB0B9A01AB01281B390B4A0BEB
:102B40005B0B27966CAD7DAD8EAD9FAD27970E9438
:102B5000E8249B01AC01280D391D4A1D5B1D2FABDC
:102B600038AF49AF5AAF97012396AEADBFAD2397AB
:102B70000E94F824860E971EA81EB91EC12CD12CC7
:102B80007601612C712C2FE0641475040CF0C0C028
:102B900028963FAD2897332379F021964CAD5DAD53
:102BA0006EAD7FAD21978FA998ADA9ADBAAD480F95
:102BB000591F6A1F7B1F06C0B701A601480D591D8A
:102BC0006A1D7B1D2C968CAD9DADAEADBFAD2C9717
:102BD000480F591F6A1F7B1FEDA9FEA9309729F0E6
:102BE00082859385A485B58503C08FEF9FEFDC01B7
:102BF00084179507A607B70719F12D964FAF2D97A4
:102C00002E965FAF2E972F966FAF2F9760967FAF60
:102C100060970E94B9168DA99EA92D964FAD2D974C
:102C20002E965FAD2E972F966FAD2F9760967FAD46
:102C30006097009711F00E9488070E9426182FE0E5
:102C400000E010E04BAD5CAD041715070CF042C07E
:102C50002F3080F00E94B9168DA99EA9009739F0F7
:102C60004FE050E0BE016F5F7F4F0E94BF090E949E
:102C7000261820E0E1E0F0E0EC0FFD1FE20FF11D6F
:102C8000308181E0820FE1E0F0E0EC0FFD1FE80F02
:102C9000F11D808192E0920FE1E0F0E0EC0FFD1F6A
:102CA000E90FF11D2D5F4081487F8C7FA8E08A9F4E
:102CB000C0011124942B369536953695832B2D968D
:102CC0002FAF2D970E945A130F5F1F4F2D962FADD8
:102CD0002D97B8CF5FEF651A750A21968CAD9DAD23
:102CE000AEADBFAD219727964CAD5DAD6EAD7FAD5E
:102CF0002797841B950BA60BB70B21968CAF9DAF26
:102D0000AEAFBFAF2197C40ED51EE61EF71E3CCF57
:102D10000E94B9168DA99EA9009789F00E94C40A45
:102D20008DA99EA90E94A2250AC0B1E02896BFAF36
:102D30002897A1CE8AEE91E00E944C13EBCFC15BA5
:102D4000DF4F0FB6F894DEBF0FBECDBFDF91CF913E
:102D50001F910F91FF90EF90DF90CF90BF90AF90B9
:102D60009F908F907F906F905F904F903F902F90AB
:102D70000895E091DF05F091E00590818091E405F0
:102D8000892B80838091D40587FD0C94200F0895B2
:102D90009091D40597FF05C08EBD0DB407FEFDCF01
:102DA000089528E030E040E8E091D705F091D8059B
:102DB0009091E105542F582319F05081952B03C0B1
:102DC0005081909595239083E091DB05F091DC058F
:102DD00050819091E305909595239083E091DB05D8
:102DE000F091DC0550819091E305952B90834695F9
:102DF00021503109C9F60895CF93DF93CDECD5E08A
:102E0000E889F9892081988D9095922390830E947A
:102E1000C816E889F9899081888D892B8083DF9194
:102E2000CF9108958F929F92AF92BF92CF92DF92EF
:102E3000EF92FF920F931F9369018A0101501109CC
:102E4000080F191F20E030E04C01A12CB12C5401D7
:102E500099248824802A912AA22AB32A81E0C81AB8
:102E6000D108C60ED71EC601A0E0B0E06B01E12C70
:102E7000F12C7601DD24CC24C82AD92AEA2AFB2A9F
:102E80008AE20E94FC162091D4058B2D9927AA274F
:102E9000BB2727FF18C08EBD0DB407FEFDCFC501AF
:102EA000AA27BB278EBD0DB407FEFDCFBB27AB2DD8
:102EB0009A2D892D8EBD0DB407FEFDCF8EBC0DB4AD
:102EC00007FEFDCF0BC00E94C8168A2D0E94C816AF
:102ED000892D0E94C816882D0E94C8168BE20E9478
:102EE000FC162091D4058F2D9927AA27BB2727FFF1
:102EF00018C08EBD0DB407FEFDCFC701AA27BB27A2
:102F00008EBD0DB407FEFDCFBB27AF2D9E2D8D2DA1
:102F10008EBD0DB407FEFDCFCEBC0DB407FEFDCFB8
:102F20000BC00E94C8168E2D0E94C8168D2D0E94BF
:102F3000C8168C2D0E94C8168CE21F910F91FF902D
:102F4000EF90DF90CF90BF90AF909F908F900C94B8
:102F5000FC16AF92BF92CF92DF92EF92FF920F9347
:102F60001F93CF93DF937C01FB016901209107013F
:102F7000309108016217730708F05DC0EC01C40FBF
:102F8000D51FBE0161507109DF01AC0DBD1DCD0122
:102F9000019777FD50C097FD4EC0F7FE03C0AE010C
:102FA000E12CF12CF7FF03C06D01E0E0F0E06034AC
:102FB000714024F040E451E04E195F0982179307F5
:102FC00018F06901CE1ADF0A9A01D6010E94F8248E
:102FD0005B01D82FC92F9601BF01C7010E941217AC
:102FE0006501ED2EFC2E8091D40587FF13C0C1141E
:102FF000D104E104F104F9F01EBD0DB407FEFDCFCC
:103000000EBD0DB407FEFDCF81E0C81AD108E1085E
:10301000F108EDCFC114D104E104F10461F0812F76
:103020000E94C816802F0E94C816A1E0CA1AD108B3
:10303000E108F108EFCFDF91CF911F910F91FF9041
:10304000EF90DF90CF90BF90AF9008950F931F93B4
:103050008091D40587FF22C00091CD051091CE0547
:103060002091CF053091D00590E040E052E16AE731
:1030700070E0041715072607370740F47695679523
:10308000579547959F5F9630A1F797E081E0982785
:10309000892F806A869591700E946B0FE091DF0501
:1030A000F091E00590818091E405809589238083EB
:1030B0001F910F910895382F20917A0790917B07E7
:1030C000213208F049C0809157078111FCCF42E0BE
:1030D00040935707309356073FEF309355071092B0
:1030E000540720935307AAE5B7E043E357E0FA01FA
:1030F0003E2F341B321718F43D913193F9CF1092C3
:10310000320720913207990F922B909332079091BA
:103110003107913061F4109231079091320790930A
:10312000BB009091BC0093FDF8CF95EC01C095EEEB
:103130009093BC00909157079230E1F3909155071E
:103140009F3F79F080915507803241F0809155077B
:10315000803331F084E005C081E003C082E001C02B
:1031600083E01092590710927A0710925807089539
:10317000EF92FF920F931F93CF93DF93F09003078B
:103180009FEFF91208C0DF91CF911F910F91FF902F
:10319000EF900C942C0FE090010707E010E0C82F8F
:1031A000D0E0BE01002E02C0759567950A94E2F743
:1031B000617077278E2D0E940C0361E08F2D0E9495
:1031C0000C0360E08F2D0E940C030150110948F799
:1031D000DF91CF911F910F91FF90EF900895CF93C2
:1031E000DF93D82FC62F809100078F3FD1F48091B5
:1031F000040791E09093580780937B07109259073A
:1032000010927A076D2F8FEB95E00E94950B6C2F33
:103210008FEB95E00E94950B81E0DF91CF910C94AC
:103220005B18809103078F3F31F48091CB0590911B
:10323000CC050E946B0F60E0809100070E940C0398
:103240008D2F0E94B8188C2F0E94B81861E08091D1
:1032500000070E940C03809103078F3F21F4DF9148
:10326000CF910C94200FDF91CF9108958F929F9270
:10327000AF92BF92CF92DF92EF92FF920F931F9384
:10328000CF93DF93C82F809100078F3F09F06DC067
:1032900080910407D1E0D093580780937B07109268
:1032A000590710927A076C2F8FEB95E00E94950BCF
:1032B00081E00E945B1880910407D09358078093A7
:1032C0007B071092590710927A0790915707911136
:1032D000FCCF91E090935707909356072FEF2093E0
:1032E000550710925407109253079093320790910C
:1032F0003207880F892B8093320780913107813004
:1033000061F410923107809132078093BB00809165
:10331000BC0083FDF8CF85EC01C085EE8093BC0036
:10332000809157078130E1F380915407811103C0E8
:103330008091540701C081E0A3E3B7E021E137E0C9
:10334000F9019E2F921B981718F49D919193F9CF34
:103350001092100780930F078FEB95E00E94490BA6
:10336000B82E81E00E945B1869C0809103078F3FEF
:1033700031F48091CB059091CC050E946B0F60E0F9
:10338000809100070E940C038C2F80680E94B8185F
:1033900080E00E94B818A09003078FEFA81205C024
:1033A00080E00E942C0FB82E3EC0C091020707E0BB
:1033B00010E0B12CD0E0FE01E254FF4F7F01CE01BE
:1033C0008E579F4F6C01C056DF4F61E08A2D0E94DF
:1033D0000C03F7018491F6018490FE0194909920EA
:1033E00099F081110E94E302292D30E0220F331F52
:1033F0002C543F4FF901A591B4918C91882231E072
:1034000009F430E0832F02C080E090E0002E01C07C
:10341000880F0A94EAF7B82A60E08A2D0E940C030C
:103420000150110990F661E0809100070E940C03A1
:10343000809103078F3F11F40E94200F8B2DDF91A5
:10344000CF911F910F91FF90EF90DF90CF90BF90A1
:10345000AF909F908F9008958F929F92AF92BF925E
:103460000F931F93CF93DF93CDB7DEB7A1970FB61E
:10347000F894DEBF0FBECDBF19A2423008F44AE077
:103480008E010F5D1F4F842E912CA12CB12CA50114
:1034900094010E944329E62FB901CA010150110984
:1034A000EA3014F4E05D01C0E95CD801EC93232B11
:1034B000242B252B61F7C8010E943A13A1960FB661
:1034C000F894DEBF0FBECDBFDF91CF911F910F915A
:1034D000BF90AF909F908F900895CF92DF92EF9220
:1034E000FF92CF93DF936B017C01E091D704F091C1
:1034F000D8040190F081E02D6DE287ED94E009950C
:10350000EC0166277727CB016C197D098E099F098D
:103510004AE00E942C1A8C0F9D1FDF91CF91FF90E3
:10352000EF90DF90CF900895AF92BF92CF92DF924D
:10353000EF92FF920F931F93CF93DF93C22ED12C64
:10354000E42EF12CC62FD0E0A82EB12C0AEC13EB00
:103550009601A701BE01C5010E940A1396012A50D7
:103560003109A7014A505109BE016B5F7F4F01E449
:103570001EEFC50105960E940A13DF91CF911F919E
:103580000F91FF90EF90DF90CF90BF90AF90089594
:103590002F923F924F925F926F927F928F929F9263
:1035A000AF92BF92CF92DF92EF92FF920F931F9351
:1035B000CF93DF93CDB7DEB7A7970FB6F894DEBFF2
:1035C0000FBECDBF9AA389A35B015CA34BA31C8E46
:1035D0009E012F5F3F4F1901CB0108969EA38DA33B
:1035E00095E0920F9FA33C8DC32ED12CEBA1FCA1A3
:1035F000EC0DFD1D8080882009F4B9C090900B016E
:1036000068EF71E0C1010E947313EA8CFB8CE11436
:10361000F10421F0F7018581811105C08BED91E066
:103620000E944C13A0C0F5E08F9EA0011124052E2E
:10363000000C660B770BC7010E94880745E050E03D
:10364000B101C7010E94BF09C7010E94C40AC70196
:103650000E94A22526E0929EC00111248C9D70013B
:103660008D9DF00C9C9DF00C112489A19AA1E80E6F
:10367000F91E90E4E91691E0F9060CF074C0E0EF51
:10368000AE16B1040CF06FC0F0910B01FF8F8F2EBE
:10369000912CC70126E0F29F800D911D1124181670
:1036A00019060CF060C0C40123E0880F991F2A9509
:1036B000E1F78A0D9B1D181619060CF054C00E94E4
:1036C000261837013E8E2D8EED8DFE8D2191FE8FB9
:1036D000ED8F28A32501650138A130FF2CC0009192
:1036E000090110910A018F8D8130D1F490E4E9161F
:1036F00091E0F90600F5D7FC1EC08091070190917A
:103700000801C816D906B8F421E030E041E050E0E5
:10371000B601C7010E941217C8010E945A130BC0BC
:10372000E0E46E16E1E07E0634F49401A401B201F7
:10373000C3010E94A917F8A1F695F8A32FEFC21AAA
:10374000D20A480C591C8DA19EA1C816D90621F693
:103750009FEFE91AF90A680C791CEFA1FD8DEF13B0
:10376000B3CF0E94B9162C8D2F5F2C8F3CCFA7961C
:103770000FB6F894DEBF0FBECDBFDF91CF911F9182
:103780000F91FF90EF90DF90CF90BF90AF909F9000
:103790008F907F906F905F904F903F902F90089503
:1037A0000F931F938C0120EF30E040E451E060E084
:1037B00070E080E090E00E940A131F910F9108953D
:1037C00010927D0780917C078F5F833018F480937F
:1037D0007C0702C010927C0781E080931A01089553
:1037E0007F928F929F92AF92BF92CF92DF92EF9291
:1037F000FF920F931F93CF93DF9300D000D0CDB7EC
:10380000DEB78BE40E94361985FD9CC08E010F5FE8
:103810001F4F64E0F62EF00E87ED0E943619F80176
:1038200081938F01FE12F8CFF9807A800B811C8181
:103830008BE40E94361985FF04C06FEF8BE00E9475
:10384000EF18812F90E0C397853B934008F071C03B
:1038500020E1F29EC0011124272D30E044E035958F
:1038600027954A95E1F7282B392BC901A0E0B0E054
:103870009C01AD012E51310941095109A0EFB0E081
:103880000E94382952E8852E5FE0952EA12CB12C9C
:10389000A50194010E94192969017A01872D8F7071
:1038A000402F50E0582B60E070E09A01AB012E51A0
:1038B000310941095109A0E4B1E00E943829A5016C
:1038C00094010E94192949015A0181E092E00E9465
:1038D0003A138FEFC816D806E806F80631F46FEFF2
:1038E0007FEFCB010E946D1A05C04AE0C701B60107
:1038F0000E942C1A86E092E00E943A13B7FE05C09F
:10390000C501B4010E946D1A05C04AE0C501B401A9
:103910000E942C1A8DE092E00E943A13612F70E011
:1039200080E090E04AE00E942C1A88ED91E00E942D
:103930003A1380917E07813029F00E94390281E09C
:1039400080937E070F900F900F900F90DF91CF9193
:103950001F910F91FF90EF90DF90CF90BF90AF90AD
:103960009F908F907F9008950F931F93CF93DF9335
:10397000CDB7DEB76B970FB6F894DEBF0FBECDBFE5
:1039800080911A01882309F45CC060E080E00E9405
:10399000511160E080E00E9451118091EA05813070
:1039A000F1F564E172E0CE0101960E9462268091F9
:1039B0007D07813059F038F0823059F0833079F446
:1039C00068E272E008C068E172E005C06EE172E092
:1039D00002C062E272E0CE0101960E944C26809104
:1039E0007C071F928F938FE292E09F938F938E01BB
:1039F000075E1F4F1F930F930E947826B801CE01D8
:103A000001960E944C266FEA71E0CE0101960E9459
:103A10004C260F900F900F900F900F900F90CE01AB
:103A200001960E944C134091E6055091E705609184
:103A3000E8057091E905CE0101960E946914109283
:103A40001A016B960FB6F894DEBF0FBECDBFDF91A3
:103A5000CF911F910F910895789484B5826084BDB1
:103A600084B5816084BD85B5826085BD85B5816082
:103A700085BD80916E00816080936E001092810000
:103A800080918100826080938100809181008160BB
:103A9000809381008091800081608093800080917C
:103AA000B10084608093B1008091B0008160809308
:103AB000B00080917A00846080937A0080917A00CF
:103AC000826080937A0080917A00816080937A008E
:103AD00080917A00806880937A001092C100E09112
:103AE000E704F091E80482E08083E091E304F09140
:103AF000E4041082E091E504F091E60480E1808323
:103B00001092EF04E091EB04F091EC0486E08083E6
:103B1000E091E904F091EA04808180618083E09182
:103B2000E904F091EA04808188608083E091E904EF
:103B3000F091EA04808180688083E091E904F0914B
:103B4000EA0480818F7D808387E791E00E944C1397
:103B50001092810510927F0510927C0510927B05D2
:103B600084E080937A050E94B203EB0161E08091CA
:103B70007A050E943C0361E080917A050E940C0363
:103B80000E94BC0D82E580937405109275058091AA
:103B90007405909175050E946B0F1AE08FEF0E94DB
:103BA0002C0F1150D9F70E94200F86E795E00E9454
:103BB0006E0F20E030E0A90160E086E795E00E940A
:103BC000840F182F80938005813049F00E94B20342
:103BD0006C1B7D0B613D774060F381E054C02AEAA5
:103BE00031E040E050E068E086E795E00E94840F15
:103BF00082FF03C0109381050EC014E00E94330FB2
:103C0000809380051150D1F78A3A11F082E03BC0D1
:103C100082E08093810580918105823021F0C12C62
:103C2000D12C760105C0C12CD12CE12C30E4F32E2F
:103C300020E030E0A90167E386E795E00E94840F69
:103C4000A701960169E286E795E00E94840F8093C0
:103C50008005882349F00E94B2036C1B7D0B613DF7
:103C6000774030F388E00FC080918105823001F504
:103C700020E030E0A9016AE386E795E00E94840F26
:103C8000882341F086E080937B0586E795E00E94DB
:103C9000210F91C00E94330F807C803C19F483E097
:103CA000809381050E94330F0E94330F0E94330FCF
:103CB00086E795E00E94210F80E5809374051092BD
:103CC000750581E00E948E04882329F08091A50566
:103CD000882341F070C080E00E948E04882309F49C
:103CE0006AC0F4CF80919905803109F582E0809314
:103CF000A5051092B7051092B8051092B90510925B
:103D0000BA0580919A0590919B05A0E0B0E025E06E
:103D1000880F991FAA1FBB1F2A95D1F78093B3055F
:103D20009093B405A093B505B093B6051EC080323C
:103D300009F041C083E08093A50540919C05509116
:103D40009D0560919E0570919F054093B705509326
:103D5000B8056093B9057093BA0523EB35E082E8A6
:103D600095E00E94E106882331F182E895E0909386
:103D7000BC058093BB0581E08093A4051092A60545
:103D80001092A7051092A8051092A9051092AA05F5
:103D90001092AB051092AC051092AD051092AE05D5
:103DA0001092AF051092B0051092B1051092B205B5
:103DB00085E891E002C08CE891E00E944C1380E01D
:103DC00092E1AAE7B0E08093CD059093CE05A09351
:103DD000CF05B093D00561E08091D2050E943C03ED
:103DE00060E08091D2050E940C0361E08091D105D2
:103DF0000E943C0361E08091D1050E940C038091F8
:103E0000D40587FD1BC061E08091D5050E943C036D
:103E100060E08091D5050E940C0361E08091D4059B
:103E20000E943C0361E08091D4050E940C038091C4
:103E3000D60587FD03C060E00E943C038091D40555
:103E400087FD0E94BC0D8091D30587FD24C061E0F1
:103E50000E943C0361E08091D3050E940C0364E65C
:103E600070E080E090E00E94780360E08091D305EC
:103E70000E940C0364E670E080E090E00E9478030A
:103E800061E08091D3050E940C0368EC70E080E053
:103E900090E00E9478030E9426188FEE0E94FC1684
:103EA00083E00E94C81680E80E94C81682E00E9443
:103EB000C8168FEC0E94FC1680E00E94C81681ECA8
:103EC0000E94C81680E30E94C8168DEE0E94FC1660
:103ED00084E60E94C81683E00E94C81682E10E9410
:103EE000C81681E80E94C81688EE0E94FC1685E874
:103EF0000E94C81680E00E94C81688E70E94C81673
:103F00008BEC0E94FC1689E30E94C8168CE20E948A
:103F1000C81680E00E94C81684E30E94C81682E09A
:103F20000E94C81687EF0E94FC1680E20E94C81605
:103F30008AEE0E94FC1680E00E94C81680E00E9473
:103F4000C81680EC0E94FC1683E20E94C81681EC21
:103F50000E94FC1680E10E94C81685EC0E94FC16A7
:103F60008EE30E94C81688E20E94C81687EC0E9461
:103F7000FC1686E80E94C81686E30E94FC1688E4B8
:103F80000E94C81687E30E94FC168091D40587FF23
:103F900009C01EBC0DB407FEFDCF1EBC0DB407FE4C
:103FA000FDCF06C080E00E94C81680E00E94C816BF
:103FB0008AE30E94FC1685E50E94C81681EB0E94E8
:103FC000FC1680E00E94C81688E10E94C81686EBA5
:103FD0000E94FC1688E00E94C81682E80E94C8165B
:103FE00087E20E94C81682EF0E94FC1680E00E94C1
:103FF000C81686E20E94FC1681E00E94C81680EE78
:104000000E94FC168FE00E94C81681E30E94C81629
:104010008BE20E94C8168CE00E94C8168EE00E94B7
:10402000C81688E00E94C8168EE40E94C81681EF68
:104030000E94C81687E30E94C81687E00E94C8162F
:1040400080E10E94C81683E00E94C8168EE00E949C
:10405000C81689E00E94C81680E00E94C81681EE4A
:104060000E94FC1680E00E94C8168EE00E94C816CE
:1040700084E10E94C81683E00E94C81681E10E9474
:10408000C81687E00E94C81681E30E94C81681EC1A
:104090000E94C81688E40E94C81688E00E94C816CC
:1040A0008FE00E94C8168CE00E94C81681E30E942F
:1040B000C81686E30E94C8168FE00E94C81681E1E8
:1040C0000E94FC1668E770E080E090E00E947803B0
:1040D00089E20E94FC1668E770E080E090E00E94B0
:1040E00078030E94B916C1E0C093020180EF90E00E
:1040F000909301018093000180E491E09093080186
:10410000809307010E94261886E30E94FC1688E22D
:104110000E94C8160E94B91680E090E00E94D01B51
:10412000909100079F3F59F18091030761E08F3F15
:10413000A1F4892F0E943C0361E0809100070E9456
:104140000C030E94BC0D81E58093CB051092CC0539
:1041500010920607109205073BC00E943C0361E0E5
:10416000809100070E943C0361E0809101070E945A
:104170003C0360E0809102070E943C0329C010923A
:10418000100710920F071092590710927A07109299
:104190005707C09356071092310761E082E10E94F1
:1041A0000C0361E083E10E940C038091B9008E7FD3
:1041B0008093B9008091B9008D7F8093B90088E425
:1041C0008093B80085E48093BC0081E48093040769
:1041D0000E9479028131984061F462E083E00E949C
:1041E000EF186AE070E080E090E00E947803C0E0A1
:1041F0001BC0809100078F3F09F450C080910307D6
:104200008F3F09F04BC085E58093CB051092CC051C
:1042100084E090E090930607809305070E9479025E
:1042200081319840D9F5D9CF8C2F0E943619CF5FB4
:10423000C134D1F760E084E00E94EF1861E080E4CF
:104240000E94EF1861E08AE00E94EF1860E680E2C9
:104250000E94EF1862E081E20E94EF1864EA81E4B4
:104260000E94EF1866E086E50E94EF1861E08AE49C
:104270000E94EF1861E08BE40E94EF1860E08BE48D
:104280000E94EF1861E088E50E94EF186FEF8BE065
:104290000E94EF1865E089E00E94EF1810920A076B
:1042A0001092090710920C0710920B0710920E073C
:1042B00010920D078AE396E020915D0630915E062C
:1042C00029503740B1F029E037E030935E06209363
:1042D0005D0690930A078093090710925A06109280
:1042E000590610925C0610925B0690930C0780931F
:1042F0000B0785E196E02091380630913906295068
:10430000374049F129E037E03093390620933806E9
:104310002091090730910A07232B49F490930A074B
:104320008093090710923506109234060AC0E09176
:104330000B07F0910C07F0933506E093340692A337
:1043400081A3109237061092360685E196E090938D
:104350000C0780930B0780EF95E0209113063091B6
:1043600014062950374049F129E037E0309314060C
:10437000209313062091090730910A07232B49F453
:1043800090930A07809309071092100610920F0667
:104390000AC0E0910B07F0910C07F0931006E09330
:1043A0000F0692A381A3109212061092110680EFBD
:1043B00095E090930C0780930B0783E080930B01AB
:1043C00046E951E060E070E080E090E00E94C81AA9
:1043D00060ED77E080E090E00E94780380E090E07C
:1043E0000E94D01B0E94E20160ED77E080E090E047
:1043F0000E94780380E090E00E94D01B0E94390266
:1044000060ED77E080E090E00E9478039FE5E92E80
:1044100096E0F92E970142E05BE05E0D80E090E0CF
:10442000F901E80FF91F40830B9683369105C1F718
:104430002F5F3F4F5213F2CF80E090E021E0FC016C
:10444000E15AF94F248722A320AFE25BFF4F20837C
:1044500002968A30910599F710925F0610926A06CB
:10446000109260061092C1061092C0061092B60615
:1044700080E090E00E94D01BC0E0D0E040E050E03F
:10448000BE018CE091E00E9469146496C43021E082
:10449000D207A1F7C4E1D0E0AE0160E070E08CE0AB
:1044A00091E00E946914AE0160EF70E08CE091E051
:1044B0000E9469146496C83CD10571F7C0E0D0E051
:1044C00048EC50E0BE018CE091E00E9469146496D3
:1044D000C43041E0D407A1F784E1C82ED12CD0E04C
:1044E000570104E110E0C0E0F5018081813039F02E
:1044F000823061F4A801B60185EA91E004C0A80108
:10450000B6018CE091E00E94691404C06C2F8D2FDD
:104510000E945111CF5FFBE0AF0EB11C0C5E1F4F2C
:10452000C93011F7DF5F24E1C20ED11C4FEFE41A4E
:10453000F40ADB30A9F68091090790910A0790935D
:104540000E0780930D07E0910D07F0910E0730974D
:1045500091F3C1A1D2A1808180FF6BC08585968532
:10456000A785B089892B8A2B8B2B69F49081808158
:104570008E7F808380818D7F808390FF5AC0CF01A2
:104580000E94701156C00E94B203E0910D07F09195
:104590000E0781809280A380B480C184D284E3849A
:1045A000F4840581168127813085DC01CB018C19CB
:1045B0009D09AE09BF0980179107A207B307C8F18B
:1045C00085859685A785B089181619061A061B06D3
:1045D0005CF485859685A785B0890197A109B10905
:1045E00085879687A787B08B85899689A789B08D9F
:1045F0000196A11DB11D858B968BA78BB08F8581F0
:104600009681A781B0850185128523853485800F29
:10461000911FA21FB31F81879287A387B4878582CA
:104620009682A782B086018CF28DE02D309709F03A
:104630000995D0930E07C0930D0785CF80EF95E0C5
:104640000E94950085E196E00E9495008AE396E03D
:104650000C949500CF92DF92EF92FF92CF93DF936D
:10466000E7EDF4E01382128248EE53E060E070E080
:1046700044835583668377838BE391E091838083C2
:1046800085EC90E09587848784EC90E09787868717
:1046900080EC90E0918B808B81EC90E0938B828B0F
:1046A00082EC90E0958B848B86EC90E0978B868BE8
:1046B000118E128E138E148EE4E7F5E080E5808370
:1046C0001182E6E7F5E0158216821186138692E0E4
:1046D000C92ED12CE12CF12CC486D586E686F7862E
:1046E00013A215A614A62BE431E033A722A717A620
:1046F000EFEBF5E013821282448355836683778360
:1047000023E531E031832083EBECF5E080831182F7
:10471000ADECB5E08AE014968C93149789E0159679
:104720008C9315978FEF16968C93169717968C93FC
:10473000179718968C93189719968C9319971D9222
:104740001D921D921C921397EAEAF0E0E491F0E0CA
:10475000EE0FFF1FEA56FF4F2591349153963C937D
:104760002E935297ECE8F0E0E4915796EC9357972C
:10477000E9EAF0E0E491F0E0EE0FFF1FEA56FF4FA8
:104780002591349151963C932E935097EBE8F0E0AD
:10479000E4915896EC9358971F961C921E921E9780
:1047A00056961C9256971B961C921E921A975496D8
:1047B0001C9254971D961C921E921C9755961C9203
:1047C000E9E0F7E0118210821382128215821482CE
:1047D00091E09093EF052CE330E03093EE052093C9
:1047E000ED052AEF30E03093EC052093EB05E0E097
:1047F000F7E028E020838383828381839093EA0516
:1048000084E190E09093E9058093E8059093E705B3
:104810008093E605EFE5F6E080EADF011D928A95D8
:10482000E9F7CAE3D6E088818E7F888388818D7F0F
:10483000888319861A861B861C861D821E821F820B
:10484000188619821A821B821C8218A21F8E1AA235
:1048500019A21CA21BA21D8A1E8A1F8A188E84EB15
:104860009CE19A8F898F1C8E1B8E1E8E1D8E82E37B
:1048700090E0A0E0B0E089839A83AB83BC83898118
:104880009A81AB81BC818D839E83AF83B8870E9460
:10489000B20369877A878B879C87CC24CA94DC2CE7
:1048A0007601CD86DE86EF86F88AC98ADA8AEB8AB7
:1048B000FC8AC5E1D6E088818E7F888388818D7FE0
:1048C000888319861A861B861C861D821E821F827B
:1048D000188619821A821B821C8218A21F8E1AA2A5
:1048E00019A21CA21BA21D8A1E8A1F8A188E80EE86
:1048F0009BE19A8F898F1C8E1B8E1E8E1D8E88ECDD
:1049000090E0A0E0B0E089839A83AB83BC83898187
:104910009A81AB81BC818D839E83AF83B8870E94CF
:10492000B20369877A878B879C87CD86DE86EF8680
:10493000F88AC98ADA8AEB8AFC8AC0EFD5E08881D6
:104940008E7F888388818D7F888319861A861B864F
:104950001C861D821E821F82188619821A821B8263
:104960001C8218A21F8E1AA219A21CA21BA21D8AA9
:104970001E8A1F8A188E80EF9BE19A8F898F1C8E6A
:104980001B8E1E8E1D8E81E090E0A0E0B0E089833A
:104990009A83AB83BC8389819A81AB81BC818D83EF
:1049A0009E83AF83B8870E94B20369877A878B871B
:1049B0009C87CD86DE86EF86F88AC98ADA8AEB8AFA
:1049C000FC8ADF91CF91FF90EF90DF90CF90089518
:1049D000DB018F939F930E943829BF91AF91A29FD3
:1049E000800D911DA39F900DB29F900D11240895ED
:1049F0000E946529332312F48A1B9B0B0C94022519
:104A00000E946529B7FF0895821B930B0895EE0F4E
:104A1000FF1F0590F491E02D0994CF93DF9382302E
:104A2000910510F482E090E0E0918107F091820717
:104A300020E030E0C0E0D0E0309711F140815181BA
:104A400048175907C0F04817590761F482819381CC
:104A5000209719F09B838A832BC0909382078093C1
:104A6000810726C02115310519F04217530718F4A4
:104A70009A01BE01DF01EF010280F381E02DDCCF5E
:104A80002115310509F1281B390B2430310590F42B
:104A900012968D919C9113976115710521F0FB0180
:104AA0009383828304C09093820780938107FD01E2
:104AB000329644C0FD01E20FF31F8193919322507F
:104AC00031092D933C933AC020917F0730918007A4
:104AD000232B41F420911D0130911E01309380075A
:104AE00020937F0720911B0130911C012115310576
:104AF00041F42DB73EB740911F0150912001241B76
:104B0000350BE0917F07F0918007E217F307A0F4DF
:104B10002E1B3F0B2817390778F0AC014E5F5F4F13
:104B20002417350748F04E0F5F1F509380074093BE
:104B30007F078193919302C0E0E0F0E0CF01DF9125
:104B4000CF9108950F931F93CF93DF93009709F4AC
:104B50008CC0FC0132971382128200918107109160
:104B600082070115110581F420813181820F931F85
:104B700020917F07309180072817390779F5F09346
:104B80008007E0937F0771C0D80140E050E0AE1786
:104B9000BF0750F412962D913C911397AD0121154A
:104BA000310509F1D901F3CF9D01DA013383228365
:104BB00060817181860F971F8217930769F4EC015A
:104BC00028813981260F371F2E5F3F4F3183208385
:104BD0008A819B8193838283452B29F4F0938207FA
:104BE000E093810742C01396FC93EE931297ED0178
:104BF000499159919E01240F351FE217F30771F473
:104C000080819181840F951F029611969C938E93BB
:104C10008281938113969C938E931297E0E0F0E04B
:104C2000D80112968D919C911397009719F0F80175
:104C30008C01F6CF8D919C9198012E5F3F4F820F92
:104C4000931F20917F07309180072817390769F457
:104C5000309729F4109282071092810702C01382C4
:104C600012821093800700937F07DF91CF911F91ED
:104C70000F91089581E090E0F8940C94AB29FB012A
:104C8000DC0104C08D910190801921F44150504005
:104C9000C8F7881B990B0895FB01DC010D900020DB
:104CA000E9F7119701900D920020E1F70895FC01BA
:104CB0008191861721F08823D9F799270895319794
:104CC000CF010895FB01DC0101900D920020E1F776
:104CD0000895FB01DC014150504048F001900D92D5
:104CE0000020C9F701C01D9241505040E0F70895DF
:104CF000AEE0B0E0EEE7F6E20C9482290D891E8961
:104D000086E08C831A8309838FEF9FE79E838D83D0
:104D1000AE01475E5F4F6F89788DCE0101960E948C
:104D20009B262F813885F801E20FF31F10822E9603
:104D3000E4E00C949E29ACE0B0E0E1EAF6E20C94E9
:104D400074297C016B018A01FC0117821682838120
:104D500081FFBDC1CE0101964C01F7019381F6019F
:104D600093FD859193FF81916F01882309F4ABC175
:104D7000853239F493FD859193FF81916F018532DE
:104D800029F4B70190E00E948328E7CF512C312C01
:104D900020E02032A0F48B3269F030F4803259F0F8
:104DA000833269F420612CC08D3239F0803339F4BC
:104DB000216026C02260246023C0286021C027FD16
:104DC00027C030ED380F3A3078F426FF06C0FAE0FD
:104DD0005F9E300D1124532E13C08AE0389E300D93
:104DE0001124332E20620CC08E3221F426FD6BC1BB
:104DF000206406C08C3611F4206802C0883641F465
:104E0000F60193FD859193FF81916F018111C1CFCF
:104E1000982F9F7D9554933028F40C5F1F4FFFE32C
:104E2000F9830DC0833631F0833771F0833509F093
:104E30005BC022C0F801808189830E5F1F4F44242C
:104E40004394512C540115C03801F2E06F0E711CCF
:104E5000F801A080B18026FF03C0652D70E002C07C
:104E60006FEF7FEFC5012C870E9478282C0183010A
:104E70002C852F77222E17C03801F2E06F0E711C9F
:104E8000F801A080B18026FF03C0652D70E002C04C
:104E90006FEF7FEFC5012C870E946D282C012C85B8
:104EA0002068222E830123FC1BC0832D90E048162E
:104EB0005906B0F4B70180E290E00E9483283A944A
:104EC000F4CFF50127FC859127FE81915F01B701A1
:104ED00090E00E94832831103A94F1E04F1A510873
:104EE0004114510471F7E5C0843611F0893639F563
:104EF000F80127FF07C060817181828193810C5F77
:104F00001F4F08C060817181072E000C880B990B20
:104F10000E5F1F4F2F76722E97FF09C090958095D8
:104F2000709561957F4F8F4F9F4F2068722E2AE0BA
:104F300030E0A4010E94BB28A82EA81844C08537E1
:104F400029F42F7EB22E2AE030E025C0F22FF97F1F
:104F5000BF2E8F36C1F018F4883579F0B4C0803791
:104F600019F0883721F0AFC02F2F2061B22EB4FE88
:104F70000DC08B2D8460B82E09C024FF0AC09F2F5E
:104F80009660B92E06C028E030E005C020E130E090
:104F900002C020E132E0F801B7FE07C060817181F4
:104FA000828193810C5F1F4F06C06081718180E018
:104FB00090E00E5F1F4FA4010E94BB28A82EA818E6
:104FC000FB2DFF777F2E76FE0BC0372D3E7FA5147D
:104FD00050F474FE0AC072FC08C0372D3E7E05C036
:104FE000BA2C372D03C0BA2C01C0B52C34FF0DC02C
:104FF000FE01EA0DF11D8081803311F4397E09C074
:1050000032FF06C0B394B39404C0832F867809F0AE
:10501000B39433FD13C030FF06C05A2CB31418F4F8
:10502000530C5B18B32CB31468F4B70180E290E022
:105030003C870E948328B3943C85F5CFB31410F4C9
:105040003B1801C0312C34FF12C0B70180E390E05F
:105050003C870E9483283C8532FF17C031FD03C086
:1050600088E790E002C088E590E0B7010CC0832F8C
:10507000867859F031FF02C08BE201C080E237FD33
:105080008DE2B70190E00E948328A51438F4B7019F
:1050900080E390E00E9483285A94F7CFAA94F40109
:1050A000EA0DF11D8081B70190E00E948328A110D4
:1050B000F5CF332009F451CEB70180E290E00E9491
:1050C00083283A94F6CFF7018681978102C08FEF4B
:1050D0009FEF2C96E2E10C949029FC010590615021
:1050E00070400110D8F7809590958E0F9F1F0895FE
:1050F000FC016150704001900110D8F780959095A7
:105100008E0F9F1F08950F931F93CF93DF93FB0183
:10511000238121FD03C08FEF9FEF28C022FF16C01F
:1051200046815781248135814217530744F4A08179
:10513000B1819D012F5F3F4F318320838C93268166
:1051400037812F5F3F4F3783268310C0EB01092F34
:10515000182F0084F185E02D0995892BE1F68E81C9
:105160009F8101969F838E83812F902FDF91CF9116
:105170001F910F910895FA01AA27283051F120318B
:1051800081F1E8946F936E7F6E5F7F4F8F4F9F4FDB
:10519000AF4FB1E03ED0B4E03CD0670F781F891F1D
:1051A0009A1FA11D680F791F8A1F911DA11D6A0FEB
:1051B000711D811D911DA11D20D009F468943F919E
:1051C0002AE0269F11243019305D3193DEF6CF019D
:1051D0000895462F4770405D4193B3E00FD0C9F763
:1051E000F6CF462F4F70405D4A3318F0495D31FDD0
:1051F0004052419302D0A9F7EACFB4E0A695979523
:10520000879577956795BA95C9F7009761057105F8
:1052100008959B01AC010A2E069457954795379542
:105220002795BA95C9F7620F731F841F951FA01D9C
:105230000895052E97FB1EF400940E94302957FD17
:1052400007D00E94432907FC03D04EF40C94302968
:1052500050954095309521953F4F4F4F5F4F0895A2
:1052600090958095709561957F4F8F4F9F4F0895D2
:105270000E946529A59F900DB49F900DA49F800D5D
:10528000911D11240895A1E21A2EAA1BBB1BFD013A
:105290000DC0AA1FBB1FEE1FFF1FA217B307E40715
:1052A000F50720F0A21BB30BE40BF50B661F771F6D
:1052B000881F991F1A9469F760957095809590954D
:1052C0009B01AC01BD01CF010895A29FB001B39F26
:1052D000C001A39F700D811D1124911DB29F700DFF
:1052E000811D1124911D08952F923F924F925F923C
:1052F0006F927F928F929F92AF92BF92CF92DF92E6
:10530000EF92FF920F931F93CF93DF93CDB7DEB74A
:10531000CA1BDB0B0FB6F894DEBF0FBECDBF0994DE
:105320002A88398848885F846E847D848C849B8435
:10533000AA84B984C884DF80EE80FD800C811B8143
:10534000AA81B981CE0FD11D0FB6F894DEBF0FBE72
:10535000CDBFED01089510E0CAE6D0E004C0FE0123
:105360000E9407252196CB36D107C9F7F894FFCFC5
:10537000400101FFFFFFFFF000FFFF016D61702F93
:1053800057616C6C312E626D7000010000830780E4
:10539000000100000000000000F10ACC0BD00A88D8
:1053A0000D920DC40B0000000000005201D8002532
:1053B0000103011701990100000000AE09D80000A7
:1053C000000000950B650B5D0B490B3A0B390B0088
:1053D000000000E001D800E001E001E001E0010090
:1053E000000000E001D80067726170686963732093
:1053F000696E6974005344206F6B2100534420652B
:1054000072726F7221006B6172746F6666656C7385
:10541000616C6174006D61702F4372617465312E2F
:10542000626D7000424F4D4245524D414E00474F14
:10543000006261636B00424F4D42455200537461FC
:105440007274004A6F696E000D0A0066696C65200F
:105450006E6F7420666F756E64006269746D617042
:10546000206572726F722100666F6E742E686578A7
:1054700000702E783D002C20702E793D002C20707D
:105480002E7A3D0070312F00646F776E2F0075709B
:105490002F006C6566742F0072696768742F002591
:0254A0006400A6
:107E0000112484B714BE81FFF0D085E080938100F7
:107E100082E08093C00088E18093C10086E0809377
:107E2000C20080E18093C4008EE0C9D0259A86E02C
:107E300020E33CEF91E0309385002093840096BBD3
:107E4000B09BFECF1D9AA8958150A9F7CC24DD24C4
:107E500088248394B5E0AB2EA1E19A2EF3E0BF2EE7
:107E6000A2D0813461F49FD0082FAFD0023811F036
:107E7000013811F484E001C083E08DD089C08234E0
:107E800011F484E103C0853419F485E0A6D080C0E4
:107E9000853579F488D0E82EFF2485D0082F10E0AE
:107EA000102F00270E291F29000F111F8ED06801E7
:107EB0006FC0863521F484E090D080E0DECF843638
:107EC00009F040C070D06FD0082F6DD080E0C81688
:107ED00080E7D80618F4F601B7BEE895C0E0D1E017
:107EE00062D089930C17E1F7F0E0CF16F0E7DF06D8
:107EF00018F0F601B7BEE89568D007B600FCFDCFD4
:107F0000A601A0E0B1E02C9130E011968C91119780
:107F100090E0982F8827822B932B1296FA010C0160
:107F200087BEE89511244E5F5F4FF1E0A038BF0790
:107F300051F7F601A7BEE89507B600FCFDCF97BE46
:107F4000E89526C08437B1F42ED02DD0F82E2BD052
:107F50003CD0F601EF2C8F010F5F1F4F84911BD097
:107F6000EA94F801C1F70894C11CD11CFA94CF0C13
:107F7000D11C0EC0853739F428D08EE10CD085E9AC
:107F80000AD08FE07ACF813511F488E018D01DD067
:107F900080E101D065CF982F8091C00085FFFCCF94
:107FA0009093C60008958091C00087FFFCCF809118
:107FB000C00084FD01C0A8958091C6000895E0E648
:107FC000F0E098E1908380830895EDDF803219F02E
:107FD00088E0F5DFFFCF84E1DECF1F93182FE3DFCA
:107FE0001150E9F7F2DF1F91089580E0E8DFEE27F6
:047FF000FF270994CA
:027FFE00040479
:0400000300007E007B
:00000001FF